{
	"contracts/contract/Destructible.sol": {
		"Destructible": {
			"abi": [
				{
					"inputs": [],
					"name": "selfDestroy",
					"outputs": [],
					"stateMutability": "nonpayable",
					"type": "function"
				}
			],
			"devdoc": {
				"kind": "dev",
				"methods": {},
				"version": 1
			},
			"evm": {
				"assembly": "    /* \"contracts/contract/Destructible.sol\":286:584  contract Destructible is Owned{... */\n  mstore(0x40, 0x80)\n  callvalue\n  dup1\n  iszero\n  tag_1\n  jumpi\n  revert(0x00, 0x00)\ntag_1:\n  pop\n    /* \"contracts/contract/Destructible.sol\":159:169  msg.sender */\n  caller\n    /* \"contracts/contract/Destructible.sol\":142:147  owner */\n  0x00\n  0x00\n    /* \"contracts/contract/Destructible.sol\":142:170  owner = payable (msg.sender) */\n  0x0100\n  exp\n  dup2\n  sload\n  dup2\n  0xffffffffffffffffffffffffffffffffffffffff\n  mul\n  not\n  and\n  swap1\n  dup4\n  0xffffffffffffffffffffffffffffffffffffffff\n  and\n  mul\n  or\n  swap1\n  sstore\n  pop\n    /* \"contracts/contract/Destructible.sol\":286:584  contract Destructible is Owned{... */\n  dataSize(sub_0)\n  dup1\n  dataOffset(sub_0)\n  0x00\n  codecopy\n  0x00\n  return\nstop\n\nsub_0: assembly {\n        /* \"contracts/contract/Destructible.sol\":286:584  contract Destructible is Owned{... */\n      mstore(0x40, 0x80)\n      callvalue\n      dup1\n      iszero\n      tag_1\n      jumpi\n      revert(0x00, 0x00)\n    tag_1:\n      pop\n      jumpi(tag_2, lt(calldatasize, 0x04))\n      shr(0xe0, calldataload(0x00))\n      dup1\n      0xb9750acf\n      eq\n      tag_3\n      jumpi\n    tag_2:\n      revert(0x00, 0x00)\n        /* \"contracts/contract/Destructible.sol\":323:397  function selfDestroy() public OnlyOwner {... */\n    tag_3:\n      tag_4\n      tag_5\n      jump\t// in\n    tag_4:\n      stop\n    tag_5:\n        /* \"contracts/contract/Destructible.sol\":234:239  owner */\n      0x00\n      0x00\n      swap1\n      sload\n      swap1\n      0x0100\n      exp\n      swap1\n      div\n      0xffffffffffffffffffffffffffffffffffffffff\n      and\n        /* \"contracts/contract/Destructible.sol\":220:239  msg.sender == owner */\n      0xffffffffffffffffffffffffffffffffffffffff\n      and\n        /* \"contracts/contract/Destructible.sol\":220:230  msg.sender */\n      caller\n        /* \"contracts/contract/Destructible.sol\":220:239  msg.sender == owner */\n      0xffffffffffffffffffffffffffffffffffffffff\n      and\n      eq\n        /* \"contracts/contract/Destructible.sol\":212:263  require(msg.sender == owner, \"Only Owner can call\") */\n      tag_7\n      jumpi\n      mload(0x40)\n      0x08c379a000000000000000000000000000000000000000000000000000000000\n      dup2\n      mstore\n      0x04\n      add\n      tag_8\n      swap1\n      tag_9\n      jump\t// in\n    tag_8:\n      mload(0x40)\n      dup1\n      swap2\n      sub\n      swap1\n      revert\n    tag_7:\n        /* \"contracts/contract/Destructible.sol\":373:390  disableContract() */\n      tag_11\n        /* \"contracts/contract/Destructible.sol\":373:388  disableContract */\n      tag_12\n        /* \"contracts/contract/Destructible.sol\":373:390  disableContract() */\n      jump\t// in\n    tag_11:\n        /* \"contracts/contract/Destructible.sol\":323:397  function selfDestroy() public OnlyOwner {... */\n      jump\t// out\n        /* \"contracts/contract/Destructible.sol\":451:571  function disableContract() internal  OnlyOwner {... */\n    tag_12:\n        /* \"contracts/contract/Destructible.sol\":234:239  owner */\n      0x00\n      0x00\n      swap1\n      sload\n      swap1\n      0x0100\n      exp\n      swap1\n      div\n      0xffffffffffffffffffffffffffffffffffffffff\n      and\n        /* \"contracts/contract/Destructible.sol\":220:239  msg.sender == owner */\n      0xffffffffffffffffffffffffffffffffffffffff\n      and\n        /* \"contracts/contract/Destructible.sol\":220:230  msg.sender */\n      caller\n        /* \"contracts/contract/Destructible.sol\":220:239  msg.sender == owner */\n      0xffffffffffffffffffffffffffffffffffffffff\n      and\n      eq\n        /* \"contracts/contract/Destructible.sol\":212:263  require(msg.sender == owner, \"Only Owner can call\") */\n      tag_14\n      jumpi\n      mload(0x40)\n      0x08c379a000000000000000000000000000000000000000000000000000000000\n      dup2\n      mstore\n      0x04\n      add\n      tag_15\n      swap1\n      tag_9\n      jump\t// in\n    tag_15:\n      mload(0x40)\n      dup1\n      swap2\n      sub\n      swap1\n      revert\n    tag_14:\n        /* \"contracts/contract/Destructible.sol\":532:533  0 */\n      0x00\n        /* \"contracts/contract/Destructible.sol\":508:513  owner */\n      0x00\n      0x00\n        /* \"contracts/contract/Destructible.sol\":508:535  owner = payable(address(0)) */\n      0x0100\n      exp\n      dup2\n      sload\n      dup2\n      0xffffffffffffffffffffffffffffffffffffffff\n      mul\n      not\n      and\n      swap1\n      dup4\n      0xffffffffffffffffffffffffffffffffffffffff\n      and\n      mul\n      or\n      swap1\n      sstore\n      pop\n        /* \"contracts/contract/Destructible.sol\":451:571  function disableContract() internal  OnlyOwner {... */\n      jump\t// out\n        /* \"#utility.yul\":7:176   */\n    tag_17:\n        /* \"#utility.yul\":91:102   */\n      0x00\n        /* \"#utility.yul\":125:131   */\n      dup3\n        /* \"#utility.yul\":120:123   */\n      dup3\n        /* \"#utility.yul\":113:132   */\n      mstore\n        /* \"#utility.yul\":165:169   */\n      0x20\n        /* \"#utility.yul\":160:163   */\n      dup3\n        /* \"#utility.yul\":156:170   */\n      add\n        /* \"#utility.yul\":141:170   */\n      swap1\n      pop\n        /* \"#utility.yul\":7:176   */\n      swap3\n      swap2\n      pop\n      pop\n      jump\t// out\n        /* \"#utility.yul\":182:351   */\n    tag_18:\n        /* \"#utility.yul\":322:343   */\n      0x4f6e6c79204f776e65722063616e2063616c6c00000000000000000000000000\n        /* \"#utility.yul\":318:319   */\n      0x00\n        /* \"#utility.yul\":310:316   */\n      dup3\n        /* \"#utility.yul\":306:320   */\n      add\n        /* \"#utility.yul\":299:344   */\n      mstore\n        /* \"#utility.yul\":182:351   */\n      pop\n      jump\t// out\n        /* \"#utility.yul\":357:723   */\n    tag_19:\n        /* \"#utility.yul\":499:502   */\n      0x00\n        /* \"#utility.yul\":520:587   */\n      tag_24\n        /* \"#utility.yul\":584:586   */\n      0x13\n        /* \"#utility.yul\":579:582   */\n      dup4\n        /* \"#utility.yul\":520:587   */\n      tag_17\n      jump\t// in\n    tag_24:\n        /* \"#utility.yul\":513:587   */\n      swap2\n      pop\n        /* \"#utility.yul\":596:689   */\n      tag_25\n        /* \"#utility.yul\":685:688   */\n      dup3\n        /* \"#utility.yul\":596:689   */\n      tag_18\n      jump\t// in\n    tag_25:\n        /* \"#utility.yul\":714:716   */\n      0x20\n        /* \"#utility.yul\":709:712   */\n      dup3\n        /* \"#utility.yul\":705:717   */\n      add\n        /* \"#utility.yul\":698:717   */\n      swap1\n      pop\n        /* \"#utility.yul\":357:723   */\n      swap2\n      swap1\n      pop\n      jump\t// out\n        /* \"#utility.yul\":729:1148   */\n    tag_9:\n        /* \"#utility.yul\":895:899   */\n      0x00\n        /* \"#utility.yul\":933:935   */\n      0x20\n        /* \"#utility.yul\":922:931   */\n      dup3\n        /* \"#utility.yul\":918:936   */\n      add\n        /* \"#utility.yul\":910:936   */\n      swap1\n      pop\n        /* \"#utility.yul\":982:991   */\n      dup2\n        /* \"#utility.yul\":976:980   */\n      dup2\n        /* \"#utility.yul\":972:992   */\n      sub\n        /* \"#utility.yul\":968:969   */\n      0x00\n        /* \"#utility.yul\":957:966   */\n      dup4\n        /* \"#utility.yul\":953:970   */\n      add\n        /* \"#utility.yul\":946:993   */\n      mstore\n        /* \"#utility.yul\":1010:1141   */\n      tag_27\n        /* \"#utility.yul\":1136:1140   */\n      dup2\n        /* \"#utility.yul\":1010:1141   */\n      tag_19\n      jump\t// in\n    tag_27:\n        /* \"#utility.yul\":1002:1141   */\n      swap1\n      pop\n        /* \"#utility.yul\":729:1148   */\n      swap2\n      swap1\n      pop\n      jump\t// out\n\n    auxdata: 0xa2646970667358221220c969924a6a117cbfccdbd4acb31bd3d7c61796cdf95fc4b83601ee16a890a29264736f6c634300081e0033\n}\n",
				"bytecode": {
					"linkReferences": {},
					"object": "6080604052348015600e575f5ffd5b50335f5f6101000a81548173ffffffffffffffffffffffffffffffffffffffff021916908373ffffffffffffffffffffffffffffffffffffffff16021790555061024c8061005b5f395ff3fe608060405234801561000f575f5ffd5b5060043610610029575f3560e01c8063b9750acf1461002d575b5f5ffd5b610035610037565b005b5f5f9054906101000a900473ffffffffffffffffffffffffffffffffffffffff1673ffffffffffffffffffffffffffffffffffffffff163373ffffffffffffffffffffffffffffffffffffffff16146100c5576040517f08c379a00000000000000000000000000000000000000000000000000000000081526004016100bc906101f8565b60405180910390fd5b6100cd6100cf565b565b5f5f9054906101000a900473ffffffffffffffffffffffffffffffffffffffff1673ffffffffffffffffffffffffffffffffffffffff163373ffffffffffffffffffffffffffffffffffffffff161461015d576040517f08c379a0000000000000000000000000000000000000000000000000000000008152600401610154906101f8565b60405180910390fd5b5f5f5f6101000a81548173ffffffffffffffffffffffffffffffffffffffff021916908373ffffffffffffffffffffffffffffffffffffffff160217905550565b5f82825260208201905092915050565b7f4f6e6c79204f776e65722063616e2063616c6c000000000000000000000000005f82015250565b5f6101e260138361019e565b91506101ed826101ae565b602082019050919050565b5f6020820190508181035f83015261020f816101d6565b905091905056fea2646970667358221220c969924a6a117cbfccdbd4acb31bd3d7c61796cdf95fc4b83601ee16a890a29264736f6c634300081e0033",
					"opcodes": "PUSH1 0x80 PUSH1 0x40 MSTORE CALLVALUE DUP1 ISZERO PUSH1 0xE JUMPI PUSH0 PUSH0 REVERT JUMPDEST POP CALLER PUSH0 PUSH0 PUSH2 0x100 EXP DUP2 SLOAD DUP2 PUSH20 0xFFFFFFFFFFFFFFFFFFFFFFFFFFFFFFFFFFFFFFFF MUL NOT AND SWAP1 DUP4 PUSH20 0xFFFFFFFFFFFFFFFFFFFFFFFFFFFFFFFFFFFFFFFF AND MUL OR SWAP1 SSTORE POP PUSH2 0x24C DUP1 PUSH2 0x5B PUSH0 CODECOPY PUSH0 RETURN INVALID PUSH1 0x80 PUSH1 0x40 MSTORE CALLVALUE DUP1 ISZERO PUSH2 0xF JUMPI PUSH0 PUSH0 REVERT JUMPDEST POP PUSH1 0x4 CALLDATASIZE LT PUSH2 0x29 JUMPI PUSH0 CALLDATALOAD PUSH1 0xE0 SHR DUP1 PUSH4 0xB9750ACF EQ PUSH2 0x2D JUMPI JUMPDEST PUSH0 PUSH0 REVERT JUMPDEST PUSH2 0x35 PUSH2 0x37 JUMP JUMPDEST STOP JUMPDEST PUSH0 PUSH0 SWAP1 SLOAD SWAP1 PUSH2 0x100 EXP SWAP1 DIV PUSH20 0xFFFFFFFFFFFFFFFFFFFFFFFFFFFFFFFFFFFFFFFF AND PUSH20 0xFFFFFFFFFFFFFFFFFFFFFFFFFFFFFFFFFFFFFFFF AND CALLER PUSH20 0xFFFFFFFFFFFFFFFFFFFFFFFFFFFFFFFFFFFFFFFF AND EQ PUSH2 0xC5 JUMPI PUSH1 0x40 MLOAD PUSH32 0x8C379A000000000000000000000000000000000000000000000000000000000 DUP2 MSTORE PUSH1 0x4 ADD PUSH2 0xBC SWAP1 PUSH2 0x1F8 JUMP JUMPDEST PUSH1 0x40 MLOAD DUP1 SWAP2 SUB SWAP1 REVERT JUMPDEST PUSH2 0xCD PUSH2 0xCF JUMP JUMPDEST JUMP JUMPDEST PUSH0 PUSH0 SWAP1 SLOAD SWAP1 PUSH2 0x100 EXP SWAP1 DIV PUSH20 0xFFFFFFFFFFFFFFFFFFFFFFFFFFFFFFFFFFFFFFFF AND PUSH20 0xFFFFFFFFFFFFFFFFFFFFFFFFFFFFFFFFFFFFFFFF AND CALLER PUSH20 0xFFFFFFFFFFFFFFFFFFFFFFFFFFFFFFFFFFFFFFFF AND EQ PUSH2 0x15D JUMPI PUSH1 0x40 MLOAD PUSH32 0x8C379A000000000000000000000000000000000000000000000000000000000 DUP2 MSTORE PUSH1 0x4 ADD PUSH2 0x154 SWAP1 PUSH2 0x1F8 JUMP JUMPDEST PUSH1 0x40 MLOAD DUP1 SWAP2 SUB SWAP1 REVERT JUMPDEST PUSH0 PUSH0 PUSH0 PUSH2 0x100 EXP DUP2 SLOAD DUP2 PUSH20 0xFFFFFFFFFFFFFFFFFFFFFFFFFFFFFFFFFFFFFFFF MUL NOT AND SWAP1 DUP4 PUSH20 0xFFFFFFFFFFFFFFFFFFFFFFFFFFFFFFFFFFFFFFFF AND MUL OR SWAP1 SSTORE POP JUMP JUMPDEST PUSH0 DUP3 DUP3 MSTORE PUSH1 0x20 DUP3 ADD SWAP1 POP SWAP3 SWAP2 POP POP JUMP JUMPDEST PUSH32 0x4F6E6C79204F776E65722063616E2063616C6C00000000000000000000000000 PUSH0 DUP3 ADD MSTORE POP JUMP JUMPDEST PUSH0 PUSH2 0x1E2 PUSH1 0x13 DUP4 PUSH2 0x19E JUMP JUMPDEST SWAP2 POP PUSH2 0x1ED DUP3 PUSH2 0x1AE JUMP JUMPDEST PUSH1 0x20 DUP3 ADD SWAP1 POP SWAP2 SWAP1 POP JUMP JUMPDEST PUSH0 PUSH1 0x20 DUP3 ADD SWAP1 POP DUP2 DUP2 SUB PUSH0 DUP4 ADD MSTORE PUSH2 0x20F DUP2 PUSH2 0x1D6 JUMP JUMPDEST SWAP1 POP SWAP2 SWAP1 POP JUMP INVALID LOG2 PUSH5 0x6970667358 0x22 SLT KECCAK256 0xC9 PUSH10 0x924A6A117CBFCCDBD4AC 0xB3 SHL 0xD3 0xD7 0xC6 OR SWAP7 0xCD EXTDELEGATECALL PUSH0 0xC4 0xB8 CALLDATASIZE ADD RETURNCONTRACT 0x16 0xA8 SWAP1 LOG2 SWAP3 PUSH5 0x736F6C6343 STOP ADDMOD 0x1E STOP CALLER "
				},
				"gasEstimates": {
					"creation": {
						"codeDepositCost": "117600",
						"executionCost": "24427",
						"totalCost": "142027"
					},
					"external": {
						"selfDestroy()": "28745"
					},
					"internal": {
						"disableContract()": "infinite"
					}
				},
				"methodIdentifiers": {
					"selfDestroy()": "b9750acf"
				}
			},
			"storageLayout": {
				"storage": [
					{
						"astId": 3,
						"contract": "contracts/contract/Destructible.sol:Destructible",
						"label": "owner",
						"offset": 0,
						"slot": "0",
						"type": "t_address_payable"
					}
				],
				"types": {
					"t_address_payable": {
						"encoding": "inplace",
						"label": "address payable",
						"numberOfBytes": "20"
					}
				}
			},
			"userdoc": {
				"kind": "user",
				"methods": {},
				"version": 1
			}
		}
	}
}