{
	"contracts/19_MappingExample.sol": {
		"MappingUser": {
			"abi": [
				{
					"inputs": [],
					"stateMutability": "nonpayable",
					"type": "constructor"
				},
				{
					"inputs": [],
					"name": "example",
					"outputs": [
						{
							"internalType": "contract MappingExample",
							"name": "",
							"type": "address"
						}
					],
					"stateMutability": "view",
					"type": "function"
				},
				{
					"inputs": [],
					"name": "getBalancesByAddress",
					"outputs": [
						{
							"internalType": "uint256",
							"name": "",
							"type": "uint256"
						}
					],
					"stateMutability": "nonpayable",
					"type": "function"
				}
			],
			"devdoc": {
				"kind": "dev",
				"methods": {},
				"version": 1
			},
			"evm": {
				"assembly": "    /* \"contracts/19_MappingExample.sol\":1631:2008  contract MappingUser {... */\n  mstore(0x40, 0x80)\n    /* \"contracts/19_MappingExample.sol\":1699:1760  constructor() {... */\n  callvalue\n  dup1\n  iszero\n  tag_1\n  jumpi\n  0x00\n  dup1\n  revert\ntag_1:\n  pop\n    /* \"contracts/19_MappingExample.sol\":1733:1753  new MappingExample() */\n  mload(0x40)\n  tag_4\n  swap1\n  tag_5\n  jump\t// in\ntag_4:\n  mload(0x40)\n  dup1\n  swap2\n  sub\n  swap1\n  0x00\n  create\n  dup1\n  iszero\n  dup1\n  iszero\n  tag_6\n  jumpi\n  returndatasize\n  0x00\n  dup1\n  returndatacopy\n  revert(0x00, returndatasize)\ntag_6:\n  pop\n    /* \"contracts/19_MappingExample.sol\":1723:1730  example */\n  0x00\n  dup1\n    /* \"contracts/19_MappingExample.sol\":1723:1753  example = new MappingExample() */\n  0x0100\n  exp\n  dup2\n  sload\n  dup2\n  0xffffffffffffffffffffffffffffffffffffffff\n  mul\n  not\n  and\n  swap1\n  dup4\n  0xffffffffffffffffffffffffffffffffffffffff\n  and\n  mul\n  or\n  swap1\n  sstore\n  pop\n    /* \"contracts/19_MappingExample.sol\":1631:2008  contract MappingUser {... */\n  jump(tag_7)\ntag_5:\n  dataSize(sub_1)\n  dup1\n  dataOffset(sub_1)\n  dup4\n  codecopy\n  add\n  swap1\n  jump\t// out\ntag_7:\n  dataSize(sub_0)\n  dup1\n  dataOffset(sub_0)\n  0x00\n  codecopy\n  0x00\n  return\nstop\n\nsub_0: assembly {\n        /* \"contracts/19_MappingExample.sol\":1631:2008  contract MappingUser {... */\n      mstore(0x40, 0x80)\n      callvalue\n      dup1\n      iszero\n      tag_1\n      jumpi\n      0x00\n      dup1\n      revert\n    tag_1:\n      pop\n      jumpi(tag_2, lt(calldatasize, 0x04))\n      shr(0xe0, calldataload(0x00))\n      dup1\n      0x416a06d9\n      eq\n      tag_3\n      jumpi\n      dup1\n      0x54353f2f\n      eq\n      tag_4\n      jumpi\n    tag_2:\n      0x00\n      dup1\n      revert\n        /* \"contracts/19_MappingExample.sol\":1766:2006  function getBalancesByAddress() public returns (uint) {... */\n    tag_3:\n      tag_5\n      tag_6\n      jump\t// in\n    tag_5:\n      mload(0x40)\n      tag_7\n      swap2\n      swap1\n      tag_8\n      jump\t// in\n    tag_7:\n      mload(0x40)\n      dup1\n      swap2\n      sub\n      swap1\n      return\n        /* \"contracts/19_MappingExample.sol\":1659:1688  MappingExample public example */\n    tag_4:\n      tag_9\n      tag_10\n      jump\t// in\n    tag_9:\n      mload(0x40)\n      tag_11\n      swap2\n      swap1\n      tag_12\n      jump\t// in\n    tag_11:\n      mload(0x40)\n      dup1\n      swap2\n      sub\n      swap1\n      return\n        /* \"contracts/19_MappingExample.sol\":1766:2006  function getBalancesByAddress() public returns (uint) {... */\n    tag_6:\n        /* \"contracts/19_MappingExample.sol\":1814:1818  uint */\n      0x00\n        /* \"contracts/19_MappingExample.sol\":1830:1837  example */\n      dup1\n      0x00\n      swap1\n      sload\n      swap1\n      0x0100\n      exp\n      swap1\n      div\n      0xffffffffffffffffffffffffffffffffffffffff\n      and\n        /* \"contracts/19_MappingExample.sol\":1830:1844  example.update */\n      0xffffffffffffffffffffffffffffffffffffffff\n      and\n      0x82ab890a\n        /* \"contracts/19_MappingExample.sol\":1845:1848  100 */\n      0x64\n        /* \"contracts/19_MappingExample.sol\":1830:1849  example.update(100) */\n      mload(0x40)\n      dup3\n      0xffffffff\n      and\n      0xe0\n      shl\n      dup2\n      mstore\n      0x04\n      add\n      tag_14\n      swap2\n      swap1\n      tag_15\n      jump\t// in\n    tag_14:\n      0x00\n      mload(0x40)\n      dup1\n      dup4\n      sub\n      dup2\n      0x00\n      dup8\n      dup1\n      extcodesize\n      iszero\n      dup1\n      iszero\n      tag_16\n      jumpi\n      0x00\n      dup1\n      revert\n    tag_16:\n      pop\n      gas\n      call\n      iszero\n      dup1\n      iszero\n      tag_18\n      jumpi\n      returndatasize\n      0x00\n      dup1\n      returndatacopy\n      revert(0x00, returndatasize)\n    tag_18:\n      pop\n      pop\n      pop\n      pop\n        /* \"contracts/19_MappingExample.sol\":1968:1975  example */\n      0x00\n      dup1\n      sload\n      swap1\n      0x0100\n      exp\n      swap1\n      div\n      0xffffffffffffffffffffffffffffffffffffffff\n      and\n        /* \"contracts/19_MappingExample.sol\":1968:1984  example.balances */\n      0xffffffffffffffffffffffffffffffffffffffff\n      and\n      0x27e235e3\n        /* \"contracts/19_MappingExample.sol\":1993:1997  this */\n      address\n        /* \"contracts/19_MappingExample.sol\":1968:1999  example.balances(address(this)) */\n      mload(0x40)\n      dup3\n      0xffffffff\n      and\n      0xe0\n      shl\n      dup2\n      mstore\n      0x04\n      add\n      tag_19\n      swap2\n      swap1\n      tag_20\n      jump\t// in\n    tag_19:\n      0x20\n      mload(0x40)\n      dup1\n      dup4\n      sub\n      dup2\n      dup7\n      gas\n      staticcall\n      iszero\n      dup1\n      iszero\n      tag_22\n      jumpi\n      returndatasize\n      0x00\n      dup1\n      returndatacopy\n      revert(0x00, returndatasize)\n    tag_22:\n      pop\n      pop\n      pop\n      pop\n      mload(0x40)\n      returndatasize\n      not(0x1f)\n      0x1f\n      dup3\n      add\n      and\n      dup3\n      add\n      dup1\n      0x40\n      mstore\n      pop\n      dup2\n      add\n      swap1\n      tag_23\n      swap2\n      swap1\n      tag_24\n      jump\t// in\n    tag_23:\n        /* \"contracts/19_MappingExample.sol\":1961:1999  return example.balances(address(this)) */\n      swap1\n      pop\n        /* \"contracts/19_MappingExample.sol\":1766:2006  function getBalancesByAddress() public returns (uint) {... */\n      swap1\n      jump\t// out\n        /* \"contracts/19_MappingExample.sol\":1659:1688  MappingExample public example */\n    tag_10:\n      0x00\n      dup1\n      sload\n      swap1\n      0x0100\n      exp\n      swap1\n      div\n      0xffffffffffffffffffffffffffffffffffffffff\n      and\n      dup2\n      jump\t// out\n        /* \"#utility.yul\":7:84   */\n    tag_25:\n        /* \"#utility.yul\":44:51   */\n      0x00\n        /* \"#utility.yul\":73:78   */\n      dup2\n        /* \"#utility.yul\":62:78   */\n      swap1\n      pop\n        /* \"#utility.yul\":7:84   */\n      swap2\n      swap1\n      pop\n      jump\t// out\n        /* \"#utility.yul\":90:208   */\n    tag_26:\n        /* \"#utility.yul\":177:201   */\n      tag_46\n        /* \"#utility.yul\":195:200   */\n      dup2\n        /* \"#utility.yul\":177:201   */\n      tag_25\n      jump\t// in\n    tag_46:\n        /* \"#utility.yul\":172:175   */\n      dup3\n        /* \"#utility.yul\":165:202   */\n      mstore\n        /* \"#utility.yul\":90:208   */\n      pop\n      pop\n      jump\t// out\n        /* \"#utility.yul\":214:436   */\n    tag_8:\n        /* \"#utility.yul\":307:311   */\n      0x00\n        /* \"#utility.yul\":345:347   */\n      0x20\n        /* \"#utility.yul\":334:343   */\n      dup3\n        /* \"#utility.yul\":330:348   */\n      add\n        /* \"#utility.yul\":322:348   */\n      swap1\n      pop\n        /* \"#utility.yul\":358:429   */\n      tag_48\n        /* \"#utility.yul\":426:427   */\n      0x00\n        /* \"#utility.yul\":415:424   */\n      dup4\n        /* \"#utility.yul\":411:428   */\n      add\n        /* \"#utility.yul\":402:408   */\n      dup5\n        /* \"#utility.yul\":358:429   */\n      tag_26\n      jump\t// in\n    tag_48:\n        /* \"#utility.yul\":214:436   */\n      swap3\n      swap2\n      pop\n      pop\n      jump\t// out\n        /* \"#utility.yul\":442:568   */\n    tag_27:\n        /* \"#utility.yul\":479:486   */\n      0x00\n        /* \"#utility.yul\":519:561   */\n      0xffffffffffffffffffffffffffffffffffffffff\n        /* \"#utility.yul\":512:517   */\n      dup3\n        /* \"#utility.yul\":508:562   */\n      and\n        /* \"#utility.yul\":497:562   */\n      swap1\n      pop\n        /* \"#utility.yul\":442:568   */\n      swap2\n      swap1\n      pop\n      jump\t// out\n        /* \"#utility.yul\":574:634   */\n    tag_28:\n        /* \"#utility.yul\":602:605   */\n      0x00\n        /* \"#utility.yul\":623:628   */\n      dup2\n        /* \"#utility.yul\":616:628   */\n      swap1\n      pop\n        /* \"#utility.yul\":574:634   */\n      swap2\n      swap1\n      pop\n      jump\t// out\n        /* \"#utility.yul\":640:782   */\n    tag_29:\n        /* \"#utility.yul\":690:699   */\n      0x00\n        /* \"#utility.yul\":723:776   */\n      tag_52\n        /* \"#utility.yul\":741:775   */\n      tag_53\n        /* \"#utility.yul\":750:774   */\n      tag_54\n        /* \"#utility.yul\":768:773   */\n      dup5\n        /* \"#utility.yul\":750:774   */\n      tag_27\n      jump\t// in\n    tag_54:\n        /* \"#utility.yul\":741:775   */\n      tag_28\n      jump\t// in\n    tag_53:\n        /* \"#utility.yul\":723:776   */\n      tag_27\n      jump\t// in\n    tag_52:\n        /* \"#utility.yul\":710:776   */\n      swap1\n      pop\n        /* \"#utility.yul\":640:782   */\n      swap2\n      swap1\n      pop\n      jump\t// out\n        /* \"#utility.yul\":788:914   */\n    tag_30:\n        /* \"#utility.yul\":838:847   */\n      0x00\n        /* \"#utility.yul\":871:908   */\n      tag_56\n        /* \"#utility.yul\":902:907   */\n      dup3\n        /* \"#utility.yul\":871:908   */\n      tag_29\n      jump\t// in\n    tag_56:\n        /* \"#utility.yul\":858:908   */\n      swap1\n      pop\n        /* \"#utility.yul\":788:914   */\n      swap2\n      swap1\n      pop\n      jump\t// out\n        /* \"#utility.yul\":920:1068   */\n    tag_31:\n        /* \"#utility.yul\":992:1001   */\n      0x00\n        /* \"#utility.yul\":1025:1062   */\n      tag_58\n        /* \"#utility.yul\":1056:1061   */\n      dup3\n        /* \"#utility.yul\":1025:1062   */\n      tag_30\n      jump\t// in\n    tag_58:\n        /* \"#utility.yul\":1012:1062   */\n      swap1\n      pop\n        /* \"#utility.yul\":920:1068   */\n      swap2\n      swap1\n      pop\n      jump\t// out\n        /* \"#utility.yul\":1074:1249   */\n    tag_32:\n        /* \"#utility.yul\":1183:1242   */\n      tag_60\n        /* \"#utility.yul\":1236:1241   */\n      dup2\n        /* \"#utility.yul\":1183:1242   */\n      tag_31\n      jump\t// in\n    tag_60:\n        /* \"#utility.yul\":1178:1181   */\n      dup3\n        /* \"#utility.yul\":1171:1243   */\n      mstore\n        /* \"#utility.yul\":1074:1249   */\n      pop\n      pop\n      jump\t// out\n        /* \"#utility.yul\":1255:1521   */\n    tag_12:\n        /* \"#utility.yul\":1370:1374   */\n      0x00\n        /* \"#utility.yul\":1408:1410   */\n      0x20\n        /* \"#utility.yul\":1397:1406   */\n      dup3\n        /* \"#utility.yul\":1393:1411   */\n      add\n        /* \"#utility.yul\":1385:1411   */\n      swap1\n      pop\n        /* \"#utility.yul\":1421:1514   */\n      tag_62\n        /* \"#utility.yul\":1511:1512   */\n      0x00\n        /* \"#utility.yul\":1500:1509   */\n      dup4\n        /* \"#utility.yul\":1496:1513   */\n      add\n        /* \"#utility.yul\":1487:1493   */\n      dup5\n        /* \"#utility.yul\":1421:1514   */\n      tag_32\n      jump\t// in\n    tag_62:\n        /* \"#utility.yul\":1255:1521   */\n      swap3\n      swap2\n      pop\n      pop\n      jump\t// out\n        /* \"#utility.yul\":1527:1614   */\n    tag_33:\n        /* \"#utility.yul\":1574:1581   */\n      0x00\n        /* \"#utility.yul\":1603:1608   */\n      dup2\n        /* \"#utility.yul\":1592:1608   */\n      swap1\n      pop\n        /* \"#utility.yul\":1527:1614   */\n      swap2\n      swap1\n      pop\n      jump\t// out\n        /* \"#utility.yul\":1620:1782   */\n    tag_34:\n        /* \"#utility.yul\":1680:1689   */\n      0x00\n        /* \"#utility.yul\":1713:1776   */\n      tag_65\n        /* \"#utility.yul\":1731:1775   */\n      tag_66\n        /* \"#utility.yul\":1740:1774   */\n      tag_67\n        /* \"#utility.yul\":1768:1773   */\n      dup5\n        /* \"#utility.yul\":1740:1774   */\n      tag_33\n      jump\t// in\n    tag_67:\n        /* \"#utility.yul\":1731:1775   */\n      tag_28\n      jump\t// in\n    tag_66:\n        /* \"#utility.yul\":1713:1776   */\n      tag_25\n      jump\t// in\n    tag_65:\n        /* \"#utility.yul\":1700:1776   */\n      swap1\n      pop\n        /* \"#utility.yul\":1620:1782   */\n      swap2\n      swap1\n      pop\n      jump\t// out\n        /* \"#utility.yul\":1788:1939   */\n    tag_35:\n        /* \"#utility.yul\":1885:1932   */\n      tag_69\n        /* \"#utility.yul\":1926:1931   */\n      dup2\n        /* \"#utility.yul\":1885:1932   */\n      tag_34\n      jump\t// in\n    tag_69:\n        /* \"#utility.yul\":1880:1883   */\n      dup3\n        /* \"#utility.yul\":1873:1933   */\n      mstore\n        /* \"#utility.yul\":1788:1939   */\n      pop\n      pop\n      jump\t// out\n        /* \"#utility.yul\":1945:2187   */\n    tag_15:\n        /* \"#utility.yul\":2048:2052   */\n      0x00\n        /* \"#utility.yul\":2086:2088   */\n      0x20\n        /* \"#utility.yul\":2075:2084   */\n      dup3\n        /* \"#utility.yul\":2071:2089   */\n      add\n        /* \"#utility.yul\":2063:2089   */\n      swap1\n      pop\n        /* \"#utility.yul\":2099:2180   */\n      tag_71\n        /* \"#utility.yul\":2177:2178   */\n      0x00\n        /* \"#utility.yul\":2166:2175   */\n      dup4\n        /* \"#utility.yul\":2162:2179   */\n      add\n        /* \"#utility.yul\":2153:2159   */\n      dup5\n        /* \"#utility.yul\":2099:2180   */\n      tag_35\n      jump\t// in\n    tag_71:\n        /* \"#utility.yul\":1945:2187   */\n      swap3\n      swap2\n      pop\n      pop\n      jump\t// out\n        /* \"#utility.yul\":2193:2289   */\n    tag_36:\n        /* \"#utility.yul\":2230:2237   */\n      0x00\n        /* \"#utility.yul\":2259:2283   */\n      tag_73\n        /* \"#utility.yul\":2277:2282   */\n      dup3\n        /* \"#utility.yul\":2259:2283   */\n      tag_27\n      jump\t// in\n    tag_73:\n        /* \"#utility.yul\":2248:2283   */\n      swap1\n      pop\n        /* \"#utility.yul\":2193:2289   */\n      swap2\n      swap1\n      pop\n      jump\t// out\n        /* \"#utility.yul\":2295:2413   */\n    tag_37:\n        /* \"#utility.yul\":2382:2406   */\n      tag_75\n        /* \"#utility.yul\":2400:2405   */\n      dup2\n        /* \"#utility.yul\":2382:2406   */\n      tag_36\n      jump\t// in\n    tag_75:\n        /* \"#utility.yul\":2377:2380   */\n      dup3\n        /* \"#utility.yul\":2370:2407   */\n      mstore\n        /* \"#utility.yul\":2295:2413   */\n      pop\n      pop\n      jump\t// out\n        /* \"#utility.yul\":2419:2641   */\n    tag_20:\n        /* \"#utility.yul\":2512:2516   */\n      0x00\n        /* \"#utility.yul\":2550:2552   */\n      0x20\n        /* \"#utility.yul\":2539:2548   */\n      dup3\n        /* \"#utility.yul\":2535:2553   */\n      add\n        /* \"#utility.yul\":2527:2553   */\n      swap1\n      pop\n        /* \"#utility.yul\":2563:2634   */\n      tag_77\n        /* \"#utility.yul\":2631:2632   */\n      0x00\n        /* \"#utility.yul\":2620:2629   */\n      dup4\n        /* \"#utility.yul\":2616:2633   */\n      add\n        /* \"#utility.yul\":2607:2613   */\n      dup5\n        /* \"#utility.yul\":2563:2634   */\n      tag_37\n      jump\t// in\n    tag_77:\n        /* \"#utility.yul\":2419:2641   */\n      swap3\n      swap2\n      pop\n      pop\n      jump\t// out\n        /* \"#utility.yul\":2728:2845   */\n    tag_39:\n        /* \"#utility.yul\":2837:2838   */\n      0x00\n        /* \"#utility.yul\":2834:2835   */\n      dup1\n        /* \"#utility.yul\":2827:2839   */\n      revert\n        /* \"#utility.yul\":2974:3096   */\n    tag_41:\n        /* \"#utility.yul\":3047:3071   */\n      tag_82\n        /* \"#utility.yul\":3065:3070   */\n      dup2\n        /* \"#utility.yul\":3047:3071   */\n      tag_25\n      jump\t// in\n    tag_82:\n        /* \"#utility.yul\":3040:3045   */\n      dup2\n        /* \"#utility.yul\":3037:3072   */\n      eq\n        /* \"#utility.yul\":3027:3090   */\n      tag_83\n      jumpi\n        /* \"#utility.yul\":3086:3087   */\n      0x00\n        /* \"#utility.yul\":3083:3084   */\n      dup1\n        /* \"#utility.yul\":3076:3088   */\n      revert\n        /* \"#utility.yul\":3027:3090   */\n    tag_83:\n        /* \"#utility.yul\":2974:3096   */\n      pop\n      jump\t// out\n        /* \"#utility.yul\":3102:3245   */\n    tag_42:\n        /* \"#utility.yul\":3159:3164   */\n      0x00\n        /* \"#utility.yul\":3190:3196   */\n      dup2\n        /* \"#utility.yul\":3184:3197   */\n      mload\n        /* \"#utility.yul\":3175:3197   */\n      swap1\n      pop\n        /* \"#utility.yul\":3206:3239   */\n      tag_85\n        /* \"#utility.yul\":3233:3238   */\n      dup2\n        /* \"#utility.yul\":3206:3239   */\n      tag_41\n      jump\t// in\n    tag_85:\n        /* \"#utility.yul\":3102:3245   */\n      swap3\n      swap2\n      pop\n      pop\n      jump\t// out\n        /* \"#utility.yul\":3251:3602   */\n    tag_24:\n        /* \"#utility.yul\":3321:3327   */\n      0x00\n        /* \"#utility.yul\":3370:3372   */\n      0x20\n        /* \"#utility.yul\":3358:3367   */\n      dup3\n        /* \"#utility.yul\":3349:3356   */\n      dup5\n        /* \"#utility.yul\":3345:3368   */\n      sub\n        /* \"#utility.yul\":3341:3373   */\n      slt\n        /* \"#utility.yul\":3338:3457   */\n      iszero\n      tag_87\n      jumpi\n        /* \"#utility.yul\":3376:3455   */\n      tag_88\n      tag_39\n      jump\t// in\n    tag_88:\n        /* \"#utility.yul\":3338:3457   */\n    tag_87:\n        /* \"#utility.yul\":3496:3497   */\n      0x00\n        /* \"#utility.yul\":3521:3585   */\n      tag_89\n        /* \"#utility.yul\":3577:3584   */\n      dup5\n        /* \"#utility.yul\":3568:3574   */\n      dup3\n        /* \"#utility.yul\":3557:3566   */\n      dup6\n        /* \"#utility.yul\":3553:3575   */\n      add\n        /* \"#utility.yul\":3521:3585   */\n      tag_42\n      jump\t// in\n    tag_89:\n        /* \"#utility.yul\":3511:3585   */\n      swap2\n      pop\n        /* \"#utility.yul\":3467:3595   */\n      pop\n        /* \"#utility.yul\":3251:3602   */\n      swap3\n      swap2\n      pop\n      pop\n      jump\t// out\n\n    auxdata: 0xa2646970667358221220c0fcb7bcb38234abdade4214e7dfe0f4d8f82f995038259a16f9feefe2e6abec64736f6c634300081a0033\n}\n\nsub_1: assembly {\n        /* \"contracts/19_MappingExample.sol\":66:1628  contract MappingExample {... */\n      mstore(0x40, 0x80)\n      callvalue\n      dup1\n      iszero\n      tag_1\n      jumpi\n      0x00\n      dup1\n      revert\n    tag_1:\n      pop\n      dataSize(sub_0)\n      dup1\n      dataOffset(sub_0)\n      0x00\n      codecopy\n      0x00\n      return\n    stop\n\n    sub_0: assembly {\n            /* \"contracts/19_MappingExample.sol\":66:1628  contract MappingExample {... */\n          mstore(0x40, 0x80)\n          callvalue\n          dup1\n          iszero\n          tag_1\n          jumpi\n          0x00\n          dup1\n          revert\n        tag_1:\n          pop\n          jumpi(tag_2, lt(calldatasize, 0x04))\n          shr(0xe0, calldataload(0x00))\n          dup1\n          0x23b872dd\n          eq\n          tag_3\n          jumpi\n          dup1\n          0x27e235e3\n          eq\n          tag_4\n          jumpi\n          dup1\n          0x30e0789e\n          eq\n          tag_5\n          jumpi\n          dup1\n          0x6b0500c3\n          eq\n          tag_6\n          jumpi\n          dup1\n          0x719603bf\n          eq\n          tag_7\n          jumpi\n          dup1\n          0x82ab890a\n          eq\n          tag_8\n          jumpi\n        tag_2:\n          0x00\n          dup1\n          revert\n            /* \"contracts/19_MappingExample.sol\":583:879  function transferFrom(address sender, address recipient, uint amount) public returns (bool) {... */\n        tag_3:\n          tag_9\n          0x04\n          dup1\n          calldatasize\n          sub\n          dup2\n          add\n          swap1\n          tag_10\n          swap2\n          swap1\n          tag_11\n          jump\t// in\n        tag_10:\n          tag_12\n          jump\t// in\n        tag_9:\n          mload(0x40)\n          tag_13\n          swap2\n          swap1\n          tag_14\n          jump\t// in\n        tag_13:\n          mload(0x40)\n          dup1\n          swap2\n          sub\n          swap1\n          return\n            /* \"contracts/19_MappingExample.sol\":97:139  mapping (address => uint) public  balances */\n        tag_4:\n          tag_15\n          0x04\n          dup1\n          calldatasize\n          sub\n          dup2\n          add\n          swap1\n          tag_16\n          swap2\n          swap1\n          tag_17\n          jump\t// in\n        tag_16:\n          tag_18\n          jump\t// in\n        tag_15:\n          mload(0x40)\n          tag_19\n          swap2\n          swap1\n          tag_20\n          jump\t// in\n        tag_19:\n          mload(0x40)\n          dup1\n          swap2\n          sub\n          swap1\n          return\n            /* \"contracts/19_MappingExample.sol\":1218:1626  function _transfer(address sender, address spender, uint amount) public returns (bool) {... */\n        tag_5:\n          tag_21\n          0x04\n          dup1\n          calldatasize\n          sub\n          dup2\n          add\n          swap1\n          tag_22\n          swap2\n          swap1\n          tag_11\n          jump\t// in\n        tag_22:\n          tag_23\n          jump\t// in\n        tag_21:\n          mload(0x40)\n          tag_24\n          swap2\n          swap1\n          tag_14\n          jump\t// in\n        tag_24:\n          mload(0x40)\n          dup1\n          swap2\n          sub\n          swap1\n          return\n            /* \"contracts/19_MappingExample.sol\":355:489  function allownance(address owner, address recipient) public view returns (uint) {... */\n        tag_6:\n          tag_25\n          0x04\n          dup1\n          calldatasize\n          sub\n          dup2\n          add\n          swap1\n          tag_26\n          swap2\n          swap1\n          tag_27\n          jump\t// in\n        tag_26:\n          tag_28\n          jump\t// in\n        tag_25:\n          mload(0x40)\n          tag_29\n          swap2\n          swap1\n          tag_20\n          jump\t// in\n        tag_29:\n          mload(0x40)\n          dup1\n          swap2\n          sub\n          swap1\n          return\n            /* \"contracts/19_MappingExample.sol\":885:1212  function appoval(address spender, uint amount) public returns (bool) {... */\n        tag_7:\n          tag_30\n          0x04\n          dup1\n          calldatasize\n          sub\n          dup2\n          add\n          swap1\n          tag_31\n          swap2\n          swap1\n          tag_32\n          jump\t// in\n        tag_31:\n          tag_33\n          jump\t// in\n        tag_30:\n          mload(0x40)\n          tag_34\n          swap2\n          swap1\n          tag_14\n          jump\t// in\n        tag_34:\n          mload(0x40)\n          dup1\n          swap2\n          sub\n          swap1\n          return\n            /* \"contracts/19_MappingExample.sol\":495:577  function update(uint amount) public {... */\n        tag_8:\n          tag_35\n          0x04\n          dup1\n          calldatasize\n          sub\n          dup2\n          add\n          swap1\n          tag_36\n          swap2\n          swap1\n          tag_37\n          jump\t// in\n        tag_36:\n          tag_38\n          jump\t// in\n        tag_35:\n          stop\n            /* \"contracts/19_MappingExample.sol\":583:879  function transferFrom(address sender, address recipient, uint amount) public returns (bool) {... */\n        tag_12:\n            /* \"contracts/19_MappingExample.sol\":669:673  bool */\n          0x00\n            /* \"contracts/19_MappingExample.sol\":726:732  amount */\n          dup2\n            /* \"contracts/19_MappingExample.sol\":693:704  _allowances */\n          0x01\n            /* \"contracts/19_MappingExample.sol\":693:712  _allowances[sender] */\n          0x00\n            /* \"contracts/19_MappingExample.sol\":705:711  sender */\n          dup7\n            /* \"contracts/19_MappingExample.sol\":693:712  _allowances[sender] */\n          0xffffffffffffffffffffffffffffffffffffffff\n          and\n          0xffffffffffffffffffffffffffffffffffffffff\n          and\n          dup2\n          mstore\n          0x20\n          add\n          swap1\n          dup2\n          mstore\n          0x20\n          add\n          0x00\n          keccak256\n            /* \"contracts/19_MappingExample.sol\":693:723  _allowances[sender][recipient] */\n          0x00\n            /* \"contracts/19_MappingExample.sol\":713:722  recipient */\n          dup6\n            /* \"contracts/19_MappingExample.sol\":693:723  _allowances[sender][recipient] */\n          0xffffffffffffffffffffffffffffffffffffffff\n          and\n          0xffffffffffffffffffffffffffffffffffffffff\n          and\n          dup2\n          mstore\n          0x20\n          add\n          swap1\n          dup2\n          mstore\n          0x20\n          add\n          0x00\n          keccak256\n          sload\n            /* \"contracts/19_MappingExample.sol\":693:732  _allowances[sender][recipient] > amount */\n          gt\n            /* \"contracts/19_MappingExample.sol\":685:754  require(_allowances[sender][recipient] > amount, \"not enough amount\") */\n          tag_40\n          jumpi\n          mload(0x40)\n          0x08c379a000000000000000000000000000000000000000000000000000000000\n          dup2\n          mstore\n          0x04\n          add\n          tag_41\n          swap1\n          tag_42\n          jump\t// in\n        tag_41:\n          mload(0x40)\n          dup1\n          swap2\n          sub\n          swap1\n          revert\n        tag_40:\n            /* \"contracts/19_MappingExample.sol\":798:804  amount */\n          dup2\n            /* \"contracts/19_MappingExample.sol\":764:775  _allowances */\n          0x01\n            /* \"contracts/19_MappingExample.sol\":764:783  _allowances[sender] */\n          0x00\n            /* \"contracts/19_MappingExample.sol\":776:782  sender */\n          dup7\n            /* \"contracts/19_MappingExample.sol\":764:783  _allowances[sender] */\n          0xffffffffffffffffffffffffffffffffffffffff\n          and\n          0xffffffffffffffffffffffffffffffffffffffff\n          and\n          dup2\n          mstore\n          0x20\n          add\n          swap1\n          dup2\n          mstore\n          0x20\n          add\n          0x00\n          keccak256\n            /* \"contracts/19_MappingExample.sol\":764:794  _allowances[sender][recipient] */\n          0x00\n            /* \"contracts/19_MappingExample.sol\":784:793  recipient */\n          dup6\n            /* \"contracts/19_MappingExample.sol\":764:794  _allowances[sender][recipient] */\n          0xffffffffffffffffffffffffffffffffffffffff\n          and\n          0xffffffffffffffffffffffffffffffffffffffff\n          and\n          dup2\n          mstore\n          0x20\n          add\n          swap1\n          dup2\n          mstore\n          0x20\n          add\n          0x00\n          keccak256\n          0x00\n            /* \"contracts/19_MappingExample.sol\":764:804  _allowances[sender][recipient] -= amount */\n          dup3\n          dup3\n          sload\n          tag_43\n          swap2\n          swap1\n          tag_44\n          jump\t// in\n        tag_43:\n          swap3\n          pop\n          pop\n          dup2\n          swap1\n          sstore\n          pop\n            /* \"contracts/19_MappingExample.sol\":814:850  _transfer(sender, recipient, amount) */\n          tag_45\n            /* \"contracts/19_MappingExample.sol\":824:830  sender */\n          dup5\n            /* \"contracts/19_MappingExample.sol\":832:841  recipient */\n          dup5\n            /* \"contracts/19_MappingExample.sol\":843:849  amount */\n          dup5\n            /* \"contracts/19_MappingExample.sol\":814:823  _transfer */\n          tag_23\n            /* \"contracts/19_MappingExample.sol\":814:850  _transfer(sender, recipient, amount) */\n          jump\t// in\n        tag_45:\n          pop\n            /* \"contracts/19_MappingExample.sol\":867:872  false */\n          0x00\n            /* \"contracts/19_MappingExample.sol\":860:872  return false */\n          swap1\n          pop\n            /* \"contracts/19_MappingExample.sol\":583:879  function transferFrom(address sender, address recipient, uint amount) public returns (bool) {... */\n          swap4\n          swap3\n          pop\n          pop\n          pop\n          jump\t// out\n            /* \"contracts/19_MappingExample.sol\":97:139  mapping (address => uint) public  balances */\n        tag_18:\n          mstore(0x20, 0x00)\n          dup1\n          0x00\n          mstore\n          keccak256(0x00, 0x40)\n          0x00\n          swap2\n          pop\n          swap1\n          pop\n          sload\n          dup2\n          jump\t// out\n            /* \"contracts/19_MappingExample.sol\":1218:1626  function _transfer(address sender, address spender, uint amount) public returns (bool) {... */\n        tag_23:\n            /* \"contracts/19_MappingExample.sol\":1299:1303  bool */\n          0x00\n            /* \"contracts/19_MappingExample.sol\":1341:1342  0 */\n          dup1\n            /* \"contracts/19_MappingExample.sol\":1323:1343  sender != address(0) */\n          0xffffffffffffffffffffffffffffffffffffffff\n          and\n            /* \"contracts/19_MappingExample.sol\":1323:1329  sender */\n          dup5\n            /* \"contracts/19_MappingExample.sol\":1323:1343  sender != address(0) */\n          0xffffffffffffffffffffffffffffffffffffffff\n          and\n          sub\n            /* \"contracts/19_MappingExample.sol\":1315:1361  require(sender != address(0), \"address error\") */\n          tag_47\n          jumpi\n          mload(0x40)\n          0x08c379a000000000000000000000000000000000000000000000000000000000\n          dup2\n          mstore\n          0x04\n          add\n          tag_48\n          swap1\n          tag_49\n          jump\t// in\n        tag_48:\n          mload(0x40)\n          dup1\n          swap2\n          sub\n          swap1\n          revert\n        tag_47:\n            /* \"contracts/19_MappingExample.sol\":1398:1399  0 */\n          0x00\n            /* \"contracts/19_MappingExample.sol\":1379:1400  spender != address(0) */\n          0xffffffffffffffffffffffffffffffffffffffff\n          and\n            /* \"contracts/19_MappingExample.sol\":1379:1386  spender */\n          dup4\n            /* \"contracts/19_MappingExample.sol\":1379:1400  spender != address(0) */\n          0xffffffffffffffffffffffffffffffffffffffff\n          and\n          sub\n            /* \"contracts/19_MappingExample.sol\":1371:1418  require(spender != address(0), \"address error\") */\n          tag_50\n          jumpi\n          mload(0x40)\n          0x08c379a000000000000000000000000000000000000000000000000000000000\n          dup2\n          mstore\n          0x04\n          add\n          tag_51\n          swap1\n          tag_49\n          jump\t// in\n        tag_51:\n          mload(0x40)\n          dup1\n          swap2\n          sub\n          swap1\n          revert\n        tag_50:\n            /* \"contracts/19_MappingExample.sol\":1455:1461  amount */\n          dup2\n            /* \"contracts/19_MappingExample.sol\":1436:1444  balances */\n          0x00\n            /* \"contracts/19_MappingExample.sol\":1436:1452  balances[sender] */\n          dup1\n            /* \"contracts/19_MappingExample.sol\":1445:1451  sender */\n          dup7\n            /* \"contracts/19_MappingExample.sol\":1436:1452  balances[sender] */\n          0xffffffffffffffffffffffffffffffffffffffff\n          and\n          0xffffffffffffffffffffffffffffffffffffffff\n          and\n          dup2\n          mstore\n          0x20\n          add\n          swap1\n          dup2\n          mstore\n          0x20\n          add\n          0x00\n          keccak256\n          sload\n            /* \"contracts/19_MappingExample.sol\":1436:1461  balances[sender] > amount */\n          gt\n            /* \"contracts/19_MappingExample.sol\":1428:1476  require(balances[sender] > amount, \"not enough\") */\n          tag_52\n          jumpi\n          mload(0x40)\n          0x08c379a000000000000000000000000000000000000000000000000000000000\n          dup2\n          mstore\n          0x04\n          add\n          tag_53\n          swap1\n          tag_54\n          jump\t// in\n        tag_53:\n          mload(0x40)\n          dup1\n          swap2\n          sub\n          swap1\n          revert\n        tag_52:\n            /* \"contracts/19_MappingExample.sol\":1506:1512  amount */\n          dup2\n            /* \"contracts/19_MappingExample.sol\":1486:1494  balances */\n          0x00\n            /* \"contracts/19_MappingExample.sol\":1486:1502  balances[sender] */\n          dup1\n            /* \"contracts/19_MappingExample.sol\":1495:1501  sender */\n          dup7\n            /* \"contracts/19_MappingExample.sol\":1486:1502  balances[sender] */\n          0xffffffffffffffffffffffffffffffffffffffff\n          and\n          0xffffffffffffffffffffffffffffffffffffffff\n          and\n          dup2\n          mstore\n          0x20\n          add\n          swap1\n          dup2\n          mstore\n          0x20\n          add\n          0x00\n          keccak256\n          0x00\n            /* \"contracts/19_MappingExample.sol\":1486:1512  balances[sender] -= amount */\n          dup3\n          dup3\n          sload\n          tag_55\n          swap2\n          swap1\n          tag_44\n          jump\t// in\n        tag_55:\n          swap3\n          pop\n          pop\n          dup2\n          swap1\n          sstore\n          pop\n            /* \"contracts/19_MappingExample.sol\":1543:1549  amount */\n          dup2\n            /* \"contracts/19_MappingExample.sol\":1522:1530  balances */\n          0x00\n            /* \"contracts/19_MappingExample.sol\":1522:1539  balances[spender] */\n          dup1\n            /* \"contracts/19_MappingExample.sol\":1531:1538  spender */\n          dup6\n            /* \"contracts/19_MappingExample.sol\":1522:1539  balances[spender] */\n          0xffffffffffffffffffffffffffffffffffffffff\n          and\n          0xffffffffffffffffffffffffffffffffffffffff\n          and\n          dup2\n          mstore\n          0x20\n          add\n          swap1\n          dup2\n          mstore\n          0x20\n          add\n          0x00\n          keccak256\n          0x00\n            /* \"contracts/19_MappingExample.sol\":1522:1549  balances[spender] += amount */\n          dup3\n          dup3\n          sload\n          tag_56\n          swap2\n          swap1\n          tag_57\n          jump\t// in\n        tag_56:\n          swap3\n          pop\n          pop\n          dup2\n          swap1\n          sstore\n          pop\n            /* \"contracts/19_MappingExample.sol\":1564:1597  Transfer(sender, spender, amount) */\n          0xddf252ad1be2c89b69c2b068fc378daa952ba7f163c4a11628f55a4df523b3ef\n            /* \"contracts/19_MappingExample.sol\":1573:1579  sender */\n          dup5\n            /* \"contracts/19_MappingExample.sol\":1581:1588  spender */\n          dup5\n            /* \"contracts/19_MappingExample.sol\":1590:1596  amount */\n          dup5\n            /* \"contracts/19_MappingExample.sol\":1564:1597  Transfer(sender, spender, amount) */\n          mload(0x40)\n          tag_58\n          swap4\n          swap3\n          swap2\n          swap1\n          tag_59\n          jump\t// in\n        tag_58:\n          mload(0x40)\n          dup1\n          swap2\n          sub\n          swap1\n          log1\n            /* \"contracts/19_MappingExample.sol\":1614:1619  false */\n          0x00\n            /* \"contracts/19_MappingExample.sol\":1607:1619  return false */\n          swap1\n          pop\n            /* \"contracts/19_MappingExample.sol\":1218:1626  function _transfer(address sender, address spender, uint amount) public returns (bool) {... */\n          swap4\n          swap3\n          pop\n          pop\n          pop\n          jump\t// out\n            /* \"contracts/19_MappingExample.sol\":355:489  function allownance(address owner, address recipient) public view returns (uint) {... */\n        tag_28:\n            /* \"contracts/19_MappingExample.sol\":430:434  uint */\n          0x00\n            /* \"contracts/19_MappingExample.sol\":453:464  _allowances */\n          0x01\n            /* \"contracts/19_MappingExample.sol\":453:471  _allowances[owner] */\n          0x00\n            /* \"contracts/19_MappingExample.sol\":465:470  owner */\n          dup5\n            /* \"contracts/19_MappingExample.sol\":453:471  _allowances[owner] */\n          0xffffffffffffffffffffffffffffffffffffffff\n          and\n          0xffffffffffffffffffffffffffffffffffffffff\n          and\n          dup2\n          mstore\n          0x20\n          add\n          swap1\n          dup2\n          mstore\n          0x20\n          add\n          0x00\n          keccak256\n            /* \"contracts/19_MappingExample.sol\":453:482  _allowances[owner][recipient] */\n          0x00\n            /* \"contracts/19_MappingExample.sol\":472:481  recipient */\n          dup4\n            /* \"contracts/19_MappingExample.sol\":453:482  _allowances[owner][recipient] */\n          0xffffffffffffffffffffffffffffffffffffffff\n          and\n          0xffffffffffffffffffffffffffffffffffffffff\n          and\n          dup2\n          mstore\n          0x20\n          add\n          swap1\n          dup2\n          mstore\n          0x20\n          add\n          0x00\n          keccak256\n          sload\n            /* \"contracts/19_MappingExample.sol\":446:482  return _allowances[owner][recipient] */\n          swap1\n          pop\n            /* \"contracts/19_MappingExample.sol\":355:489  function allownance(address owner, address recipient) public view returns (uint) {... */\n          swap3\n          swap2\n          pop\n          pop\n          jump\t// out\n            /* \"contracts/19_MappingExample.sol\":885:1212  function appoval(address spender, uint amount) public returns (bool) {... */\n        tag_33:\n            /* \"contracts/19_MappingExample.sol\":948:952  bool */\n          0x00\n            /* \"contracts/19_MappingExample.sol\":995:1001  amount */\n          dup2\n            /* \"contracts/19_MappingExample.sol\":972:980  balances */\n          0x00\n            /* \"contracts/19_MappingExample.sol\":972:992  balances[msg.sender] */\n          dup1\n            /* \"contracts/19_MappingExample.sol\":981:991  msg.sender */\n          caller\n            /* \"contracts/19_MappingExample.sol\":972:992  balances[msg.sender] */\n          0xffffffffffffffffffffffffffffffffffffffff\n          and\n          0xffffffffffffffffffffffffffffffffffffffff\n          and\n          dup2\n          mstore\n          0x20\n          add\n          swap1\n          dup2\n          mstore\n          0x20\n          add\n          0x00\n          keccak256\n          sload\n            /* \"contracts/19_MappingExample.sol\":972:1001  balances[msg.sender] > amount */\n          gt\n            /* \"contracts/19_MappingExample.sol\":964:1024  require(balances[msg.sender] > amount, \"not enough balance\") */\n          tag_62\n          jumpi\n          mload(0x40)\n          0x08c379a000000000000000000000000000000000000000000000000000000000\n          dup2\n          mstore\n          0x04\n          add\n          tag_63\n          swap1\n          tag_64\n          jump\t// in\n        tag_63:\n          mload(0x40)\n          dup1\n          swap2\n          sub\n          swap1\n          revert\n        tag_62:\n            /* \"contracts/19_MappingExample.sol\":1061:1062  0 */\n          0x00\n            /* \"contracts/19_MappingExample.sol\":1042:1063  spender != address(0) */\n          0xffffffffffffffffffffffffffffffffffffffff\n          and\n            /* \"contracts/19_MappingExample.sol\":1042:1049  spender */\n          dup4\n            /* \"contracts/19_MappingExample.sol\":1042:1063  spender != address(0) */\n          0xffffffffffffffffffffffffffffffffffffffff\n          and\n          sub\n            /* \"contracts/19_MappingExample.sol\":1034:1081  require(spender != address(0), \"address error\") */\n          tag_65\n          jumpi\n          mload(0x40)\n          0x08c379a000000000000000000000000000000000000000000000000000000000\n          dup2\n          mstore\n          0x04\n          add\n          tag_66\n          swap1\n          tag_49\n          jump\t// in\n        tag_66:\n          mload(0x40)\n          dup1\n          swap2\n          sub\n          swap1\n          revert\n        tag_65:\n            /* \"contracts/19_MappingExample.sol\":1126:1132  amount */\n          dup2\n            /* \"contracts/19_MappingExample.sol\":1091:1102  _allowances */\n          0x01\n            /* \"contracts/19_MappingExample.sol\":1091:1114  _allowances[msg.sender] */\n          0x00\n            /* \"contracts/19_MappingExample.sol\":1103:1113  msg.sender */\n          caller\n            /* \"contracts/19_MappingExample.sol\":1091:1114  _allowances[msg.sender] */\n          0xffffffffffffffffffffffffffffffffffffffff\n          and\n          0xffffffffffffffffffffffffffffffffffffffff\n          and\n          dup2\n          mstore\n          0x20\n          add\n          swap1\n          dup2\n          mstore\n          0x20\n          add\n          0x00\n          keccak256\n            /* \"contracts/19_MappingExample.sol\":1091:1123  _allowances[msg.sender][spender] */\n          0x00\n            /* \"contracts/19_MappingExample.sol\":1115:1122  spender */\n          dup6\n            /* \"contracts/19_MappingExample.sol\":1091:1123  _allowances[msg.sender][spender] */\n          0xffffffffffffffffffffffffffffffffffffffff\n          and\n          0xffffffffffffffffffffffffffffffffffffffff\n          and\n          dup2\n          mstore\n          0x20\n          add\n          swap1\n          dup2\n          mstore\n          0x20\n          add\n          0x00\n          keccak256\n            /* \"contracts/19_MappingExample.sol\":1091:1132  _allowances[msg.sender][spender] = amount */\n          dup2\n          swap1\n          sstore\n          pop\n            /* \"contracts/19_MappingExample.sol\":1147:1184  Approval(msg.sender, spender, amount) */\n          0x8c5be1e5ebec7d5bd14f71427d1e84f3dd0314c0f7b2291e5b200ac8c7c3b925\n            /* \"contracts/19_MappingExample.sol\":1156:1166  msg.sender */\n          caller\n            /* \"contracts/19_MappingExample.sol\":1168:1175  spender */\n          dup5\n            /* \"contracts/19_MappingExample.sol\":1177:1183  amount */\n          dup5\n            /* \"contracts/19_MappingExample.sol\":1147:1184  Approval(msg.sender, spender, amount) */\n          mload(0x40)\n          tag_67\n          swap4\n          swap3\n          swap2\n          swap1\n          tag_59\n          jump\t// in\n        tag_67:\n          mload(0x40)\n          dup1\n          swap2\n          sub\n          swap1\n          log1\n            /* \"contracts/19_MappingExample.sol\":1201:1205  true */\n          0x01\n            /* \"contracts/19_MappingExample.sol\":1194:1205  return true */\n          swap1\n          pop\n            /* \"contracts/19_MappingExample.sol\":885:1212  function appoval(address spender, uint amount) public returns (bool) {... */\n          swap3\n          swap2\n          pop\n          pop\n          jump\t// out\n            /* \"contracts/19_MappingExample.sol\":495:577  function update(uint amount) public {... */\n        tag_38:\n            /* \"contracts/19_MappingExample.sol\":564:570  amount */\n          dup1\n            /* \"contracts/19_MappingExample.sol\":541:549  balances */\n          0x00\n            /* \"contracts/19_MappingExample.sol\":541:561  balances[msg.sender] */\n          dup1\n            /* \"contracts/19_MappingExample.sol\":550:560  msg.sender */\n          caller\n            /* \"contracts/19_MappingExample.sol\":541:561  balances[msg.sender] */\n          0xffffffffffffffffffffffffffffffffffffffff\n          and\n          0xffffffffffffffffffffffffffffffffffffffff\n          and\n          dup2\n          mstore\n          0x20\n          add\n          swap1\n          dup2\n          mstore\n          0x20\n          add\n          0x00\n          keccak256\n            /* \"contracts/19_MappingExample.sol\":541:570  balances[msg.sender] = amount */\n          dup2\n          swap1\n          sstore\n          pop\n            /* \"contracts/19_MappingExample.sol\":495:577  function update(uint amount) public {... */\n          pop\n          jump\t// out\n            /* \"#utility.yul\":88:205   */\n        tag_70:\n            /* \"#utility.yul\":197:198   */\n          0x00\n            /* \"#utility.yul\":194:195   */\n          dup1\n            /* \"#utility.yul\":187:199   */\n          revert\n            /* \"#utility.yul\":334:460   */\n        tag_72:\n            /* \"#utility.yul\":371:378   */\n          0x00\n            /* \"#utility.yul\":411:453   */\n          0xffffffffffffffffffffffffffffffffffffffff\n            /* \"#utility.yul\":404:409   */\n          dup3\n            /* \"#utility.yul\":400:454   */\n          and\n            /* \"#utility.yul\":389:454   */\n          swap1\n          pop\n            /* \"#utility.yul\":334:460   */\n          swap2\n          swap1\n          pop\n          jump\t// out\n            /* \"#utility.yul\":466:562   */\n        tag_73:\n            /* \"#utility.yul\":503:510   */\n          0x00\n            /* \"#utility.yul\":532:556   */\n          tag_99\n            /* \"#utility.yul\":550:555   */\n          dup3\n            /* \"#utility.yul\":532:556   */\n          tag_72\n          jump\t// in\n        tag_99:\n            /* \"#utility.yul\":521:556   */\n          swap1\n          pop\n            /* \"#utility.yul\":466:562   */\n          swap2\n          swap1\n          pop\n          jump\t// out\n            /* \"#utility.yul\":568:690   */\n        tag_74:\n            /* \"#utility.yul\":641:665   */\n          tag_101\n            /* \"#utility.yul\":659:664   */\n          dup2\n            /* \"#utility.yul\":641:665   */\n          tag_73\n          jump\t// in\n        tag_101:\n            /* \"#utility.yul\":634:639   */\n          dup2\n            /* \"#utility.yul\":631:666   */\n          eq\n            /* \"#utility.yul\":621:684   */\n          tag_102\n          jumpi\n            /* \"#utility.yul\":680:681   */\n          0x00\n            /* \"#utility.yul\":677:678   */\n          dup1\n            /* \"#utility.yul\":670:682   */\n          revert\n            /* \"#utility.yul\":621:684   */\n        tag_102:\n            /* \"#utility.yul\":568:690   */\n          pop\n          jump\t// out\n            /* \"#utility.yul\":696:835   */\n        tag_75:\n            /* \"#utility.yul\":742:747   */\n          0x00\n            /* \"#utility.yul\":780:786   */\n          dup2\n            /* \"#utility.yul\":767:787   */\n          calldataload\n            /* \"#utility.yul\":758:787   */\n          swap1\n          pop\n            /* \"#utility.yul\":796:829   */\n          tag_104\n            /* \"#utility.yul\":823:828   */\n          dup2\n            /* \"#utility.yul\":796:829   */\n          tag_74\n          jump\t// in\n        tag_104:\n            /* \"#utility.yul\":696:835   */\n          swap3\n          swap2\n          pop\n          pop\n          jump\t// out\n            /* \"#utility.yul\":841:918   */\n        tag_76:\n            /* \"#utility.yul\":878:885   */\n          0x00\n            /* \"#utility.yul\":907:912   */\n          dup2\n            /* \"#utility.yul\":896:912   */\n          swap1\n          pop\n            /* \"#utility.yul\":841:918   */\n          swap2\n          swap1\n          pop\n          jump\t// out\n            /* \"#utility.yul\":924:1046   */\n        tag_77:\n            /* \"#utility.yul\":997:1021   */\n          tag_107\n            /* \"#utility.yul\":1015:1020   */\n          dup2\n            /* \"#utility.yul\":997:1021   */\n          tag_76\n          jump\t// in\n        tag_107:\n            /* \"#utility.yul\":990:995   */\n          dup2\n            /* \"#utility.yul\":987:1022   */\n          eq\n            /* \"#utility.yul\":977:1040   */\n          tag_108\n          jumpi\n            /* \"#utility.yul\":1036:1037   */\n          0x00\n            /* \"#utility.yul\":1033:1034   */\n          dup1\n            /* \"#utility.yul\":1026:1038   */\n          revert\n            /* \"#utility.yul\":977:1040   */\n        tag_108:\n            /* \"#utility.yul\":924:1046   */\n          pop\n          jump\t// out\n            /* \"#utility.yul\":1052:1191   */\n        tag_78:\n            /* \"#utility.yul\":1098:1103   */\n          0x00\n            /* \"#utility.yul\":1136:1142   */\n          dup2\n            /* \"#utility.yul\":1123:1143   */\n          calldataload\n            /* \"#utility.yul\":1114:1143   */\n          swap1\n          pop\n            /* \"#utility.yul\":1152:1185   */\n          tag_110\n            /* \"#utility.yul\":1179:1184   */\n          dup2\n            /* \"#utility.yul\":1152:1185   */\n          tag_77\n          jump\t// in\n        tag_110:\n            /* \"#utility.yul\":1052:1191   */\n          swap3\n          swap2\n          pop\n          pop\n          jump\t// out\n            /* \"#utility.yul\":1197:1816   */\n        tag_11:\n            /* \"#utility.yul\":1274:1280   */\n          0x00\n            /* \"#utility.yul\":1282:1288   */\n          dup1\n            /* \"#utility.yul\":1290:1296   */\n          0x00\n            /* \"#utility.yul\":1339:1341   */\n          0x60\n            /* \"#utility.yul\":1327:1336   */\n          dup5\n            /* \"#utility.yul\":1318:1325   */\n          dup7\n            /* \"#utility.yul\":1314:1337   */\n          sub\n            /* \"#utility.yul\":1310:1342   */\n          slt\n            /* \"#utility.yul\":1307:1426   */\n          iszero\n          tag_112\n          jumpi\n            /* \"#utility.yul\":1345:1424   */\n          tag_113\n          tag_70\n          jump\t// in\n        tag_113:\n            /* \"#utility.yul\":1307:1426   */\n        tag_112:\n            /* \"#utility.yul\":1465:1466   */\n          0x00\n            /* \"#utility.yul\":1490:1543   */\n          tag_114\n            /* \"#utility.yul\":1535:1542   */\n          dup7\n            /* \"#utility.yul\":1526:1532   */\n          dup3\n            /* \"#utility.yul\":1515:1524   */\n          dup8\n            /* \"#utility.yul\":1511:1533   */\n          add\n            /* \"#utility.yul\":1490:1543   */\n          tag_75\n          jump\t// in\n        tag_114:\n            /* \"#utility.yul\":1480:1543   */\n          swap4\n          pop\n            /* \"#utility.yul\":1436:1553   */\n          pop\n            /* \"#utility.yul\":1592:1594   */\n          0x20\n            /* \"#utility.yul\":1618:1671   */\n          tag_115\n            /* \"#utility.yul\":1663:1670   */\n          dup7\n            /* \"#utility.yul\":1654:1660   */\n          dup3\n            /* \"#utility.yul\":1643:1652   */\n          dup8\n            /* \"#utility.yul\":1639:1661   */\n          add\n            /* \"#utility.yul\":1618:1671   */\n          tag_75\n          jump\t// in\n        tag_115:\n            /* \"#utility.yul\":1608:1671   */\n          swap3\n          pop\n            /* \"#utility.yul\":1563:1681   */\n          pop\n            /* \"#utility.yul\":1720:1722   */\n          0x40\n            /* \"#utility.yul\":1746:1799   */\n          tag_116\n            /* \"#utility.yul\":1791:1798   */\n          dup7\n            /* \"#utility.yul\":1782:1788   */\n          dup3\n            /* \"#utility.yul\":1771:1780   */\n          dup8\n            /* \"#utility.yul\":1767:1789   */\n          add\n            /* \"#utility.yul\":1746:1799   */\n          tag_78\n          jump\t// in\n        tag_116:\n            /* \"#utility.yul\":1736:1799   */\n          swap2\n          pop\n            /* \"#utility.yul\":1691:1809   */\n          pop\n            /* \"#utility.yul\":1197:1816   */\n          swap3\n          pop\n          swap3\n          pop\n          swap3\n          jump\t// out\n            /* \"#utility.yul\":1822:1912   */\n        tag_79:\n            /* \"#utility.yul\":1856:1863   */\n          0x00\n            /* \"#utility.yul\":1899:1904   */\n          dup2\n            /* \"#utility.yul\":1892:1905   */\n          iszero\n            /* \"#utility.yul\":1885:1906   */\n          iszero\n            /* \"#utility.yul\":1874:1906   */\n          swap1\n          pop\n            /* \"#utility.yul\":1822:1912   */\n          swap2\n          swap1\n          pop\n          jump\t// out\n            /* \"#utility.yul\":1918:2027   */\n        tag_80:\n            /* \"#utility.yul\":1999:2020   */\n          tag_119\n            /* \"#utility.yul\":2014:2019   */\n          dup2\n            /* \"#utility.yul\":1999:2020   */\n          tag_79\n          jump\t// in\n        tag_119:\n            /* \"#utility.yul\":1994:1997   */\n          dup3\n            /* \"#utility.yul\":1987:2021   */\n          mstore\n            /* \"#utility.yul\":1918:2027   */\n          pop\n          pop\n          jump\t// out\n            /* \"#utility.yul\":2033:2243   */\n        tag_14:\n            /* \"#utility.yul\":2120:2124   */\n          0x00\n            /* \"#utility.yul\":2158:2160   */\n          0x20\n            /* \"#utility.yul\":2147:2156   */\n          dup3\n            /* \"#utility.yul\":2143:2161   */\n          add\n            /* \"#utility.yul\":2135:2161   */\n          swap1\n          pop\n            /* \"#utility.yul\":2171:2236   */\n          tag_121\n            /* \"#utility.yul\":2233:2234   */\n          0x00\n            /* \"#utility.yul\":2222:2231   */\n          dup4\n            /* \"#utility.yul\":2218:2235   */\n          add\n            /* \"#utility.yul\":2209:2215   */\n          dup5\n            /* \"#utility.yul\":2171:2236   */\n          tag_80\n          jump\t// in\n        tag_121:\n            /* \"#utility.yul\":2033:2243   */\n          swap3\n          swap2\n          pop\n          pop\n          jump\t// out\n            /* \"#utility.yul\":2249:2578   */\n        tag_17:\n            /* \"#utility.yul\":2308:2314   */\n          0x00\n            /* \"#utility.yul\":2357:2359   */\n          0x20\n            /* \"#utility.yul\":2345:2354   */\n          dup3\n            /* \"#utility.yul\":2336:2343   */\n          dup5\n            /* \"#utility.yul\":2332:2355   */\n          sub\n            /* \"#utility.yul\":2328:2360   */\n          slt\n            /* \"#utility.yul\":2325:2444   */\n          iszero\n          tag_123\n          jumpi\n            /* \"#utility.yul\":2363:2442   */\n          tag_124\n          tag_70\n          jump\t// in\n        tag_124:\n            /* \"#utility.yul\":2325:2444   */\n        tag_123:\n            /* \"#utility.yul\":2483:2484   */\n          0x00\n            /* \"#utility.yul\":2508:2561   */\n          tag_125\n            /* \"#utility.yul\":2553:2560   */\n          dup5\n            /* \"#utility.yul\":2544:2550   */\n          dup3\n            /* \"#utility.yul\":2533:2542   */\n          dup6\n            /* \"#utility.yul\":2529:2551   */\n          add\n            /* \"#utility.yul\":2508:2561   */\n          tag_75\n          jump\t// in\n        tag_125:\n            /* \"#utility.yul\":2498:2561   */\n          swap2\n          pop\n            /* \"#utility.yul\":2454:2571   */\n          pop\n            /* \"#utility.yul\":2249:2578   */\n          swap3\n          swap2\n          pop\n          pop\n          jump\t// out\n            /* \"#utility.yul\":2584:2702   */\n        tag_81:\n            /* \"#utility.yul\":2671:2695   */\n          tag_127\n            /* \"#utility.yul\":2689:2694   */\n          dup2\n            /* \"#utility.yul\":2671:2695   */\n          tag_76\n          jump\t// in\n        tag_127:\n            /* \"#utility.yul\":2666:2669   */\n          dup3\n            /* \"#utility.yul\":2659:2696   */\n          mstore\n            /* \"#utility.yul\":2584:2702   */\n          pop\n          pop\n          jump\t// out\n            /* \"#utility.yul\":2708:2930   */\n        tag_20:\n            /* \"#utility.yul\":2801:2805   */\n          0x00\n            /* \"#utility.yul\":2839:2841   */\n          0x20\n            /* \"#utility.yul\":2828:2837   */\n          dup3\n            /* \"#utility.yul\":2824:2842   */\n          add\n            /* \"#utility.yul\":2816:2842   */\n          swap1\n          pop\n            /* \"#utility.yul\":2852:2923   */\n          tag_129\n            /* \"#utility.yul\":2920:2921   */\n          0x00\n            /* \"#utility.yul\":2909:2918   */\n          dup4\n            /* \"#utility.yul\":2905:2922   */\n          add\n            /* \"#utility.yul\":2896:2902   */\n          dup5\n            /* \"#utility.yul\":2852:2923   */\n          tag_81\n          jump\t// in\n        tag_129:\n            /* \"#utility.yul\":2708:2930   */\n          swap3\n          swap2\n          pop\n          pop\n          jump\t// out\n            /* \"#utility.yul\":2936:3410   */\n        tag_27:\n            /* \"#utility.yul\":3004:3010   */\n          0x00\n            /* \"#utility.yul\":3012:3018   */\n          dup1\n            /* \"#utility.yul\":3061:3063   */\n          0x40\n            /* \"#utility.yul\":3049:3058   */\n          dup4\n            /* \"#utility.yul\":3040:3047   */\n          dup6\n            /* \"#utility.yul\":3036:3059   */\n          sub\n            /* \"#utility.yul\":3032:3064   */\n          slt\n            /* \"#utility.yul\":3029:3148   */\n          iszero\n          tag_131\n          jumpi\n            /* \"#utility.yul\":3067:3146   */\n          tag_132\n          tag_70\n          jump\t// in\n        tag_132:\n            /* \"#utility.yul\":3029:3148   */\n        tag_131:\n            /* \"#utility.yul\":3187:3188   */\n          0x00\n            /* \"#utility.yul\":3212:3265   */\n          tag_133\n            /* \"#utility.yul\":3257:3264   */\n          dup6\n            /* \"#utility.yul\":3248:3254   */\n          dup3\n            /* \"#utility.yul\":3237:3246   */\n          dup7\n            /* \"#utility.yul\":3233:3255   */\n          add\n            /* \"#utility.yul\":3212:3265   */\n          tag_75\n          jump\t// in\n        tag_133:\n            /* \"#utility.yul\":3202:3265   */\n          swap3\n          pop\n            /* \"#utility.yul\":3158:3275   */\n          pop\n            /* \"#utility.yul\":3314:3316   */\n          0x20\n            /* \"#utility.yul\":3340:3393   */\n          tag_134\n            /* \"#utility.yul\":3385:3392   */\n          dup6\n            /* \"#utility.yul\":3376:3382   */\n          dup3\n            /* \"#utility.yul\":3365:3374   */\n          dup7\n            /* \"#utility.yul\":3361:3383   */\n          add\n            /* \"#utility.yul\":3340:3393   */\n          tag_75\n          jump\t// in\n        tag_134:\n            /* \"#utility.yul\":3330:3393   */\n          swap2\n          pop\n            /* \"#utility.yul\":3285:3403   */\n          pop\n            /* \"#utility.yul\":2936:3410   */\n          swap3\n          pop\n          swap3\n          swap1\n          pop\n          jump\t// out\n            /* \"#utility.yul\":3416:3890   */\n        tag_32:\n            /* \"#utility.yul\":3484:3490   */\n          0x00\n            /* \"#utility.yul\":3492:3498   */\n          dup1\n            /* \"#utility.yul\":3541:3543   */\n          0x40\n            /* \"#utility.yul\":3529:3538   */\n          dup4\n            /* \"#utility.yul\":3520:3527   */\n          dup6\n            /* \"#utility.yul\":3516:3539   */\n          sub\n            /* \"#utility.yul\":3512:3544   */\n          slt\n            /* \"#utility.yul\":3509:3628   */\n          iszero\n          tag_136\n          jumpi\n            /* \"#utility.yul\":3547:3626   */\n          tag_137\n          tag_70\n          jump\t// in\n        tag_137:\n            /* \"#utility.yul\":3509:3628   */\n        tag_136:\n            /* \"#utility.yul\":3667:3668   */\n          0x00\n            /* \"#utility.yul\":3692:3745   */\n          tag_138\n            /* \"#utility.yul\":3737:3744   */\n          dup6\n            /* \"#utility.yul\":3728:3734   */\n          dup3\n            /* \"#utility.yul\":3717:3726   */\n          dup7\n            /* \"#utility.yul\":3713:3735   */\n          add\n            /* \"#utility.yul\":3692:3745   */\n          tag_75\n          jump\t// in\n        tag_138:\n            /* \"#utility.yul\":3682:3745   */\n          swap3\n          pop\n            /* \"#utility.yul\":3638:3755   */\n          pop\n            /* \"#utility.yul\":3794:3796   */\n          0x20\n            /* \"#utility.yul\":3820:3873   */\n          tag_139\n            /* \"#utility.yul\":3865:3872   */\n          dup6\n            /* \"#utility.yul\":3856:3862   */\n          dup3\n            /* \"#utility.yul\":3845:3854   */\n          dup7\n            /* \"#utility.yul\":3841:3863   */\n          add\n            /* \"#utility.yul\":3820:3873   */\n          tag_78\n          jump\t// in\n        tag_139:\n            /* \"#utility.yul\":3810:3873   */\n          swap2\n          pop\n            /* \"#utility.yul\":3765:3883   */\n          pop\n            /* \"#utility.yul\":3416:3890   */\n          swap3\n          pop\n          swap3\n          swap1\n          pop\n          jump\t// out\n            /* \"#utility.yul\":3896:4225   */\n        tag_37:\n            /* \"#utility.yul\":3955:3961   */\n          0x00\n            /* \"#utility.yul\":4004:4006   */\n          0x20\n            /* \"#utility.yul\":3992:4001   */\n          dup3\n            /* \"#utility.yul\":3983:3990   */\n          dup5\n            /* \"#utility.yul\":3979:4002   */\n          sub\n            /* \"#utility.yul\":3975:4007   */\n          slt\n            /* \"#utility.yul\":3972:4091   */\n          iszero\n          tag_141\n          jumpi\n            /* \"#utility.yul\":4010:4089   */\n          tag_142\n          tag_70\n          jump\t// in\n        tag_142:\n            /* \"#utility.yul\":3972:4091   */\n        tag_141:\n            /* \"#utility.yul\":4130:4131   */\n          0x00\n            /* \"#utility.yul\":4155:4208   */\n          tag_143\n            /* \"#utility.yul\":4200:4207   */\n          dup5\n            /* \"#utility.yul\":4191:4197   */\n          dup3\n            /* \"#utility.yul\":4180:4189   */\n          dup6\n            /* \"#utility.yul\":4176:4198   */\n          add\n            /* \"#utility.yul\":4155:4208   */\n          tag_78\n          jump\t// in\n        tag_143:\n            /* \"#utility.yul\":4145:4208   */\n          swap2\n          pop\n            /* \"#utility.yul\":4101:4218   */\n          pop\n            /* \"#utility.yul\":3896:4225   */\n          swap3\n          swap2\n          pop\n          pop\n          jump\t// out\n            /* \"#utility.yul\":4231:4400   */\n        tag_82:\n            /* \"#utility.yul\":4315:4326   */\n          0x00\n            /* \"#utility.yul\":4349:4355   */\n          dup3\n            /* \"#utility.yul\":4344:4347   */\n          dup3\n            /* \"#utility.yul\":4337:4356   */\n          mstore\n            /* \"#utility.yul\":4389:4393   */\n          0x20\n            /* \"#utility.yul\":4384:4387   */\n          dup3\n            /* \"#utility.yul\":4380:4394   */\n          add\n            /* \"#utility.yul\":4365:4394   */\n          swap1\n          pop\n            /* \"#utility.yul\":4231:4400   */\n          swap3\n          swap2\n          pop\n          pop\n          jump\t// out\n            /* \"#utility.yul\":4406:4573   */\n        tag_83:\n            /* \"#utility.yul\":4546:4565   */\n          0x6e6f7420656e6f75676820616d6f756e74000000000000000000000000000000\n            /* \"#utility.yul\":4542:4543   */\n          0x00\n            /* \"#utility.yul\":4534:4540   */\n          dup3\n            /* \"#utility.yul\":4530:4544   */\n          add\n            /* \"#utility.yul\":4523:4566   */\n          mstore\n            /* \"#utility.yul\":4406:4573   */\n          pop\n          jump\t// out\n            /* \"#utility.yul\":4579:4945   */\n        tag_84:\n            /* \"#utility.yul\":4721:4724   */\n          0x00\n            /* \"#utility.yul\":4742:4809   */\n          tag_147\n            /* \"#utility.yul\":4806:4808   */\n          0x11\n            /* \"#utility.yul\":4801:4804   */\n          dup4\n            /* \"#utility.yul\":4742:4809   */\n          tag_82\n          jump\t// in\n        tag_147:\n            /* \"#utility.yul\":4735:4809   */\n          swap2\n          pop\n            /* \"#utility.yul\":4818:4911   */\n          tag_148\n            /* \"#utility.yul\":4907:4910   */\n          dup3\n            /* \"#utility.yul\":4818:4911   */\n          tag_83\n          jump\t// in\n        tag_148:\n            /* \"#utility.yul\":4936:4938   */\n          0x20\n            /* \"#utility.yul\":4931:4934   */\n          dup3\n            /* \"#utility.yul\":4927:4939   */\n          add\n            /* \"#utility.yul\":4920:4939   */\n          swap1\n          pop\n            /* \"#utility.yul\":4579:4945   */\n          swap2\n          swap1\n          pop\n          jump\t// out\n            /* \"#utility.yul\":4951:5370   */\n        tag_42:\n            /* \"#utility.yul\":5117:5121   */\n          0x00\n            /* \"#utility.yul\":5155:5157   */\n          0x20\n            /* \"#utility.yul\":5144:5153   */\n          dup3\n            /* \"#utility.yul\":5140:5158   */\n          add\n            /* \"#utility.yul\":5132:5158   */\n          swap1\n          pop\n            /* \"#utility.yul\":5204:5213   */\n          dup2\n            /* \"#utility.yul\":5198:5202   */\n          dup2\n            /* \"#utility.yul\":5194:5214   */\n          sub\n            /* \"#utility.yul\":5190:5191   */\n          0x00\n            /* \"#utility.yul\":5179:5188   */\n          dup4\n            /* \"#utility.yul\":5175:5192   */\n          add\n            /* \"#utility.yul\":5168:5215   */\n          mstore\n            /* \"#utility.yul\":5232:5363   */\n          tag_150\n            /* \"#utility.yul\":5358:5362   */\n          dup2\n            /* \"#utility.yul\":5232:5363   */\n          tag_84\n          jump\t// in\n        tag_150:\n            /* \"#utility.yul\":5224:5363   */\n          swap1\n          pop\n            /* \"#utility.yul\":4951:5370   */\n          swap2\n          swap1\n          pop\n          jump\t// out\n            /* \"#utility.yul\":5376:5556   */\n        tag_85:\n            /* \"#utility.yul\":5424:5501   */\n          0x4e487b7100000000000000000000000000000000000000000000000000000000\n            /* \"#utility.yul\":5421:5422   */\n          0x00\n            /* \"#utility.yul\":5414:5502   */\n          mstore\n            /* \"#utility.yul\":5521:5525   */\n          0x11\n            /* \"#utility.yul\":5518:5519   */\n          0x04\n            /* \"#utility.yul\":5511:5526   */\n          mstore\n            /* \"#utility.yul\":5545:5549   */\n          0x24\n            /* \"#utility.yul\":5542:5543   */\n          0x00\n            /* \"#utility.yul\":5535:5550   */\n          revert\n            /* \"#utility.yul\":5562:5756   */\n        tag_44:\n            /* \"#utility.yul\":5602:5606   */\n          0x00\n            /* \"#utility.yul\":5622:5642   */\n          tag_153\n            /* \"#utility.yul\":5640:5641   */\n          dup3\n            /* \"#utility.yul\":5622:5642   */\n          tag_76\n          jump\t// in\n        tag_153:\n            /* \"#utility.yul\":5617:5642   */\n          swap2\n          pop\n            /* \"#utility.yul\":5656:5676   */\n          tag_154\n            /* \"#utility.yul\":5674:5675   */\n          dup4\n            /* \"#utility.yul\":5656:5676   */\n          tag_76\n          jump\t// in\n        tag_154:\n            /* \"#utility.yul\":5651:5676   */\n          swap3\n          pop\n            /* \"#utility.yul\":5700:5701   */\n          dup3\n            /* \"#utility.yul\":5697:5698   */\n          dup3\n            /* \"#utility.yul\":5693:5702   */\n          sub\n            /* \"#utility.yul\":5685:5702   */\n          swap1\n          pop\n            /* \"#utility.yul\":5724:5725   */\n          dup2\n            /* \"#utility.yul\":5718:5722   */\n          dup2\n            /* \"#utility.yul\":5715:5726   */\n          gt\n            /* \"#utility.yul\":5712:5749   */\n          iszero\n          tag_155\n          jumpi\n            /* \"#utility.yul\":5729:5747   */\n          tag_156\n          tag_85\n          jump\t// in\n        tag_156:\n            /* \"#utility.yul\":5712:5749   */\n        tag_155:\n            /* \"#utility.yul\":5562:5756   */\n          swap3\n          swap2\n          pop\n          pop\n          jump\t// out\n            /* \"#utility.yul\":5762:5925   */\n        tag_86:\n            /* \"#utility.yul\":5902:5917   */\n          0x61646472657373206572726f7200000000000000000000000000000000000000\n            /* \"#utility.yul\":5898:5899   */\n          0x00\n            /* \"#utility.yul\":5890:5896   */\n          dup3\n            /* \"#utility.yul\":5886:5900   */\n          add\n            /* \"#utility.yul\":5879:5918   */\n          mstore\n            /* \"#utility.yul\":5762:5925   */\n          pop\n          jump\t// out\n            /* \"#utility.yul\":5931:6297   */\n        tag_87:\n            /* \"#utility.yul\":6073:6076   */\n          0x00\n            /* \"#utility.yul\":6094:6161   */\n          tag_159\n            /* \"#utility.yul\":6158:6160   */\n          0x0d\n            /* \"#utility.yul\":6153:6156   */\n          dup4\n            /* \"#utility.yul\":6094:6161   */\n          tag_82\n          jump\t// in\n        tag_159:\n            /* \"#utility.yul\":6087:6161   */\n          swap2\n          pop\n            /* \"#utility.yul\":6170:6263   */\n          tag_160\n            /* \"#utility.yul\":6259:6262   */\n          dup3\n            /* \"#utility.yul\":6170:6263   */\n          tag_86\n          jump\t// in\n        tag_160:\n            /* \"#utility.yul\":6288:6290   */\n          0x20\n            /* \"#utility.yul\":6283:6286   */\n          dup3\n            /* \"#utility.yul\":6279:6291   */\n          add\n            /* \"#utility.yul\":6272:6291   */\n          swap1\n          pop\n            /* \"#utility.yul\":5931:6297   */\n          swap2\n          swap1\n          pop\n          jump\t// out\n            /* \"#utility.yul\":6303:6722   */\n        tag_49:\n            /* \"#utility.yul\":6469:6473   */\n          0x00\n            /* \"#utility.yul\":6507:6509   */\n          0x20\n            /* \"#utility.yul\":6496:6505   */\n          dup3\n            /* \"#utility.yul\":6492:6510   */\n          add\n            /* \"#utility.yul\":6484:6510   */\n          swap1\n          pop\n            /* \"#utility.yul\":6556:6565   */\n          dup2\n            /* \"#utility.yul\":6550:6554   */\n          dup2\n            /* \"#utility.yul\":6546:6566   */\n          sub\n            /* \"#utility.yul\":6542:6543   */\n          0x00\n            /* \"#utility.yul\":6531:6540   */\n          dup4\n            /* \"#utility.yul\":6527:6544   */\n          add\n            /* \"#utility.yul\":6520:6567   */\n          mstore\n            /* \"#utility.yul\":6584:6715   */\n          tag_162\n            /* \"#utility.yul\":6710:6714   */\n          dup2\n            /* \"#utility.yul\":6584:6715   */\n          tag_87\n          jump\t// in\n        tag_162:\n            /* \"#utility.yul\":6576:6715   */\n          swap1\n          pop\n            /* \"#utility.yul\":6303:6722   */\n          swap2\n          swap1\n          pop\n          jump\t// out\n            /* \"#utility.yul\":6728:6888   */\n        tag_88:\n            /* \"#utility.yul\":6868:6880   */\n          0x6e6f7420656e6f75676800000000000000000000000000000000000000000000\n            /* \"#utility.yul\":6864:6865   */\n          0x00\n            /* \"#utility.yul\":6856:6862   */\n          dup3\n            /* \"#utility.yul\":6852:6866   */\n          add\n            /* \"#utility.yul\":6845:6881   */\n          mstore\n            /* \"#utility.yul\":6728:6888   */\n          pop\n          jump\t// out\n            /* \"#utility.yul\":6894:7260   */\n        tag_89:\n            /* \"#utility.yul\":7036:7039   */\n          0x00\n            /* \"#utility.yul\":7057:7124   */\n          tag_165\n            /* \"#utility.yul\":7121:7123   */\n          0x0a\n            /* \"#utility.yul\":7116:7119   */\n          dup4\n            /* \"#utility.yul\":7057:7124   */\n          tag_82\n          jump\t// in\n        tag_165:\n            /* \"#utility.yul\":7050:7124   */\n          swap2\n          pop\n            /* \"#utility.yul\":7133:7226   */\n          tag_166\n            /* \"#utility.yul\":7222:7225   */\n          dup3\n            /* \"#utility.yul\":7133:7226   */\n          tag_88\n          jump\t// in\n        tag_166:\n            /* \"#utility.yul\":7251:7253   */\n          0x20\n            /* \"#utility.yul\":7246:7249   */\n          dup3\n            /* \"#utility.yul\":7242:7254   */\n          add\n            /* \"#utility.yul\":7235:7254   */\n          swap1\n          pop\n            /* \"#utility.yul\":6894:7260   */\n          swap2\n          swap1\n          pop\n          jump\t// out\n            /* \"#utility.yul\":7266:7685   */\n        tag_54:\n            /* \"#utility.yul\":7432:7436   */\n          0x00\n            /* \"#utility.yul\":7470:7472   */\n          0x20\n            /* \"#utility.yul\":7459:7468   */\n          dup3\n            /* \"#utility.yul\":7455:7473   */\n          add\n            /* \"#utility.yul\":7447:7473   */\n          swap1\n          pop\n            /* \"#utility.yul\":7519:7528   */\n          dup2\n            /* \"#utility.yul\":7513:7517   */\n          dup2\n            /* \"#utility.yul\":7509:7529   */\n          sub\n            /* \"#utility.yul\":7505:7506   */\n          0x00\n            /* \"#utility.yul\":7494:7503   */\n          dup4\n            /* \"#utility.yul\":7490:7507   */\n          add\n            /* \"#utility.yul\":7483:7530   */\n          mstore\n            /* \"#utility.yul\":7547:7678   */\n          tag_168\n            /* \"#utility.yul\":7673:7677   */\n          dup2\n            /* \"#utility.yul\":7547:7678   */\n          tag_89\n          jump\t// in\n        tag_168:\n            /* \"#utility.yul\":7539:7678   */\n          swap1\n          pop\n            /* \"#utility.yul\":7266:7685   */\n          swap2\n          swap1\n          pop\n          jump\t// out\n            /* \"#utility.yul\":7691:7882   */\n        tag_57:\n            /* \"#utility.yul\":7731:7734   */\n          0x00\n            /* \"#utility.yul\":7750:7770   */\n          tag_170\n            /* \"#utility.yul\":7768:7769   */\n          dup3\n            /* \"#utility.yul\":7750:7770   */\n          tag_76\n          jump\t// in\n        tag_170:\n            /* \"#utility.yul\":7745:7770   */\n          swap2\n          pop\n            /* \"#utility.yul\":7784:7804   */\n          tag_171\n            /* \"#utility.yul\":7802:7803   */\n          dup4\n            /* \"#utility.yul\":7784:7804   */\n          tag_76\n          jump\t// in\n        tag_171:\n            /* \"#utility.yul\":7779:7804   */\n          swap3\n          pop\n            /* \"#utility.yul\":7827:7828   */\n          dup3\n            /* \"#utility.yul\":7824:7825   */\n          dup3\n            /* \"#utility.yul\":7820:7829   */\n          add\n            /* \"#utility.yul\":7813:7829   */\n          swap1\n          pop\n            /* \"#utility.yul\":7848:7851   */\n          dup1\n            /* \"#utility.yul\":7845:7846   */\n          dup3\n            /* \"#utility.yul\":7842:7852   */\n          gt\n            /* \"#utility.yul\":7839:7875   */\n          iszero\n          tag_172\n          jumpi\n            /* \"#utility.yul\":7855:7873   */\n          tag_173\n          tag_85\n          jump\t// in\n        tag_173:\n            /* \"#utility.yul\":7839:7875   */\n        tag_172:\n            /* \"#utility.yul\":7691:7882   */\n          swap3\n          swap2\n          pop\n          pop\n          jump\t// out\n            /* \"#utility.yul\":7888:8006   */\n        tag_90:\n            /* \"#utility.yul\":7975:7999   */\n          tag_175\n            /* \"#utility.yul\":7993:7998   */\n          dup2\n            /* \"#utility.yul\":7975:7999   */\n          tag_73\n          jump\t// in\n        tag_175:\n            /* \"#utility.yul\":7970:7973   */\n          dup3\n            /* \"#utility.yul\":7963:8000   */\n          mstore\n            /* \"#utility.yul\":7888:8006   */\n          pop\n          pop\n          jump\t// out\n            /* \"#utility.yul\":8012:8454   */\n        tag_59:\n            /* \"#utility.yul\":8161:8165   */\n          0x00\n            /* \"#utility.yul\":8199:8201   */\n          0x60\n            /* \"#utility.yul\":8188:8197   */\n          dup3\n            /* \"#utility.yul\":8184:8202   */\n          add\n            /* \"#utility.yul\":8176:8202   */\n          swap1\n          pop\n            /* \"#utility.yul\":8212:8283   */\n          tag_177\n            /* \"#utility.yul\":8280:8281   */\n          0x00\n            /* \"#utility.yul\":8269:8278   */\n          dup4\n            /* \"#utility.yul\":8265:8282   */\n          add\n            /* \"#utility.yul\":8256:8262   */\n          dup7\n            /* \"#utility.yul\":8212:8283   */\n          tag_90\n          jump\t// in\n        tag_177:\n            /* \"#utility.yul\":8293:8365   */\n          tag_178\n            /* \"#utility.yul\":8361:8363   */\n          0x20\n            /* \"#utility.yul\":8350:8359   */\n          dup4\n            /* \"#utility.yul\":8346:8364   */\n          add\n            /* \"#utility.yul\":8337:8343   */\n          dup6\n            /* \"#utility.yul\":8293:8365   */\n          tag_90\n          jump\t// in\n        tag_178:\n            /* \"#utility.yul\":8375:8447   */\n          tag_179\n            /* \"#utility.yul\":8443:8445   */\n          0x40\n            /* \"#utility.yul\":8432:8441   */\n          dup4\n            /* \"#utility.yul\":8428:8446   */\n          add\n            /* \"#utility.yul\":8419:8425   */\n          dup5\n            /* \"#utility.yul\":8375:8447   */\n          tag_81\n          jump\t// in\n        tag_179:\n            /* \"#utility.yul\":8012:8454   */\n          swap5\n          swap4\n          pop\n          pop\n          pop\n          pop\n          jump\t// out\n            /* \"#utility.yul\":8460:8628   */\n        tag_91:\n            /* \"#utility.yul\":8600:8620   */\n          0x6e6f7420656e6f7567682062616c616e63650000000000000000000000000000\n            /* \"#utility.yul\":8596:8597   */\n          0x00\n            /* \"#utility.yul\":8588:8594   */\n          dup3\n            /* \"#utility.yul\":8584:8598   */\n          add\n            /* \"#utility.yul\":8577:8621   */\n          mstore\n            /* \"#utility.yul\":8460:8628   */\n          pop\n          jump\t// out\n            /* \"#utility.yul\":8634:9000   */\n        tag_92:\n            /* \"#utility.yul\":8776:8779   */\n          0x00\n            /* \"#utility.yul\":8797:8864   */\n          tag_182\n            /* \"#utility.yul\":8861:8863   */\n          0x12\n            /* \"#utility.yul\":8856:8859   */\n          dup4\n            /* \"#utility.yul\":8797:8864   */\n          tag_82\n          jump\t// in\n        tag_182:\n            /* \"#utility.yul\":8790:8864   */\n          swap2\n          pop\n            /* \"#utility.yul\":8873:8966   */\n          tag_183\n            /* \"#utility.yul\":8962:8965   */\n          dup3\n            /* \"#utility.yul\":8873:8966   */\n          tag_91\n          jump\t// in\n        tag_183:\n            /* \"#utility.yul\":8991:8993   */\n          0x20\n            /* \"#utility.yul\":8986:8989   */\n          dup3\n            /* \"#utility.yul\":8982:8994   */\n          add\n            /* \"#utility.yul\":8975:8994   */\n          swap1\n          pop\n            /* \"#utility.yul\":8634:9000   */\n          swap2\n          swap1\n          pop\n          jump\t// out\n            /* \"#utility.yul\":9006:9425   */\n        tag_64:\n            /* \"#utility.yul\":9172:9176   */\n          0x00\n            /* \"#utility.yul\":9210:9212   */\n          0x20\n            /* \"#utility.yul\":9199:9208   */\n          dup3\n            /* \"#utility.yul\":9195:9213   */\n          add\n            /* \"#utility.yul\":9187:9213   */\n          swap1\n          pop\n            /* \"#utility.yul\":9259:9268   */\n          dup2\n            /* \"#utility.yul\":9253:9257   */\n          dup2\n            /* \"#utility.yul\":9249:9269   */\n          sub\n            /* \"#utility.yul\":9245:9246   */\n          0x00\n            /* \"#utility.yul\":9234:9243   */\n          dup4\n            /* \"#utility.yul\":9230:9247   */\n          add\n            /* \"#utility.yul\":9223:9270   */\n          mstore\n            /* \"#utility.yul\":9287:9418   */\n          tag_185\n            /* \"#utility.yul\":9413:9417   */\n          dup2\n            /* \"#utility.yul\":9287:9418   */\n          tag_92\n          jump\t// in\n        tag_185:\n            /* \"#utility.yul\":9279:9418   */\n          swap1\n          pop\n            /* \"#utility.yul\":9006:9425   */\n          swap2\n          swap1\n          pop\n          jump\t// out\n\n        auxdata: 0xa264697066735822122061bd995d6df850364a23c71b7b2f66ceebab90a43f7d7de5cbd4d466b88b3c7c64736f6c634300081a0033\n    }\n}\n",
				"bytecode": {
					"linkReferences": {},
					"object": "6080604052348015600e575f80fd5b506040516019906074565b604051809103905ff0801580156031573d5f803e3d5ffd5b505f806101000a81548173ffffffffffffffffffffffffffffffffffffffff021916908373ffffffffffffffffffffffffffffffffffffffff1602179055506081565b610c838061042783390190565b6103998061008e5f395ff3fe608060405234801561000f575f80fd5b5060043610610034575f3560e01c8063416a06d91461003857806354353f2f14610056575b5f80fd5b610040610074565b60405161004d91906101d3565b60405180910390f35b61005e610198565b60405161006b9190610266565b60405180910390f35b5f805f9054906101000a900473ffffffffffffffffffffffffffffffffffffffff1673ffffffffffffffffffffffffffffffffffffffff166382ab890a60646040518263ffffffff1660e01b81526004016100cf91906102b8565b5f604051808303815f87803b1580156100e6575f80fd5b505af11580156100f8573d5f803e3d5ffd5b505050505f8054906101000a900473ffffffffffffffffffffffffffffffffffffffff1673ffffffffffffffffffffffffffffffffffffffff166327e235e3306040518263ffffffff1660e01b815260040161015491906102f1565b602060405180830381865afa15801561016f573d5f803e3d5ffd5b505050506040513d601f19601f820116820180604052508101906101939190610338565b905090565b5f8054906101000a900473ffffffffffffffffffffffffffffffffffffffff1681565b5f819050919050565b6101cd816101bb565b82525050565b5f6020820190506101e65f8301846101c4565b92915050565b5f73ffffffffffffffffffffffffffffffffffffffff82169050919050565b5f819050919050565b5f61022e610229610224846101ec565b61020b565b6101ec565b9050919050565b5f61023f82610214565b9050919050565b5f61025082610235565b9050919050565b61026081610246565b82525050565b5f6020820190506102795f830184610257565b92915050565b5f819050919050565b5f6102a261029d6102988461027f565b61020b565b6101bb565b9050919050565b6102b281610288565b82525050565b5f6020820190506102cb5f8301846102a9565b92915050565b5f6102db826101ec565b9050919050565b6102eb816102d1565b82525050565b5f6020820190506103045f8301846102e2565b92915050565b5f80fd5b610317816101bb565b8114610321575f80fd5b50565b5f815190506103328161030e565b92915050565b5f6020828403121561034d5761034c61030a565b5b5f61035a84828501610324565b9150509291505056fea2646970667358221220c0fcb7bcb38234abdade4214e7dfe0f4d8f82f995038259a16f9feefe2e6abec64736f6c634300081a00336080604052348015600e575f80fd5b50610c678061001c5f395ff3fe608060405234801561000f575f80fd5b5060043610610060575f3560e01c806323b872dd1461006457806327e235e31461009457806330e0789e146100c45780636b0500c3146100f4578063719603bf1461012457806382ab890a14610154575b5f80fd5b61007e6004803603810190610079919061082d565b610170565b60405161008b9190610897565b60405180910390f35b6100ae60048036038101906100a991906108b0565b6102cf565b6040516100bb91906108ea565b60405180910390f35b6100de60048036038101906100d9919061082d565b6102e3565b6040516100eb9190610897565b60405180910390f35b61010e60048036038101906101099190610903565b610527565b60405161011b91906108ea565b60405180910390f35b61013e60048036038101906101399190610941565b6105a9565b60405161014b9190610897565b60405180910390f35b61016e6004803603810190610169919061097f565b610758565b005b5f8160015f8673ffffffffffffffffffffffffffffffffffffffff1673ffffffffffffffffffffffffffffffffffffffff1681526020019081526020015f205f8573ffffffffffffffffffffffffffffffffffffffff1673ffffffffffffffffffffffffffffffffffffffff1681526020019081526020015f20541161022b576040517f08c379a000000000000000000000000000000000000000000000000000000000815260040161022290610a04565b60405180910390fd5b8160015f8673ffffffffffffffffffffffffffffffffffffffff1673ffffffffffffffffffffffffffffffffffffffff1681526020019081526020015f205f8573ffffffffffffffffffffffffffffffffffffffff1673ffffffffffffffffffffffffffffffffffffffff1681526020019081526020015f205f8282546102b29190610a4f565b925050819055506102c48484846102e3565b505f90509392505050565b5f602052805f5260405f205f915090505481565b5f8073ffffffffffffffffffffffffffffffffffffffff168473ffffffffffffffffffffffffffffffffffffffff1603610352576040517f08c379a000000000000000000000000000000000000000000000000000000000815260040161034990610acc565b60405180910390fd5b5f73ffffffffffffffffffffffffffffffffffffffff168373ffffffffffffffffffffffffffffffffffffffff16036103c0576040517f08c379a00000000000000000000000000000000000000000000000000000000081526004016103b790610acc565b60405180910390fd5b815f808673ffffffffffffffffffffffffffffffffffffffff1673ffffffffffffffffffffffffffffffffffffffff1681526020019081526020015f20541161043e576040517f08c379a000000000000000000000000000000000000000000000000000000000815260040161043590610b34565b60405180910390fd5b815f808673ffffffffffffffffffffffffffffffffffffffff1673ffffffffffffffffffffffffffffffffffffffff1681526020019081526020015f205f8282546104899190610a4f565b92505081905550815f808573ffffffffffffffffffffffffffffffffffffffff1673ffffffffffffffffffffffffffffffffffffffff1681526020019081526020015f205f8282546104db9190610b52565b925050819055507fddf252ad1be2c89b69c2b068fc378daa952ba7f163c4a11628f55a4df523b3ef84848460405161051593929190610b94565b60405180910390a15f90509392505050565b5f60015f8473ffffffffffffffffffffffffffffffffffffffff1673ffffffffffffffffffffffffffffffffffffffff1681526020019081526020015f205f8373ffffffffffffffffffffffffffffffffffffffff1673ffffffffffffffffffffffffffffffffffffffff1681526020019081526020015f2054905092915050565b5f815f803373ffffffffffffffffffffffffffffffffffffffff1673ffffffffffffffffffffffffffffffffffffffff1681526020019081526020015f205411610628576040517f08c379a000000000000000000000000000000000000000000000000000000000815260040161061f90610c13565b60405180910390fd5b5f73ffffffffffffffffffffffffffffffffffffffff168373ffffffffffffffffffffffffffffffffffffffff1603610696576040517f08c379a000000000000000000000000000000000000000000000000000000000815260040161068d90610acc565b60405180910390fd5b8160015f3373ffffffffffffffffffffffffffffffffffffffff1673ffffffffffffffffffffffffffffffffffffffff1681526020019081526020015f205f8573ffffffffffffffffffffffffffffffffffffffff1673ffffffffffffffffffffffffffffffffffffffff1681526020019081526020015f20819055507f8c5be1e5ebec7d5bd14f71427d1e84f3dd0314c0f7b2291e5b200ac8c7c3b92533848460405161074693929190610b94565b60405180910390a16001905092915050565b805f803373ffffffffffffffffffffffffffffffffffffffff1673ffffffffffffffffffffffffffffffffffffffff1681526020019081526020015f208190555050565b5f80fd5b5f73ffffffffffffffffffffffffffffffffffffffff82169050919050565b5f6107c9826107a0565b9050919050565b6107d9816107bf565b81146107e3575f80fd5b50565b5f813590506107f4816107d0565b92915050565b5f819050919050565b61080c816107fa565b8114610816575f80fd5b50565b5f8135905061082781610803565b92915050565b5f805f606084860312156108445761084361079c565b5b5f610851868287016107e6565b9350506020610862868287016107e6565b925050604061087386828701610819565b9150509250925092565b5f8115159050919050565b6108918161087d565b82525050565b5f6020820190506108aa5f830184610888565b92915050565b5f602082840312156108c5576108c461079c565b5b5f6108d2848285016107e6565b91505092915050565b6108e4816107fa565b82525050565b5f6020820190506108fd5f8301846108db565b92915050565b5f80604083850312156109195761091861079c565b5b5f610926858286016107e6565b9250506020610937858286016107e6565b9150509250929050565b5f80604083850312156109575761095661079c565b5b5f610964858286016107e6565b925050602061097585828601610819565b9150509250929050565b5f602082840312156109945761099361079c565b5b5f6109a184828501610819565b91505092915050565b5f82825260208201905092915050565b7f6e6f7420656e6f75676820616d6f756e740000000000000000000000000000005f82015250565b5f6109ee6011836109aa565b91506109f9826109ba565b602082019050919050565b5f6020820190508181035f830152610a1b816109e2565b9050919050565b7f4e487b71000000000000000000000000000000000000000000000000000000005f52601160045260245ffd5b5f610a59826107fa565b9150610a64836107fa565b9250828203905081811115610a7c57610a7b610a22565b5b92915050565b7f61646472657373206572726f72000000000000000000000000000000000000005f82015250565b5f610ab6600d836109aa565b9150610ac182610a82565b602082019050919050565b5f6020820190508181035f830152610ae381610aaa565b9050919050565b7f6e6f7420656e6f756768000000000000000000000000000000000000000000005f82015250565b5f610b1e600a836109aa565b9150610b2982610aea565b602082019050919050565b5f6020820190508181035f830152610b4b81610b12565b9050919050565b5f610b5c826107fa565b9150610b67836107fa565b9250828201905080821115610b7f57610b7e610a22565b5b92915050565b610b8e816107bf565b82525050565b5f606082019050610ba75f830186610b85565b610bb46020830185610b85565b610bc160408301846108db565b949350505050565b7f6e6f7420656e6f7567682062616c616e636500000000000000000000000000005f82015250565b5f610bfd6012836109aa565b9150610c0882610bc9565b602082019050919050565b5f6020820190508181035f830152610c2a81610bf1565b905091905056fea264697066735822122061bd995d6df850364a23c71b7b2f66ceebab90a43f7d7de5cbd4d466b88b3c7c64736f6c634300081a0033",
					"opcodes": "PUSH1 0x80 PUSH1 0x40 MSTORE CALLVALUE DUP1 ISZERO PUSH1 0xE JUMPI PUSH0 DUP1 REVERT JUMPDEST POP PUSH1 0x40 MLOAD PUSH1 0x19 SWAP1 PUSH1 0x74 JUMP JUMPDEST PUSH1 0x40 MLOAD DUP1 SWAP2 SUB SWAP1 PUSH0 CREATE DUP1 ISZERO DUP1 ISZERO PUSH1 0x31 JUMPI RETURNDATASIZE PUSH0 DUP1 RETURNDATACOPY RETURNDATASIZE PUSH0 REVERT JUMPDEST POP PUSH0 DUP1 PUSH2 0x100 EXP DUP2 SLOAD DUP2 PUSH20 0xFFFFFFFFFFFFFFFFFFFFFFFFFFFFFFFFFFFFFFFF MUL NOT AND SWAP1 DUP4 PUSH20 0xFFFFFFFFFFFFFFFFFFFFFFFFFFFFFFFFFFFFFFFF AND MUL OR SWAP1 SSTORE POP PUSH1 0x81 JUMP JUMPDEST PUSH2 0xC83 DUP1 PUSH2 0x427 DUP4 CODECOPY ADD SWAP1 JUMP JUMPDEST PUSH2 0x399 DUP1 PUSH2 0x8E PUSH0 CODECOPY PUSH0 RETURN INVALID PUSH1 0x80 PUSH1 0x40 MSTORE CALLVALUE DUP1 ISZERO PUSH2 0xF JUMPI PUSH0 DUP1 REVERT JUMPDEST POP PUSH1 0x4 CALLDATASIZE LT PUSH2 0x34 JUMPI PUSH0 CALLDATALOAD PUSH1 0xE0 SHR DUP1 PUSH4 0x416A06D9 EQ PUSH2 0x38 JUMPI DUP1 PUSH4 0x54353F2F EQ PUSH2 0x56 JUMPI JUMPDEST PUSH0 DUP1 REVERT JUMPDEST PUSH2 0x40 PUSH2 0x74 JUMP JUMPDEST PUSH1 0x40 MLOAD PUSH2 0x4D SWAP2 SWAP1 PUSH2 0x1D3 JUMP JUMPDEST PUSH1 0x40 MLOAD DUP1 SWAP2 SUB SWAP1 RETURN JUMPDEST PUSH2 0x5E PUSH2 0x198 JUMP JUMPDEST PUSH1 0x40 MLOAD PUSH2 0x6B SWAP2 SWAP1 PUSH2 0x266 JUMP JUMPDEST PUSH1 0x40 MLOAD DUP1 SWAP2 SUB SWAP1 RETURN JUMPDEST PUSH0 DUP1 PUSH0 SWAP1 SLOAD SWAP1 PUSH2 0x100 EXP SWAP1 DIV PUSH20 0xFFFFFFFFFFFFFFFFFFFFFFFFFFFFFFFFFFFFFFFF AND PUSH20 0xFFFFFFFFFFFFFFFFFFFFFFFFFFFFFFFFFFFFFFFF AND PUSH4 0x82AB890A PUSH1 0x64 PUSH1 0x40 MLOAD DUP3 PUSH4 0xFFFFFFFF AND PUSH1 0xE0 SHL DUP2 MSTORE PUSH1 0x4 ADD PUSH2 0xCF SWAP2 SWAP1 PUSH2 0x2B8 JUMP JUMPDEST PUSH0 PUSH1 0x40 MLOAD DUP1 DUP4 SUB DUP2 PUSH0 DUP8 DUP1 EXTCODESIZE ISZERO DUP1 ISZERO PUSH2 0xE6 JUMPI PUSH0 DUP1 REVERT JUMPDEST POP GAS CALL ISZERO DUP1 ISZERO PUSH2 0xF8 JUMPI RETURNDATASIZE PUSH0 DUP1 RETURNDATACOPY RETURNDATASIZE PUSH0 REVERT JUMPDEST POP POP POP POP PUSH0 DUP1 SLOAD SWAP1 PUSH2 0x100 EXP SWAP1 DIV PUSH20 0xFFFFFFFFFFFFFFFFFFFFFFFFFFFFFFFFFFFFFFFF AND PUSH20 0xFFFFFFFFFFFFFFFFFFFFFFFFFFFFFFFFFFFFFFFF AND PUSH4 0x27E235E3 ADDRESS PUSH1 0x40 MLOAD DUP3 PUSH4 0xFFFFFFFF AND PUSH1 0xE0 SHL DUP2 MSTORE PUSH1 0x4 ADD PUSH2 0x154 SWAP2 SWAP1 PUSH2 0x2F1 JUMP JUMPDEST PUSH1 0x20 PUSH1 0x40 MLOAD DUP1 DUP4 SUB DUP2 DUP7 GAS STATICCALL ISZERO DUP1 ISZERO PUSH2 0x16F JUMPI RETURNDATASIZE PUSH0 DUP1 RETURNDATACOPY RETURNDATASIZE PUSH0 REVERT JUMPDEST POP POP POP POP PUSH1 0x40 MLOAD RETURNDATASIZE PUSH1 0x1F NOT PUSH1 0x1F DUP3 ADD AND DUP3 ADD DUP1 PUSH1 0x40 MSTORE POP DUP2 ADD SWAP1 PUSH2 0x193 SWAP2 SWAP1 PUSH2 0x338 JUMP JUMPDEST SWAP1 POP SWAP1 JUMP JUMPDEST PUSH0 DUP1 SLOAD SWAP1 PUSH2 0x100 EXP SWAP1 DIV PUSH20 0xFFFFFFFFFFFFFFFFFFFFFFFFFFFFFFFFFFFFFFFF AND DUP2 JUMP JUMPDEST PUSH0 DUP2 SWAP1 POP SWAP2 SWAP1 POP JUMP JUMPDEST PUSH2 0x1CD DUP2 PUSH2 0x1BB JUMP JUMPDEST DUP3 MSTORE POP POP JUMP JUMPDEST PUSH0 PUSH1 0x20 DUP3 ADD SWAP1 POP PUSH2 0x1E6 PUSH0 DUP4 ADD DUP5 PUSH2 0x1C4 JUMP JUMPDEST SWAP3 SWAP2 POP POP JUMP JUMPDEST PUSH0 PUSH20 0xFFFFFFFFFFFFFFFFFFFFFFFFFFFFFFFFFFFFFFFF DUP3 AND SWAP1 POP SWAP2 SWAP1 POP JUMP JUMPDEST PUSH0 DUP2 SWAP1 POP SWAP2 SWAP1 POP JUMP JUMPDEST PUSH0 PUSH2 0x22E PUSH2 0x229 PUSH2 0x224 DUP5 PUSH2 0x1EC JUMP JUMPDEST PUSH2 0x20B JUMP JUMPDEST PUSH2 0x1EC JUMP JUMPDEST SWAP1 POP SWAP2 SWAP1 POP JUMP JUMPDEST PUSH0 PUSH2 0x23F DUP3 PUSH2 0x214 JUMP JUMPDEST SWAP1 POP SWAP2 SWAP1 POP JUMP JUMPDEST PUSH0 PUSH2 0x250 DUP3 PUSH2 0x235 JUMP JUMPDEST SWAP1 POP SWAP2 SWAP1 POP JUMP JUMPDEST PUSH2 0x260 DUP2 PUSH2 0x246 JUMP JUMPDEST DUP3 MSTORE POP POP JUMP JUMPDEST PUSH0 PUSH1 0x20 DUP3 ADD SWAP1 POP PUSH2 0x279 PUSH0 DUP4 ADD DUP5 PUSH2 0x257 JUMP JUMPDEST SWAP3 SWAP2 POP POP JUMP JUMPDEST PUSH0 DUP2 SWAP1 POP SWAP2 SWAP1 POP JUMP JUMPDEST PUSH0 PUSH2 0x2A2 PUSH2 0x29D PUSH2 0x298 DUP5 PUSH2 0x27F JUMP JUMPDEST PUSH2 0x20B JUMP JUMPDEST PUSH2 0x1BB JUMP JUMPDEST SWAP1 POP SWAP2 SWAP1 POP JUMP JUMPDEST PUSH2 0x2B2 DUP2 PUSH2 0x288 JUMP JUMPDEST DUP3 MSTORE POP POP JUMP JUMPDEST PUSH0 PUSH1 0x20 DUP3 ADD SWAP1 POP PUSH2 0x2CB PUSH0 DUP4 ADD DUP5 PUSH2 0x2A9 JUMP JUMPDEST SWAP3 SWAP2 POP POP JUMP JUMPDEST PUSH0 PUSH2 0x2DB DUP3 PUSH2 0x1EC JUMP JUMPDEST SWAP1 POP SWAP2 SWAP1 POP JUMP JUMPDEST PUSH2 0x2EB DUP2 PUSH2 0x2D1 JUMP JUMPDEST DUP3 MSTORE POP POP JUMP JUMPDEST PUSH0 PUSH1 0x20 DUP3 ADD SWAP1 POP PUSH2 0x304 PUSH0 DUP4 ADD DUP5 PUSH2 0x2E2 JUMP JUMPDEST SWAP3 SWAP2 POP POP JUMP JUMPDEST PUSH0 DUP1 REVERT JUMPDEST PUSH2 0x317 DUP2 PUSH2 0x1BB JUMP JUMPDEST DUP2 EQ PUSH2 0x321 JUMPI PUSH0 DUP1 REVERT JUMPDEST POP JUMP JUMPDEST PUSH0 DUP2 MLOAD SWAP1 POP PUSH2 0x332 DUP2 PUSH2 0x30E JUMP JUMPDEST SWAP3 SWAP2 POP POP JUMP JUMPDEST PUSH0 PUSH1 0x20 DUP3 DUP5 SUB SLT ISZERO PUSH2 0x34D JUMPI PUSH2 0x34C PUSH2 0x30A JUMP JUMPDEST JUMPDEST PUSH0 PUSH2 0x35A DUP5 DUP3 DUP6 ADD PUSH2 0x324 JUMP JUMPDEST SWAP2 POP POP SWAP3 SWAP2 POP POP JUMP INVALID LOG2 PUSH5 0x6970667358 0x22 SLT KECCAK256 0xC0 0xFC 0xB7 0xBC 0xB3 DUP3 CALLVALUE 0xAB 0xDA 0xDE TIMESTAMP EQ 0xE7 0xDF 0xE0 DELEGATECALL 0xD8 0xF8 0x2F SWAP10 POP CODESIZE 0x25 SWAP11 AND 0xF9 INVALID 0xEF 0xE2 0xE6 0xAB 0xEC PUSH5 0x736F6C6343 STOP ADDMOD BYTE STOP CALLER PUSH1 0x80 PUSH1 0x40 MSTORE CALLVALUE DUP1 ISZERO PUSH1 0xE JUMPI PUSH0 DUP1 REVERT JUMPDEST POP PUSH2 0xC67 DUP1 PUSH2 0x1C PUSH0 CODECOPY PUSH0 RETURN INVALID PUSH1 0x80 PUSH1 0x40 MSTORE CALLVALUE DUP1 ISZERO PUSH2 0xF JUMPI PUSH0 DUP1 REVERT JUMPDEST POP PUSH1 0x4 CALLDATASIZE LT PUSH2 0x60 JUMPI PUSH0 CALLDATALOAD PUSH1 0xE0 SHR DUP1 PUSH4 0x23B872DD EQ PUSH2 0x64 JUMPI DUP1 PUSH4 0x27E235E3 EQ PUSH2 0x94 JUMPI DUP1 PUSH4 0x30E0789E EQ PUSH2 0xC4 JUMPI DUP1 PUSH4 0x6B0500C3 EQ PUSH2 0xF4 JUMPI DUP1 PUSH4 0x719603BF EQ PUSH2 0x124 JUMPI DUP1 PUSH4 0x82AB890A EQ PUSH2 0x154 JUMPI JUMPDEST PUSH0 DUP1 REVERT JUMPDEST PUSH2 0x7E PUSH1 0x4 DUP1 CALLDATASIZE SUB DUP2 ADD SWAP1 PUSH2 0x79 SWAP2 SWAP1 PUSH2 0x82D JUMP JUMPDEST PUSH2 0x170 JUMP JUMPDEST PUSH1 0x40 MLOAD PUSH2 0x8B SWAP2 SWAP1 PUSH2 0x897 JUMP JUMPDEST PUSH1 0x40 MLOAD DUP1 SWAP2 SUB SWAP1 RETURN JUMPDEST PUSH2 0xAE PUSH1 0x4 DUP1 CALLDATASIZE SUB DUP2 ADD SWAP1 PUSH2 0xA9 SWAP2 SWAP1 PUSH2 0x8B0 JUMP JUMPDEST PUSH2 0x2CF JUMP JUMPDEST PUSH1 0x40 MLOAD PUSH2 0xBB SWAP2 SWAP1 PUSH2 0x8EA JUMP JUMPDEST PUSH1 0x40 MLOAD DUP1 SWAP2 SUB SWAP1 RETURN JUMPDEST PUSH2 0xDE PUSH1 0x4 DUP1 CALLDATASIZE SUB DUP2 ADD SWAP1 PUSH2 0xD9 SWAP2 SWAP1 PUSH2 0x82D JUMP JUMPDEST PUSH2 0x2E3 JUMP JUMPDEST PUSH1 0x40 MLOAD PUSH2 0xEB SWAP2 SWAP1 PUSH2 0x897 JUMP JUMPDEST PUSH1 0x40 MLOAD DUP1 SWAP2 SUB SWAP1 RETURN JUMPDEST PUSH2 0x10E PUSH1 0x4 DUP1 CALLDATASIZE SUB DUP2 ADD SWAP1 PUSH2 0x109 SWAP2 SWAP1 PUSH2 0x903 JUMP JUMPDEST PUSH2 0x527 JUMP JUMPDEST PUSH1 0x40 MLOAD PUSH2 0x11B SWAP2 SWAP1 PUSH2 0x8EA JUMP JUMPDEST PUSH1 0x40 MLOAD DUP1 SWAP2 SUB SWAP1 RETURN JUMPDEST PUSH2 0x13E PUSH1 0x4 DUP1 CALLDATASIZE SUB DUP2 ADD SWAP1 PUSH2 0x139 SWAP2 SWAP1 PUSH2 0x941 JUMP JUMPDEST PUSH2 0x5A9 JUMP JUMPDEST PUSH1 0x40 MLOAD PUSH2 0x14B SWAP2 SWAP1 PUSH2 0x897 JUMP JUMPDEST PUSH1 0x40 MLOAD DUP1 SWAP2 SUB SWAP1 RETURN JUMPDEST PUSH2 0x16E PUSH1 0x4 DUP1 CALLDATASIZE SUB DUP2 ADD SWAP1 PUSH2 0x169 SWAP2 SWAP1 PUSH2 0x97F JUMP JUMPDEST PUSH2 0x758 JUMP JUMPDEST STOP JUMPDEST PUSH0 DUP2 PUSH1 0x1 PUSH0 DUP7 PUSH20 0xFFFFFFFFFFFFFFFFFFFFFFFFFFFFFFFFFFFFFFFF AND PUSH20 0xFFFFFFFFFFFFFFFFFFFFFFFFFFFFFFFFFFFFFFFF AND DUP2 MSTORE PUSH1 0x20 ADD SWAP1 DUP2 MSTORE PUSH1 0x20 ADD PUSH0 KECCAK256 PUSH0 DUP6 PUSH20 0xFFFFFFFFFFFFFFFFFFFFFFFFFFFFFFFFFFFFFFFF AND PUSH20 0xFFFFFFFFFFFFFFFFFFFFFFFFFFFFFFFFFFFFFFFF AND DUP2 MSTORE PUSH1 0x20 ADD SWAP1 DUP2 MSTORE PUSH1 0x20 ADD PUSH0 KECCAK256 SLOAD GT PUSH2 0x22B JUMPI PUSH1 0x40 MLOAD PUSH32 0x8C379A000000000000000000000000000000000000000000000000000000000 DUP2 MSTORE PUSH1 0x4 ADD PUSH2 0x222 SWAP1 PUSH2 0xA04 JUMP JUMPDEST PUSH1 0x40 MLOAD DUP1 SWAP2 SUB SWAP1 REVERT JUMPDEST DUP2 PUSH1 0x1 PUSH0 DUP7 PUSH20 0xFFFFFFFFFFFFFFFFFFFFFFFFFFFFFFFFFFFFFFFF AND PUSH20 0xFFFFFFFFFFFFFFFFFFFFFFFFFFFFFFFFFFFFFFFF AND DUP2 MSTORE PUSH1 0x20 ADD SWAP1 DUP2 MSTORE PUSH1 0x20 ADD PUSH0 KECCAK256 PUSH0 DUP6 PUSH20 0xFFFFFFFFFFFFFFFFFFFFFFFFFFFFFFFFFFFFFFFF AND PUSH20 0xFFFFFFFFFFFFFFFFFFFFFFFFFFFFFFFFFFFFFFFF AND DUP2 MSTORE PUSH1 0x20 ADD SWAP1 DUP2 MSTORE PUSH1 0x20 ADD PUSH0 KECCAK256 PUSH0 DUP3 DUP3 SLOAD PUSH2 0x2B2 SWAP2 SWAP1 PUSH2 0xA4F JUMP JUMPDEST SWAP3 POP POP DUP2 SWAP1 SSTORE POP PUSH2 0x2C4 DUP5 DUP5 DUP5 PUSH2 0x2E3 JUMP JUMPDEST POP PUSH0 SWAP1 POP SWAP4 SWAP3 POP POP POP JUMP JUMPDEST PUSH0 PUSH1 0x20 MSTORE DUP1 PUSH0 MSTORE PUSH1 0x40 PUSH0 KECCAK256 PUSH0 SWAP2 POP SWAP1 POP SLOAD DUP2 JUMP JUMPDEST PUSH0 DUP1 PUSH20 0xFFFFFFFFFFFFFFFFFFFFFFFFFFFFFFFFFFFFFFFF AND DUP5 PUSH20 0xFFFFFFFFFFFFFFFFFFFFFFFFFFFFFFFFFFFFFFFF AND SUB PUSH2 0x352 JUMPI PUSH1 0x40 MLOAD PUSH32 0x8C379A000000000000000000000000000000000000000000000000000000000 DUP2 MSTORE PUSH1 0x4 ADD PUSH2 0x349 SWAP1 PUSH2 0xACC JUMP JUMPDEST PUSH1 0x40 MLOAD DUP1 SWAP2 SUB SWAP1 REVERT JUMPDEST PUSH0 PUSH20 0xFFFFFFFFFFFFFFFFFFFFFFFFFFFFFFFFFFFFFFFF AND DUP4 PUSH20 0xFFFFFFFFFFFFFFFFFFFFFFFFFFFFFFFFFFFFFFFF AND SUB PUSH2 0x3C0 JUMPI PUSH1 0x40 MLOAD PUSH32 0x8C379A000000000000000000000000000000000000000000000000000000000 DUP2 MSTORE PUSH1 0x4 ADD PUSH2 0x3B7 SWAP1 PUSH2 0xACC JUMP JUMPDEST PUSH1 0x40 MLOAD DUP1 SWAP2 SUB SWAP1 REVERT JUMPDEST DUP2 PUSH0 DUP1 DUP7 PUSH20 0xFFFFFFFFFFFFFFFFFFFFFFFFFFFFFFFFFFFFFFFF AND PUSH20 0xFFFFFFFFFFFFFFFFFFFFFFFFFFFFFFFFFFFFFFFF AND DUP2 MSTORE PUSH1 0x20 ADD SWAP1 DUP2 MSTORE PUSH1 0x20 ADD PUSH0 KECCAK256 SLOAD GT PUSH2 0x43E JUMPI PUSH1 0x40 MLOAD PUSH32 0x8C379A000000000000000000000000000000000000000000000000000000000 DUP2 MSTORE PUSH1 0x4 ADD PUSH2 0x435 SWAP1 PUSH2 0xB34 JUMP JUMPDEST PUSH1 0x40 MLOAD DUP1 SWAP2 SUB SWAP1 REVERT JUMPDEST DUP2 PUSH0 DUP1 DUP7 PUSH20 0xFFFFFFFFFFFFFFFFFFFFFFFFFFFFFFFFFFFFFFFF AND PUSH20 0xFFFFFFFFFFFFFFFFFFFFFFFFFFFFFFFFFFFFFFFF AND DUP2 MSTORE PUSH1 0x20 ADD SWAP1 DUP2 MSTORE PUSH1 0x20 ADD PUSH0 KECCAK256 PUSH0 DUP3 DUP3 SLOAD PUSH2 0x489 SWAP2 SWAP1 PUSH2 0xA4F JUMP JUMPDEST SWAP3 POP POP DUP2 SWAP1 SSTORE POP DUP2 PUSH0 DUP1 DUP6 PUSH20 0xFFFFFFFFFFFFFFFFFFFFFFFFFFFFFFFFFFFFFFFF AND PUSH20 0xFFFFFFFFFFFFFFFFFFFFFFFFFFFFFFFFFFFFFFFF AND DUP2 MSTORE PUSH1 0x20 ADD SWAP1 DUP2 MSTORE PUSH1 0x20 ADD PUSH0 KECCAK256 PUSH0 DUP3 DUP3 SLOAD PUSH2 0x4DB SWAP2 SWAP1 PUSH2 0xB52 JUMP JUMPDEST SWAP3 POP POP DUP2 SWAP1 SSTORE POP PUSH32 0xDDF252AD1BE2C89B69C2B068FC378DAA952BA7F163C4A11628F55A4DF523B3EF DUP5 DUP5 DUP5 PUSH1 0x40 MLOAD PUSH2 0x515 SWAP4 SWAP3 SWAP2 SWAP1 PUSH2 0xB94 JUMP JUMPDEST PUSH1 0x40 MLOAD DUP1 SWAP2 SUB SWAP1 LOG1 PUSH0 SWAP1 POP SWAP4 SWAP3 POP POP POP JUMP JUMPDEST PUSH0 PUSH1 0x1 PUSH0 DUP5 PUSH20 0xFFFFFFFFFFFFFFFFFFFFFFFFFFFFFFFFFFFFFFFF AND PUSH20 0xFFFFFFFFFFFFFFFFFFFFFFFFFFFFFFFFFFFFFFFF AND DUP2 MSTORE PUSH1 0x20 ADD SWAP1 DUP2 MSTORE PUSH1 0x20 ADD PUSH0 KECCAK256 PUSH0 DUP4 PUSH20 0xFFFFFFFFFFFFFFFFFFFFFFFFFFFFFFFFFFFFFFFF AND PUSH20 0xFFFFFFFFFFFFFFFFFFFFFFFFFFFFFFFFFFFFFFFF AND DUP2 MSTORE PUSH1 0x20 ADD SWAP1 DUP2 MSTORE PUSH1 0x20 ADD PUSH0 KECCAK256 SLOAD SWAP1 POP SWAP3 SWAP2 POP POP JUMP JUMPDEST PUSH0 DUP2 PUSH0 DUP1 CALLER PUSH20 0xFFFFFFFFFFFFFFFFFFFFFFFFFFFFFFFFFFFFFFFF AND PUSH20 0xFFFFFFFFFFFFFFFFFFFFFFFFFFFFFFFFFFFFFFFF AND DUP2 MSTORE PUSH1 0x20 ADD SWAP1 DUP2 MSTORE PUSH1 0x20 ADD PUSH0 KECCAK256 SLOAD GT PUSH2 0x628 JUMPI PUSH1 0x40 MLOAD PUSH32 0x8C379A000000000000000000000000000000000000000000000000000000000 DUP2 MSTORE PUSH1 0x4 ADD PUSH2 0x61F SWAP1 PUSH2 0xC13 JUMP JUMPDEST PUSH1 0x40 MLOAD DUP1 SWAP2 SUB SWAP1 REVERT JUMPDEST PUSH0 PUSH20 0xFFFFFFFFFFFFFFFFFFFFFFFFFFFFFFFFFFFFFFFF AND DUP4 PUSH20 0xFFFFFFFFFFFFFFFFFFFFFFFFFFFFFFFFFFFFFFFF AND SUB PUSH2 0x696 JUMPI PUSH1 0x40 MLOAD PUSH32 0x8C379A000000000000000000000000000000000000000000000000000000000 DUP2 MSTORE PUSH1 0x4 ADD PUSH2 0x68D SWAP1 PUSH2 0xACC JUMP JUMPDEST PUSH1 0x40 MLOAD DUP1 SWAP2 SUB SWAP1 REVERT JUMPDEST DUP2 PUSH1 0x1 PUSH0 CALLER PUSH20 0xFFFFFFFFFFFFFFFFFFFFFFFFFFFFFFFFFFFFFFFF AND PUSH20 0xFFFFFFFFFFFFFFFFFFFFFFFFFFFFFFFFFFFFFFFF AND DUP2 MSTORE PUSH1 0x20 ADD SWAP1 DUP2 MSTORE PUSH1 0x20 ADD PUSH0 KECCAK256 PUSH0 DUP6 PUSH20 0xFFFFFFFFFFFFFFFFFFFFFFFFFFFFFFFFFFFFFFFF AND PUSH20 0xFFFFFFFFFFFFFFFFFFFFFFFFFFFFFFFFFFFFFFFF AND DUP2 MSTORE PUSH1 0x20 ADD SWAP1 DUP2 MSTORE PUSH1 0x20 ADD PUSH0 KECCAK256 DUP2 SWAP1 SSTORE POP PUSH32 0x8C5BE1E5EBEC7D5BD14F71427D1E84F3DD0314C0F7B2291E5B200AC8C7C3B925 CALLER DUP5 DUP5 PUSH1 0x40 MLOAD PUSH2 0x746 SWAP4 SWAP3 SWAP2 SWAP1 PUSH2 0xB94 JUMP JUMPDEST PUSH1 0x40 MLOAD DUP1 SWAP2 SUB SWAP1 LOG1 PUSH1 0x1 SWAP1 POP SWAP3 SWAP2 POP POP JUMP JUMPDEST DUP1 PUSH0 DUP1 CALLER PUSH20 0xFFFFFFFFFFFFFFFFFFFFFFFFFFFFFFFFFFFFFFFF AND PUSH20 0xFFFFFFFFFFFFFFFFFFFFFFFFFFFFFFFFFFFFFFFF AND DUP2 MSTORE PUSH1 0x20 ADD SWAP1 DUP2 MSTORE PUSH1 0x20 ADD PUSH0 KECCAK256 DUP2 SWAP1 SSTORE POP POP JUMP JUMPDEST PUSH0 DUP1 REVERT JUMPDEST PUSH0 PUSH20 0xFFFFFFFFFFFFFFFFFFFFFFFFFFFFFFFFFFFFFFFF DUP3 AND SWAP1 POP SWAP2 SWAP1 POP JUMP JUMPDEST PUSH0 PUSH2 0x7C9 DUP3 PUSH2 0x7A0 JUMP JUMPDEST SWAP1 POP SWAP2 SWAP1 POP JUMP JUMPDEST PUSH2 0x7D9 DUP2 PUSH2 0x7BF JUMP JUMPDEST DUP2 EQ PUSH2 0x7E3 JUMPI PUSH0 DUP1 REVERT JUMPDEST POP JUMP JUMPDEST PUSH0 DUP2 CALLDATALOAD SWAP1 POP PUSH2 0x7F4 DUP2 PUSH2 0x7D0 JUMP JUMPDEST SWAP3 SWAP2 POP POP JUMP JUMPDEST PUSH0 DUP2 SWAP1 POP SWAP2 SWAP1 POP JUMP JUMPDEST PUSH2 0x80C DUP2 PUSH2 0x7FA JUMP JUMPDEST DUP2 EQ PUSH2 0x816 JUMPI PUSH0 DUP1 REVERT JUMPDEST POP JUMP JUMPDEST PUSH0 DUP2 CALLDATALOAD SWAP1 POP PUSH2 0x827 DUP2 PUSH2 0x803 JUMP JUMPDEST SWAP3 SWAP2 POP POP JUMP JUMPDEST PUSH0 DUP1 PUSH0 PUSH1 0x60 DUP5 DUP7 SUB SLT ISZERO PUSH2 0x844 JUMPI PUSH2 0x843 PUSH2 0x79C JUMP JUMPDEST JUMPDEST PUSH0 PUSH2 0x851 DUP7 DUP3 DUP8 ADD PUSH2 0x7E6 JUMP JUMPDEST SWAP4 POP POP PUSH1 0x20 PUSH2 0x862 DUP7 DUP3 DUP8 ADD PUSH2 0x7E6 JUMP JUMPDEST SWAP3 POP POP PUSH1 0x40 PUSH2 0x873 DUP7 DUP3 DUP8 ADD PUSH2 0x819 JUMP JUMPDEST SWAP2 POP POP SWAP3 POP SWAP3 POP SWAP3 JUMP JUMPDEST PUSH0 DUP2 ISZERO ISZERO SWAP1 POP SWAP2 SWAP1 POP JUMP JUMPDEST PUSH2 0x891 DUP2 PUSH2 0x87D JUMP JUMPDEST DUP3 MSTORE POP POP JUMP JUMPDEST PUSH0 PUSH1 0x20 DUP3 ADD SWAP1 POP PUSH2 0x8AA PUSH0 DUP4 ADD DUP5 PUSH2 0x888 JUMP JUMPDEST SWAP3 SWAP2 POP POP JUMP JUMPDEST PUSH0 PUSH1 0x20 DUP3 DUP5 SUB SLT ISZERO PUSH2 0x8C5 JUMPI PUSH2 0x8C4 PUSH2 0x79C JUMP JUMPDEST JUMPDEST PUSH0 PUSH2 0x8D2 DUP5 DUP3 DUP6 ADD PUSH2 0x7E6 JUMP JUMPDEST SWAP2 POP POP SWAP3 SWAP2 POP POP JUMP JUMPDEST PUSH2 0x8E4 DUP2 PUSH2 0x7FA JUMP JUMPDEST DUP3 MSTORE POP POP JUMP JUMPDEST PUSH0 PUSH1 0x20 DUP3 ADD SWAP1 POP PUSH2 0x8FD PUSH0 DUP4 ADD DUP5 PUSH2 0x8DB JUMP JUMPDEST SWAP3 SWAP2 POP POP JUMP JUMPDEST PUSH0 DUP1 PUSH1 0x40 DUP4 DUP6 SUB SLT ISZERO PUSH2 0x919 JUMPI PUSH2 0x918 PUSH2 0x79C JUMP JUMPDEST JUMPDEST PUSH0 PUSH2 0x926 DUP6 DUP3 DUP7 ADD PUSH2 0x7E6 JUMP JUMPDEST SWAP3 POP POP PUSH1 0x20 PUSH2 0x937 DUP6 DUP3 DUP7 ADD PUSH2 0x7E6 JUMP JUMPDEST SWAP2 POP POP SWAP3 POP SWAP3 SWAP1 POP JUMP JUMPDEST PUSH0 DUP1 PUSH1 0x40 DUP4 DUP6 SUB SLT ISZERO PUSH2 0x957 JUMPI PUSH2 0x956 PUSH2 0x79C JUMP JUMPDEST JUMPDEST PUSH0 PUSH2 0x964 DUP6 DUP3 DUP7 ADD PUSH2 0x7E6 JUMP JUMPDEST SWAP3 POP POP PUSH1 0x20 PUSH2 0x975 DUP6 DUP3 DUP7 ADD PUSH2 0x819 JUMP JUMPDEST SWAP2 POP POP SWAP3 POP SWAP3 SWAP1 POP JUMP JUMPDEST PUSH0 PUSH1 0x20 DUP3 DUP5 SUB SLT ISZERO PUSH2 0x994 JUMPI PUSH2 0x993 PUSH2 0x79C JUMP JUMPDEST JUMPDEST PUSH0 PUSH2 0x9A1 DUP5 DUP3 DUP6 ADD PUSH2 0x819 JUMP JUMPDEST SWAP2 POP POP SWAP3 SWAP2 POP POP JUMP JUMPDEST PUSH0 DUP3 DUP3 MSTORE PUSH1 0x20 DUP3 ADD SWAP1 POP SWAP3 SWAP2 POP POP JUMP JUMPDEST PUSH32 0x6E6F7420656E6F75676820616D6F756E74000000000000000000000000000000 PUSH0 DUP3 ADD MSTORE POP JUMP JUMPDEST PUSH0 PUSH2 0x9EE PUSH1 0x11 DUP4 PUSH2 0x9AA JUMP JUMPDEST SWAP2 POP PUSH2 0x9F9 DUP3 PUSH2 0x9BA JUMP JUMPDEST PUSH1 0x20 DUP3 ADD SWAP1 POP SWAP2 SWAP1 POP JUMP JUMPDEST PUSH0 PUSH1 0x20 DUP3 ADD SWAP1 POP DUP2 DUP2 SUB PUSH0 DUP4 ADD MSTORE PUSH2 0xA1B DUP2 PUSH2 0x9E2 JUMP JUMPDEST SWAP1 POP SWAP2 SWAP1 POP JUMP JUMPDEST PUSH32 0x4E487B7100000000000000000000000000000000000000000000000000000000 PUSH0 MSTORE PUSH1 0x11 PUSH1 0x4 MSTORE PUSH1 0x24 PUSH0 REVERT JUMPDEST PUSH0 PUSH2 0xA59 DUP3 PUSH2 0x7FA JUMP JUMPDEST SWAP2 POP PUSH2 0xA64 DUP4 PUSH2 0x7FA JUMP JUMPDEST SWAP3 POP DUP3 DUP3 SUB SWAP1 POP DUP2 DUP2 GT ISZERO PUSH2 0xA7C JUMPI PUSH2 0xA7B PUSH2 0xA22 JUMP JUMPDEST JUMPDEST SWAP3 SWAP2 POP POP JUMP JUMPDEST PUSH32 0x61646472657373206572726F7200000000000000000000000000000000000000 PUSH0 DUP3 ADD MSTORE POP JUMP JUMPDEST PUSH0 PUSH2 0xAB6 PUSH1 0xD DUP4 PUSH2 0x9AA JUMP JUMPDEST SWAP2 POP PUSH2 0xAC1 DUP3 PUSH2 0xA82 JUMP JUMPDEST PUSH1 0x20 DUP3 ADD SWAP1 POP SWAP2 SWAP1 POP JUMP JUMPDEST PUSH0 PUSH1 0x20 DUP3 ADD SWAP1 POP DUP2 DUP2 SUB PUSH0 DUP4 ADD MSTORE PUSH2 0xAE3 DUP2 PUSH2 0xAAA JUMP JUMPDEST SWAP1 POP SWAP2 SWAP1 POP JUMP JUMPDEST PUSH32 0x6E6F7420656E6F75676800000000000000000000000000000000000000000000 PUSH0 DUP3 ADD MSTORE POP JUMP JUMPDEST PUSH0 PUSH2 0xB1E PUSH1 0xA DUP4 PUSH2 0x9AA JUMP JUMPDEST SWAP2 POP PUSH2 0xB29 DUP3 PUSH2 0xAEA JUMP JUMPDEST PUSH1 0x20 DUP3 ADD SWAP1 POP SWAP2 SWAP1 POP JUMP JUMPDEST PUSH0 PUSH1 0x20 DUP3 ADD SWAP1 POP DUP2 DUP2 SUB PUSH0 DUP4 ADD MSTORE PUSH2 0xB4B DUP2 PUSH2 0xB12 JUMP JUMPDEST SWAP1 POP SWAP2 SWAP1 POP JUMP JUMPDEST PUSH0 PUSH2 0xB5C DUP3 PUSH2 0x7FA JUMP JUMPDEST SWAP2 POP PUSH2 0xB67 DUP4 PUSH2 0x7FA JUMP JUMPDEST SWAP3 POP DUP3 DUP3 ADD SWAP1 POP DUP1 DUP3 GT ISZERO PUSH2 0xB7F JUMPI PUSH2 0xB7E PUSH2 0xA22 JUMP JUMPDEST JUMPDEST SWAP3 SWAP2 POP POP JUMP JUMPDEST PUSH2 0xB8E DUP2 PUSH2 0x7BF JUMP JUMPDEST DUP3 MSTORE POP POP JUMP JUMPDEST PUSH0 PUSH1 0x60 DUP3 ADD SWAP1 POP PUSH2 0xBA7 PUSH0 DUP4 ADD DUP7 PUSH2 0xB85 JUMP JUMPDEST PUSH2 0xBB4 PUSH1 0x20 DUP4 ADD DUP6 PUSH2 0xB85 JUMP JUMPDEST PUSH2 0xBC1 PUSH1 0x40 DUP4 ADD DUP5 PUSH2 0x8DB JUMP JUMPDEST SWAP5 SWAP4 POP POP POP POP JUMP JUMPDEST PUSH32 0x6E6F7420656E6F7567682062616C616E63650000000000000000000000000000 PUSH0 DUP3 ADD MSTORE POP JUMP JUMPDEST PUSH0 PUSH2 0xBFD PUSH1 0x12 DUP4 PUSH2 0x9AA JUMP JUMPDEST SWAP2 POP PUSH2 0xC08 DUP3 PUSH2 0xBC9 JUMP JUMPDEST PUSH1 0x20 DUP3 ADD SWAP1 POP SWAP2 SWAP1 POP JUMP JUMPDEST PUSH0 PUSH1 0x20 DUP3 ADD SWAP1 POP DUP2 DUP2 SUB PUSH0 DUP4 ADD MSTORE PUSH2 0xC2A DUP2 PUSH2 0xBF1 JUMP JUMPDEST SWAP1 POP SWAP2 SWAP1 POP JUMP INVALID LOG2 PUSH5 0x6970667358 0x22 SLT KECCAK256 PUSH2 0xBD99 TSTORE PUSH14 0xF850364A23C71B7B2F66CEEBAB90 LOG4 EXTCODEHASH PUSH30 0x7DE5CBD4D466B88B3C7C64736F6C634300081A0033000000000000000000 "
				},
				"gasEstimates": {
					"creation": {
						"codeDepositCost": "184200",
						"executionCost": "infinite",
						"totalCost": "infinite"
					},
					"external": {
						"example()": "infinite",
						"getBalancesByAddress()": "infinite"
					}
				},
				"methodIdentifiers": {
					"example()": "54353f2f",
					"getBalancesByAddress()": "416a06d9"
				}
			},
			"storageLayout": {
				"storage": [
					{
						"astId": 208,
						"contract": "contracts/19_MappingExample.sol:MappingUser",
						"label": "example",
						"offset": 0,
						"slot": "0",
						"type": "t_contract(MappingExample)205"
					}
				],
				"types": {
					"t_contract(MappingExample)205": {
						"encoding": "inplace",
						"label": "contract MappingExample",
						"numberOfBytes": "20"
					}
				}
			},
			"userdoc": {
				"kind": "user",
				"methods": {},
				"version": 1
			}
		}
	}
}