{
	"contracts/19_MappingExample.sol": {
		"C": {
			"abi": [
				{
					"inputs": [
						{
							"internalType": "bytes",
							"name": "c",
							"type": "bytes"
						},
						{
							"internalType": "bytes",
							"name": "m",
							"type": "bytes"
						}
					],
					"name": "f",
					"outputs": [
						{
							"internalType": "bytes16",
							"name": "",
							"type": "bytes16"
						},
						{
							"internalType": "bytes3",
							"name": "",
							"type": "bytes3"
						}
					],
					"stateMutability": "view",
					"type": "function"
				}
			],
			"devdoc": {
				"kind": "dev",
				"methods": {},
				"version": 1
			},
			"evm": {
				"assembly": "    /* \"contracts/19_MappingExample.sol\":2029:2521  contract C {... */\n  mstore(0x40, 0x80)\n    /* \"contracts/19_MappingExample.sol\":2046:2066  bytes s = \"abcdefgh\" */\n  mload(0x40)\n  dup1\n  0x40\n  add\n  0x40\n  mstore\n  dup1\n  0x08\n  dup2\n  mstore\n  0x20\n  add\n  0x6162636465666768000000000000000000000000000000000000000000000000\n  dup2\n  mstore\n  pop\n  0x00\n  swap1\n  dup2\n  tag_1\n  swap2\n  swap1\n  tag_2\n  jump\t// in\ntag_1:\n  pop\n    /* \"contracts/19_MappingExample.sol\":2029:2521  contract C {... */\n  callvalue\n  dup1\n  iszero\n  tag_3\n  jumpi\n  0x00\n  dup1\n  revert\ntag_3:\n  pop\n  jump(tag_4)\n    /* \"#utility.yul\":7:106   */\ntag_5:\n    /* \"#utility.yul\":59:65   */\n  0x00\n    /* \"#utility.yul\":93:98   */\n  dup2\n    /* \"#utility.yul\":87:99   */\n  mload\n    /* \"#utility.yul\":77:99   */\n  swap1\n  pop\n    /* \"#utility.yul\":7:106   */\n  swap2\n  swap1\n  pop\n  jump\t// out\n    /* \"#utility.yul\":112:292   */\ntag_6:\n    /* \"#utility.yul\":160:237   */\n  0x4e487b7100000000000000000000000000000000000000000000000000000000\n    /* \"#utility.yul\":157:158   */\n  0x00\n    /* \"#utility.yul\":150:238   */\n  mstore\n    /* \"#utility.yul\":257:261   */\n  0x41\n    /* \"#utility.yul\":254:255   */\n  0x04\n    /* \"#utility.yul\":247:262   */\n  mstore\n    /* \"#utility.yul\":281:285   */\n  0x24\n    /* \"#utility.yul\":278:279   */\n  0x00\n    /* \"#utility.yul\":271:286   */\n  revert\n    /* \"#utility.yul\":298:478   */\ntag_7:\n    /* \"#utility.yul\":346:423   */\n  0x4e487b7100000000000000000000000000000000000000000000000000000000\n    /* \"#utility.yul\":343:344   */\n  0x00\n    /* \"#utility.yul\":336:424   */\n  mstore\n    /* \"#utility.yul\":443:447   */\n  0x22\n    /* \"#utility.yul\":440:441   */\n  0x04\n    /* \"#utility.yul\":433:448   */\n  mstore\n    /* \"#utility.yul\":467:471   */\n  0x24\n    /* \"#utility.yul\":464:465   */\n  0x00\n    /* \"#utility.yul\":457:472   */\n  revert\n    /* \"#utility.yul\":484:804   */\ntag_8:\n    /* \"#utility.yul\":528:534   */\n  0x00\n    /* \"#utility.yul\":565:566   */\n  0x02\n    /* \"#utility.yul\":559:563   */\n  dup3\n    /* \"#utility.yul\":555:567   */\n  div\n    /* \"#utility.yul\":545:567   */\n  swap1\n  pop\n    /* \"#utility.yul\":612:613   */\n  0x01\n    /* \"#utility.yul\":606:610   */\n  dup3\n    /* \"#utility.yul\":602:614   */\n  and\n    /* \"#utility.yul\":633:651   */\n  dup1\n    /* \"#utility.yul\":623:704   */\n  tag_30\n  jumpi\n    /* \"#utility.yul\":689:693   */\n  0x7f\n    /* \"#utility.yul\":681:687   */\n  dup3\n    /* \"#utility.yul\":677:694   */\n  and\n    /* \"#utility.yul\":667:694   */\n  swap2\n  pop\n    /* \"#utility.yul\":623:704   */\ntag_30:\n    /* \"#utility.yul\":751:753   */\n  0x20\n    /* \"#utility.yul\":743:749   */\n  dup3\n    /* \"#utility.yul\":740:754   */\n  lt\n    /* \"#utility.yul\":720:738   */\n  dup2\n    /* \"#utility.yul\":717:755   */\n  sub\n    /* \"#utility.yul\":714:798   */\n  tag_31\n  jumpi\n    /* \"#utility.yul\":770:788   */\n  tag_32\n  tag_7\n  jump\t// in\ntag_32:\n    /* \"#utility.yul\":714:798   */\ntag_31:\n    /* \"#utility.yul\":535:804   */\n  pop\n    /* \"#utility.yul\":484:804   */\n  swap2\n  swap1\n  pop\n  jump\t// out\n    /* \"#utility.yul\":810:950   */\ntag_9:\n    /* \"#utility.yul\":858:862   */\n  0x00\n    /* \"#utility.yul\":881:884   */\n  dup2\n    /* \"#utility.yul\":873:884   */\n  swap1\n  pop\n    /* \"#utility.yul\":904:907   */\n  dup2\n    /* \"#utility.yul\":901:902   */\n  0x00\n    /* \"#utility.yul\":894:908   */\n  mstore\n    /* \"#utility.yul\":938:942   */\n  0x20\n    /* \"#utility.yul\":935:936   */\n  0x00\n    /* \"#utility.yul\":925:943   */\n  keccak256\n    /* \"#utility.yul\":917:943   */\n  swap1\n  pop\n    /* \"#utility.yul\":810:950   */\n  swap2\n  swap1\n  pop\n  jump\t// out\n    /* \"#utility.yul\":956:1049   */\ntag_10:\n    /* \"#utility.yul\":993:999   */\n  0x00\n    /* \"#utility.yul\":1040:1042   */\n  0x20\n    /* \"#utility.yul\":1035:1037   */\n  0x1f\n    /* \"#utility.yul\":1028:1033   */\n  dup4\n    /* \"#utility.yul\":1024:1038   */\n  add\n    /* \"#utility.yul\":1020:1043   */\n  div\n    /* \"#utility.yul\":1010:1043   */\n  swap1\n  pop\n    /* \"#utility.yul\":956:1049   */\n  swap2\n  swap1\n  pop\n  jump\t// out\n    /* \"#utility.yul\":1055:1162   */\ntag_11:\n    /* \"#utility.yul\":1099:1107   */\n  0x00\n    /* \"#utility.yul\":1149:1154   */\n  dup3\n    /* \"#utility.yul\":1143:1147   */\n  dup3\n    /* \"#utility.yul\":1139:1155   */\n  shl\n    /* \"#utility.yul\":1118:1155   */\n  swap1\n  pop\n    /* \"#utility.yul\":1055:1162   */\n  swap3\n  swap2\n  pop\n  pop\n  jump\t// out\n    /* \"#utility.yul\":1168:1561   */\ntag_12:\n    /* \"#utility.yul\":1237:1243   */\n  0x00\n    /* \"#utility.yul\":1287:1288   */\n  0x08\n    /* \"#utility.yul\":1275:1285   */\n  dup4\n    /* \"#utility.yul\":1271:1289   */\n  mul\n    /* \"#utility.yul\":1310:1407   */\n  tag_37\n    /* \"#utility.yul\":1340:1406   */\n  0xffffffffffffffffffffffffffffffffffffffffffffffffffffffffffffffff\n    /* \"#utility.yul\":1329:1338   */\n  dup3\n    /* \"#utility.yul\":1310:1407   */\n  tag_11\n  jump\t// in\ntag_37:\n    /* \"#utility.yul\":1428:1467   */\n  tag_38\n    /* \"#utility.yul\":1458:1466   */\n  dup7\n    /* \"#utility.yul\":1447:1456   */\n  dup4\n    /* \"#utility.yul\":1428:1467   */\n  tag_11\n  jump\t// in\ntag_38:\n    /* \"#utility.yul\":1416:1467   */\n  swap6\n  pop\n    /* \"#utility.yul\":1500:1504   */\n  dup1\n    /* \"#utility.yul\":1496:1505   */\n  not\n    /* \"#utility.yul\":1489:1494   */\n  dup5\n    /* \"#utility.yul\":1485:1506   */\n  and\n    /* \"#utility.yul\":1476:1506   */\n  swap4\n  pop\n    /* \"#utility.yul\":1549:1553   */\n  dup1\n    /* \"#utility.yul\":1539:1547   */\n  dup7\n    /* \"#utility.yul\":1535:1554   */\n  and\n    /* \"#utility.yul\":1528:1533   */\n  dup5\n    /* \"#utility.yul\":1525:1555   */\n  or\n    /* \"#utility.yul\":1515:1555   */\n  swap3\n  pop\n    /* \"#utility.yul\":1244:1561   */\n  pop\n  pop\n    /* \"#utility.yul\":1168:1561   */\n  swap4\n  swap3\n  pop\n  pop\n  pop\n  jump\t// out\n    /* \"#utility.yul\":1567:1644   */\ntag_13:\n    /* \"#utility.yul\":1604:1611   */\n  0x00\n    /* \"#utility.yul\":1633:1638   */\n  dup2\n    /* \"#utility.yul\":1622:1638   */\n  swap1\n  pop\n    /* \"#utility.yul\":1567:1644   */\n  swap2\n  swap1\n  pop\n  jump\t// out\n    /* \"#utility.yul\":1650:1710   */\ntag_14:\n    /* \"#utility.yul\":1678:1681   */\n  0x00\n    /* \"#utility.yul\":1699:1704   */\n  dup2\n    /* \"#utility.yul\":1692:1704   */\n  swap1\n  pop\n    /* \"#utility.yul\":1650:1710   */\n  swap2\n  swap1\n  pop\n  jump\t// out\n    /* \"#utility.yul\":1716:1858   */\ntag_15:\n    /* \"#utility.yul\":1766:1775   */\n  0x00\n    /* \"#utility.yul\":1799:1852   */\n  tag_42\n    /* \"#utility.yul\":1817:1851   */\n  tag_43\n    /* \"#utility.yul\":1826:1850   */\n  tag_44\n    /* \"#utility.yul\":1844:1849   */\n  dup5\n    /* \"#utility.yul\":1826:1850   */\n  tag_13\n  jump\t// in\ntag_44:\n    /* \"#utility.yul\":1817:1851   */\n  tag_14\n  jump\t// in\ntag_43:\n    /* \"#utility.yul\":1799:1852   */\n  tag_13\n  jump\t// in\ntag_42:\n    /* \"#utility.yul\":1786:1852   */\n  swap1\n  pop\n    /* \"#utility.yul\":1716:1858   */\n  swap2\n  swap1\n  pop\n  jump\t// out\n    /* \"#utility.yul\":1864:1939   */\ntag_16:\n    /* \"#utility.yul\":1907:1910   */\n  0x00\n    /* \"#utility.yul\":1928:1933   */\n  dup2\n    /* \"#utility.yul\":1921:1933   */\n  swap1\n  pop\n    /* \"#utility.yul\":1864:1939   */\n  swap2\n  swap1\n  pop\n  jump\t// out\n    /* \"#utility.yul\":1945:2214   */\ntag_17:\n    /* \"#utility.yul\":2055:2094   */\n  tag_47\n    /* \"#utility.yul\":2086:2093   */\n  dup4\n    /* \"#utility.yul\":2055:2094   */\n  tag_15\n  jump\t// in\ntag_47:\n    /* \"#utility.yul\":2116:2207   */\n  tag_48\n    /* \"#utility.yul\":2165:2206   */\n  tag_49\n    /* \"#utility.yul\":2189:2205   */\n  dup3\n    /* \"#utility.yul\":2165:2206   */\n  tag_16\n  jump\t// in\ntag_49:\n    /* \"#utility.yul\":2157:2163   */\n  dup5\n    /* \"#utility.yul\":2150:2154   */\n  dup5\n    /* \"#utility.yul\":2144:2155   */\n  sload\n    /* \"#utility.yul\":2116:2207   */\n  tag_12\n  jump\t// in\ntag_48:\n    /* \"#utility.yul\":2110:2114   */\n  dup3\n    /* \"#utility.yul\":2103:2208   */\n  sstore\n    /* \"#utility.yul\":2021:2214   */\n  pop\n    /* \"#utility.yul\":1945:2214   */\n  pop\n  pop\n  pop\n  jump\t// out\n    /* \"#utility.yul\":2220:2293   */\ntag_18:\n    /* \"#utility.yul\":2265:2268   */\n  0x00\n    /* \"#utility.yul\":2220:2293   */\n  swap1\n  jump\t// out\n    /* \"#utility.yul\":2299:2488   */\ntag_19:\n    /* \"#utility.yul\":2376:2408   */\n  tag_52\n  tag_18\n  jump\t// in\ntag_52:\n    /* \"#utility.yul\":2417:2482   */\n  tag_53\n    /* \"#utility.yul\":2475:2481   */\n  dup2\n    /* \"#utility.yul\":2467:2473   */\n  dup5\n    /* \"#utility.yul\":2461:2465   */\n  dup5\n    /* \"#utility.yul\":2417:2482   */\n  tag_17\n  jump\t// in\ntag_53:\n    /* \"#utility.yul\":2352:2488   */\n  pop\n    /* \"#utility.yul\":2299:2488   */\n  pop\n  pop\n  jump\t// out\n    /* \"#utility.yul\":2494:2680   */\ntag_20:\n    /* \"#utility.yul\":2554:2674   */\ntag_55:\n    /* \"#utility.yul\":2571:2574   */\n  dup2\n    /* \"#utility.yul\":2564:2569   */\n  dup2\n    /* \"#utility.yul\":2561:2575   */\n  lt\n    /* \"#utility.yul\":2554:2674   */\n  iszero\n  tag_57\n  jumpi\n    /* \"#utility.yul\":2625:2664   */\n  tag_58\n    /* \"#utility.yul\":2662:2663   */\n  0x00\n    /* \"#utility.yul\":2655:2660   */\n  dup3\n    /* \"#utility.yul\":2625:2664   */\n  tag_19\n  jump\t// in\ntag_58:\n    /* \"#utility.yul\":2598:2599   */\n  0x01\n    /* \"#utility.yul\":2591:2596   */\n  dup2\n    /* \"#utility.yul\":2587:2600   */\n  add\n    /* \"#utility.yul\":2578:2600   */\n  swap1\n  pop\n    /* \"#utility.yul\":2554:2674   */\n  jump(tag_55)\ntag_57:\n    /* \"#utility.yul\":2494:2680   */\n  pop\n  pop\n  jump\t// out\n    /* \"#utility.yul\":2686:3227   */\ntag_21:\n    /* \"#utility.yul\":2786:2788   */\n  0x1f\n    /* \"#utility.yul\":2781:2784   */\n  dup3\n    /* \"#utility.yul\":2778:2789   */\n  gt\n    /* \"#utility.yul\":2775:3220   */\n  iszero\n  tag_60\n  jumpi\n    /* \"#utility.yul\":2820:2857   */\n  tag_61\n    /* \"#utility.yul\":2851:2856   */\n  dup2\n    /* \"#utility.yul\":2820:2857   */\n  tag_9\n  jump\t// in\ntag_61:\n    /* \"#utility.yul\":2903:2932   */\n  tag_62\n    /* \"#utility.yul\":2921:2931   */\n  dup5\n    /* \"#utility.yul\":2903:2932   */\n  tag_10\n  jump\t// in\ntag_62:\n    /* \"#utility.yul\":2893:2901   */\n  dup2\n    /* \"#utility.yul\":2889:2933   */\n  add\n    /* \"#utility.yul\":3086:3088   */\n  0x20\n    /* \"#utility.yul\":3074:3084   */\n  dup6\n    /* \"#utility.yul\":3071:3089   */\n  lt\n    /* \"#utility.yul\":3068:3117   */\n  iszero\n  tag_63\n  jumpi\n    /* \"#utility.yul\":3107:3115   */\n  dup2\n    /* \"#utility.yul\":3092:3115   */\n  swap1\n  pop\n    /* \"#utility.yul\":3068:3117   */\ntag_63:\n    /* \"#utility.yul\":3130:3210   */\n  tag_64\n    /* \"#utility.yul\":3186:3208   */\n  tag_65\n    /* \"#utility.yul\":3204:3207   */\n  dup6\n    /* \"#utility.yul\":3186:3208   */\n  tag_10\n  jump\t// in\ntag_65:\n    /* \"#utility.yul\":3176:3184   */\n  dup4\n    /* \"#utility.yul\":3172:3209   */\n  add\n    /* \"#utility.yul\":3159:3170   */\n  dup3\n    /* \"#utility.yul\":3130:3210   */\n  tag_20\n  jump\t// in\ntag_64:\n    /* \"#utility.yul\":2790:3220   */\n  pop\n  pop\n    /* \"#utility.yul\":2775:3220   */\ntag_60:\n    /* \"#utility.yul\":2686:3227   */\n  pop\n  pop\n  pop\n  jump\t// out\n    /* \"#utility.yul\":3233:3350   */\ntag_22:\n    /* \"#utility.yul\":3287:3295   */\n  0x00\n    /* \"#utility.yul\":3337:3342   */\n  dup3\n    /* \"#utility.yul\":3331:3335   */\n  dup3\n    /* \"#utility.yul\":3327:3343   */\n  shr\n    /* \"#utility.yul\":3306:3343   */\n  swap1\n  pop\n    /* \"#utility.yul\":3233:3350   */\n  swap3\n  swap2\n  pop\n  pop\n  jump\t// out\n    /* \"#utility.yul\":3356:3525   */\ntag_23:\n    /* \"#utility.yul\":3400:3406   */\n  0x00\n    /* \"#utility.yul\":3433:3484   */\n  tag_68\n    /* \"#utility.yul\":3481:3482   */\n  0x00\n    /* \"#utility.yul\":3477:3483   */\n  not\n    /* \"#utility.yul\":3469:3474   */\n  dup5\n    /* \"#utility.yul\":3466:3467   */\n  0x08\n    /* \"#utility.yul\":3462:3475   */\n  mul\n    /* \"#utility.yul\":3433:3484   */\n  tag_22\n  jump\t// in\ntag_68:\n    /* \"#utility.yul\":3429:3485   */\n  not\n    /* \"#utility.yul\":3514:3518   */\n  dup1\n    /* \"#utility.yul\":3508:3512   */\n  dup4\n    /* \"#utility.yul\":3504:3519   */\n  and\n    /* \"#utility.yul\":3494:3519   */\n  swap2\n  pop\n    /* \"#utility.yul\":3407:3525   */\n  pop\n    /* \"#utility.yul\":3356:3525   */\n  swap3\n  swap2\n  pop\n  pop\n  jump\t// out\n    /* \"#utility.yul\":3530:3825   */\ntag_24:\n    /* \"#utility.yul\":3606:3610   */\n  0x00\n    /* \"#utility.yul\":3752:3781   */\n  tag_70\n    /* \"#utility.yul\":3777:3780   */\n  dup4\n    /* \"#utility.yul\":3771:3775   */\n  dup4\n    /* \"#utility.yul\":3752:3781   */\n  tag_23\n  jump\t// in\ntag_70:\n    /* \"#utility.yul\":3744:3781   */\n  swap2\n  pop\n    /* \"#utility.yul\":3814:3817   */\n  dup3\n    /* \"#utility.yul\":3811:3812   */\n  0x02\n    /* \"#utility.yul\":3807:3818   */\n  mul\n    /* \"#utility.yul\":3801:3805   */\n  dup3\n    /* \"#utility.yul\":3798:3819   */\n  or\n    /* \"#utility.yul\":3790:3819   */\n  swap1\n  pop\n    /* \"#utility.yul\":3530:3825   */\n  swap3\n  swap2\n  pop\n  pop\n  jump\t// out\n    /* \"#utility.yul\":3830:5222   */\ntag_2:\n    /* \"#utility.yul\":3946:3983   */\n  tag_72\n    /* \"#utility.yul\":3979:3982   */\n  dup3\n    /* \"#utility.yul\":3946:3983   */\n  tag_5\n  jump\t// in\ntag_72:\n    /* \"#utility.yul\":4048:4066   */\n  0xffffffffffffffff\n    /* \"#utility.yul\":4040:4046   */\n  dup2\n    /* \"#utility.yul\":4037:4067   */\n  gt\n    /* \"#utility.yul\":4034:4090   */\n  iszero\n  tag_73\n  jumpi\n    /* \"#utility.yul\":4070:4088   */\n  tag_74\n  tag_6\n  jump\t// in\ntag_74:\n    /* \"#utility.yul\":4034:4090   */\ntag_73:\n    /* \"#utility.yul\":4114:4152   */\n  tag_75\n    /* \"#utility.yul\":4146:4150   */\n  dup3\n    /* \"#utility.yul\":4140:4151   */\n  sload\n    /* \"#utility.yul\":4114:4152   */\n  tag_8\n  jump\t// in\ntag_75:\n    /* \"#utility.yul\":4199:4265   */\n  tag_76\n    /* \"#utility.yul\":4258:4264   */\n  dup3\n    /* \"#utility.yul\":4250:4256   */\n  dup3\n    /* \"#utility.yul\":4244:4248   */\n  dup6\n    /* \"#utility.yul\":4199:4265   */\n  tag_21\n  jump\t// in\ntag_76:\n    /* \"#utility.yul\":4292:4293   */\n  0x00\n    /* \"#utility.yul\":4316:4320   */\n  0x20\n    /* \"#utility.yul\":4303:4320   */\n  swap1\n  pop\n    /* \"#utility.yul\":4348:4350   */\n  0x1f\n    /* \"#utility.yul\":4340:4346   */\n  dup4\n    /* \"#utility.yul\":4337:4351   */\n  gt\n    /* \"#utility.yul\":4365:4366   */\n  0x01\n    /* \"#utility.yul\":4360:4977   */\n  dup2\n  eq\n  tag_78\n  jumpi\n    /* \"#utility.yul\":5021:5022   */\n  0x00\n    /* \"#utility.yul\":5038:5044   */\n  dup5\n    /* \"#utility.yul\":5035:5112   */\n  iszero\n  tag_79\n  jumpi\n    /* \"#utility.yul\":5087:5096   */\n  dup3\n    /* \"#utility.yul\":5082:5085   */\n  dup8\n    /* \"#utility.yul\":5078:5097   */\n  add\n    /* \"#utility.yul\":5072:5098   */\n  mload\n    /* \"#utility.yul\":5063:5098   */\n  swap1\n  pop\n    /* \"#utility.yul\":5035:5112   */\ntag_79:\n    /* \"#utility.yul\":5138:5205   */\n  tag_80\n    /* \"#utility.yul\":5198:5204   */\n  dup6\n    /* \"#utility.yul\":5191:5196   */\n  dup3\n    /* \"#utility.yul\":5138:5205   */\n  tag_24\n  jump\t// in\ntag_80:\n    /* \"#utility.yul\":5132:5136   */\n  dup7\n    /* \"#utility.yul\":5125:5206   */\n  sstore\n    /* \"#utility.yul\":4994:5216   */\n  pop\n    /* \"#utility.yul\":4330:5216   */\n  jump(tag_77)\n    /* \"#utility.yul\":4360:4977   */\ntag_78:\n    /* \"#utility.yul\":4412:4416   */\n  0x1f\n    /* \"#utility.yul\":4408:4417   */\n  not\n    /* \"#utility.yul\":4400:4406   */\n  dup5\n    /* \"#utility.yul\":4396:4418   */\n  and\n    /* \"#utility.yul\":4446:4482   */\n  tag_81\n    /* \"#utility.yul\":4477:4481   */\n  dup7\n    /* \"#utility.yul\":4446:4482   */\n  tag_9\n  jump\t// in\ntag_81:\n    /* \"#utility.yul\":4504:4505   */\n  0x00\n    /* \"#utility.yul\":4518:4726   */\ntag_82:\n    /* \"#utility.yul\":4532:4539   */\n  dup3\n    /* \"#utility.yul\":4529:4530   */\n  dup2\n    /* \"#utility.yul\":4526:4540   */\n  lt\n    /* \"#utility.yul\":4518:4726   */\n  iszero\n  tag_84\n  jumpi\n    /* \"#utility.yul\":4611:4620   */\n  dup5\n    /* \"#utility.yul\":4606:4609   */\n  dup10\n    /* \"#utility.yul\":4602:4621   */\n  add\n    /* \"#utility.yul\":4596:4622   */\n  mload\n    /* \"#utility.yul\":4588:4594   */\n  dup3\n    /* \"#utility.yul\":4581:4623   */\n  sstore\n    /* \"#utility.yul\":4662:4663   */\n  0x01\n    /* \"#utility.yul\":4654:4660   */\n  dup3\n    /* \"#utility.yul\":4650:4664   */\n  add\n    /* \"#utility.yul\":4640:4664   */\n  swap2\n  pop\n    /* \"#utility.yul\":4709:4711   */\n  0x20\n    /* \"#utility.yul\":4698:4707   */\n  dup6\n    /* \"#utility.yul\":4694:4712   */\n  add\n    /* \"#utility.yul\":4681:4712   */\n  swap5\n  pop\n    /* \"#utility.yul\":4555:4559   */\n  0x20\n    /* \"#utility.yul\":4552:4553   */\n  dup2\n    /* \"#utility.yul\":4548:4560   */\n  add\n    /* \"#utility.yul\":4543:4560   */\n  swap1\n  pop\n    /* \"#utility.yul\":4518:4726   */\n  jump(tag_82)\ntag_84:\n    /* \"#utility.yul\":4754:4760   */\n  dup7\n    /* \"#utility.yul\":4745:4752   */\n  dup4\n    /* \"#utility.yul\":4742:4761   */\n  lt\n    /* \"#utility.yul\":4739:4918   */\n  iszero\n  tag_85\n  jumpi\n    /* \"#utility.yul\":4812:4821   */\n  dup5\n    /* \"#utility.yul\":4807:4810   */\n  dup10\n    /* \"#utility.yul\":4803:4822   */\n  add\n    /* \"#utility.yul\":4797:4823   */\n  mload\n    /* \"#utility.yul\":4855:4903   */\n  tag_86\n    /* \"#utility.yul\":4897:4901   */\n  0x1f\n    /* \"#utility.yul\":4889:4895   */\n  dup10\n    /* \"#utility.yul\":4885:4902   */\n  and\n    /* \"#utility.yul\":4874:4883   */\n  dup3\n    /* \"#utility.yul\":4855:4903   */\n  tag_23\n  jump\t// in\ntag_86:\n    /* \"#utility.yul\":4847:4853   */\n  dup4\n    /* \"#utility.yul\":4840:4904   */\n  sstore\n    /* \"#utility.yul\":4762:4918   */\n  pop\n    /* \"#utility.yul\":4739:4918   */\ntag_85:\n    /* \"#utility.yul\":4964:4965   */\n  0x01\n    /* \"#utility.yul\":4960:4961   */\n  0x02\n    /* \"#utility.yul\":4952:4958   */\n  dup9\n    /* \"#utility.yul\":4948:4962   */\n  mul\n    /* \"#utility.yul\":4944:4966   */\n  add\n    /* \"#utility.yul\":4938:4942   */\n  dup9\n    /* \"#utility.yul\":4931:4967   */\n  sstore\n    /* \"#utility.yul\":4367:4977   */\n  pop\n  pop\n  pop\n    /* \"#utility.yul\":4330:5216   */\ntag_77:\n  pop\n    /* \"#utility.yul\":3921:5222   */\n  pop\n  pop\n  pop\n    /* \"#utility.yul\":3830:5222   */\n  pop\n  pop\n  jump\t// out\n    /* \"contracts/19_MappingExample.sol\":2029:2521  contract C {... */\ntag_4:\n  dataSize(sub_0)\n  dup1\n  dataOffset(sub_0)\n  0x00\n  codecopy\n  0x00\n  return\nstop\n\nsub_0: assembly {\n        /* \"contracts/19_MappingExample.sol\":2029:2521  contract C {... */\n      mstore(0x40, 0x80)\n      callvalue\n      dup1\n      iszero\n      tag_1\n      jumpi\n      0x00\n      dup1\n      revert\n    tag_1:\n      pop\n      jumpi(tag_2, lt(calldatasize, 0x04))\n      shr(0xe0, calldataload(0x00))\n      dup1\n      0xfa0a346f\n      eq\n      tag_3\n      jumpi\n    tag_2:\n      0x00\n      dup1\n      revert\n        /* \"contracts/19_MappingExample.sol\":2072:2519  function f(bytes calldata c, bytes memory m) public view returns (bytes16, bytes3) {... */\n    tag_3:\n      tag_4\n      0x04\n      dup1\n      calldatasize\n      sub\n      dup2\n      add\n      swap1\n      tag_5\n      swap2\n      swap1\n      tag_6\n      jump\t// in\n    tag_5:\n      tag_7\n      jump\t// in\n    tag_4:\n      mload(0x40)\n      tag_8\n      swap3\n      swap2\n      swap1\n      tag_9\n      jump\t// in\n    tag_8:\n      mload(0x40)\n      dup1\n      swap2\n      sub\n      swap1\n      return\n    tag_7:\n        /* \"contracts/19_MappingExample.sol\":2138:2145  bytes16 */\n      0x00\n        /* \"contracts/19_MappingExample.sol\":2147:2153  bytes3 */\n      dup1\n        /* \"contracts/19_MappingExample.sol\":2185:2187  16 */\n      0x10\n        /* \"contracts/19_MappingExample.sol\":2173:2174  c */\n      dup6\n      dup6\n        /* \"contracts/19_MappingExample.sol\":2173:2181  c.length */\n      swap1\n      pop\n        /* \"contracts/19_MappingExample.sol\":2173:2187  c.length == 16 */\n      eq\n        /* \"contracts/19_MappingExample.sol\":2165:2192  require(c.length == 16, \"\") */\n      tag_11\n      jumpi\n      mload(0x40)\n      0x08c379a000000000000000000000000000000000000000000000000000000000\n      dup2\n      mstore\n      0x04\n      add\n      tag_12\n      swap1\n      tag_13\n      jump\t// in\n    tag_12:\n      mload(0x40)\n      dup1\n      swap2\n      sub\n      swap1\n      revert\n    tag_11:\n        /* \"contracts/19_MappingExample.sol\":2202:2211  bytes16 b */\n      0x00\n        /* \"contracts/19_MappingExample.sol\":2222:2223  m */\n      dup4\n        /* \"contracts/19_MappingExample.sol\":2214:2224  bytes16(m) */\n      tag_14\n      swap1\n      tag_15\n      jump\t// in\n    tag_14:\n        /* \"contracts/19_MappingExample.sol\":2202:2224  bytes16 b = bytes16(m) */\n      swap1\n      pop\n        /* \"contracts/19_MappingExample.sol\":2296:2297  s */\n      0x00\n        /* \"contracts/19_MappingExample.sol\":2288:2298  bytes16(s) */\n      tag_16\n      swap1\n      tag_17\n      jump\t// in\n    tag_16:\n        /* \"contracts/19_MappingExample.sol\":2284:2298  b = bytes16(s) */\n      swap1\n      pop\n        /* \"contracts/19_MappingExample.sol\":2376:2385  bytes3 b1 */\n      0x00\n        /* \"contracts/19_MappingExample.sol\":2395:2396  s */\n      dup1\n        /* \"contracts/19_MappingExample.sol\":2388:2397  bytes3(s) */\n      tag_18\n      swap1\n      tag_19\n      jump\t// in\n    tag_18:\n        /* \"contracts/19_MappingExample.sol\":2376:2397  bytes3 b1 = bytes3(s) */\n      swap1\n      pop\n        /* \"contracts/19_MappingExample.sol\":2455:2456  c */\n      dup7\n      dup7\n        /* \"contracts/19_MappingExample.sol\":2455:2460  c[:8] */\n      0x00\n      swap1\n        /* \"contracts/19_MappingExample.sol\":2458:2459  8 */\n      0x08\n        /* \"contracts/19_MappingExample.sol\":2455:2460  c[:8] */\n      swap3\n      tag_20\n      swap4\n      swap3\n      swap2\n      swap1\n      tag_21\n      jump\t// in\n    tag_20:\n        /* \"contracts/19_MappingExample.sol\":2447:2461  bytes16(c[:8]) */\n      swap1\n      tag_22\n      swap2\n      swap1\n      tag_23\n      jump\t// in\n    tag_22:\n        /* \"contracts/19_MappingExample.sol\":2443:2461  b = bytes16(c[:8]) */\n      swap2\n      pop\n        /* \"contracts/19_MappingExample.sol\":2506:2507  b */\n      dup2\n        /* \"contracts/19_MappingExample.sol\":2509:2511  b1 */\n      dup2\n        /* \"contracts/19_MappingExample.sol\":2498:2512  return (b, b1) */\n      swap4\n      pop\n      swap4\n      pop\n      pop\n      pop\n        /* \"contracts/19_MappingExample.sol\":2072:2519  function f(bytes calldata c, bytes memory m) public view returns (bytes16, bytes3) {... */\n      swap4\n      pop\n      swap4\n      swap2\n      pop\n      pop\n      jump\t// out\n        /* \"#utility.yul\":7:82   */\n    tag_24:\n        /* \"#utility.yul\":40:46   */\n      0x00\n        /* \"#utility.yul\":73:75   */\n      0x40\n        /* \"#utility.yul\":67:76   */\n      mload\n        /* \"#utility.yul\":57:76   */\n      swap1\n      pop\n        /* \"#utility.yul\":7:82   */\n      swap1\n      jump\t// out\n        /* \"#utility.yul\":88:205   */\n    tag_25:\n        /* \"#utility.yul\":197:198   */\n      0x00\n        /* \"#utility.yul\":194:195   */\n      dup1\n        /* \"#utility.yul\":187:199   */\n      revert\n        /* \"#utility.yul\":211:328   */\n    tag_26:\n        /* \"#utility.yul\":320:321   */\n      0x00\n        /* \"#utility.yul\":317:318   */\n      dup1\n        /* \"#utility.yul\":310:322   */\n      revert\n        /* \"#utility.yul\":334:451   */\n    tag_27:\n        /* \"#utility.yul\":443:444   */\n      0x00\n        /* \"#utility.yul\":440:441   */\n      dup1\n        /* \"#utility.yul\":433:445   */\n      revert\n        /* \"#utility.yul\":457:574   */\n    tag_28:\n        /* \"#utility.yul\":566:567   */\n      0x00\n        /* \"#utility.yul\":563:564   */\n      dup1\n        /* \"#utility.yul\":556:568   */\n      revert\n        /* \"#utility.yul\":580:697   */\n    tag_29:\n        /* \"#utility.yul\":689:690   */\n      0x00\n        /* \"#utility.yul\":686:687   */\n      dup1\n        /* \"#utility.yul\":679:691   */\n      revert\n        /* \"#utility.yul\":716:1268   */\n    tag_30:\n        /* \"#utility.yul\":773:781   */\n      0x00\n        /* \"#utility.yul\":783:789   */\n      dup1\n        /* \"#utility.yul\":833:836   */\n      dup4\n        /* \"#utility.yul\":826:830   */\n      0x1f\n        /* \"#utility.yul\":818:824   */\n      dup5\n        /* \"#utility.yul\":814:831   */\n      add\n        /* \"#utility.yul\":810:837   */\n      slt\n        /* \"#utility.yul\":800:922   */\n      tag_77\n      jumpi\n        /* \"#utility.yul\":841:920   */\n      tag_78\n      tag_27\n      jump\t// in\n    tag_78:\n        /* \"#utility.yul\":800:922   */\n    tag_77:\n        /* \"#utility.yul\":954:960   */\n      dup3\n        /* \"#utility.yul\":941:961   */\n      calldataload\n        /* \"#utility.yul\":931:961   */\n      swap1\n      pop\n        /* \"#utility.yul\":984:1002   */\n      0xffffffffffffffff\n        /* \"#utility.yul\":976:982   */\n      dup2\n        /* \"#utility.yul\":973:1003   */\n      gt\n        /* \"#utility.yul\":970:1087   */\n      iszero\n      tag_79\n      jumpi\n        /* \"#utility.yul\":1006:1085   */\n      tag_80\n      tag_28\n      jump\t// in\n    tag_80:\n        /* \"#utility.yul\":970:1087   */\n    tag_79:\n        /* \"#utility.yul\":1120:1124   */\n      0x20\n        /* \"#utility.yul\":1112:1118   */\n      dup4\n        /* \"#utility.yul\":1108:1125   */\n      add\n        /* \"#utility.yul\":1096:1125   */\n      swap2\n      pop\n        /* \"#utility.yul\":1174:1177   */\n      dup4\n        /* \"#utility.yul\":1166:1170   */\n      0x01\n        /* \"#utility.yul\":1158:1164   */\n      dup3\n        /* \"#utility.yul\":1154:1171   */\n      mul\n        /* \"#utility.yul\":1144:1152   */\n      dup4\n        /* \"#utility.yul\":1140:1172   */\n      add\n        /* \"#utility.yul\":1137:1178   */\n      gt\n        /* \"#utility.yul\":1134:1262   */\n      iszero\n      tag_81\n      jumpi\n        /* \"#utility.yul\":1181:1260   */\n      tag_82\n      tag_29\n      jump\t// in\n    tag_82:\n        /* \"#utility.yul\":1134:1262   */\n    tag_81:\n        /* \"#utility.yul\":716:1268   */\n      swap3\n      pop\n      swap3\n      swap1\n      pop\n      jump\t// out\n        /* \"#utility.yul\":1274:1391   */\n    tag_31:\n        /* \"#utility.yul\":1383:1384   */\n      0x00\n        /* \"#utility.yul\":1380:1381   */\n      dup1\n        /* \"#utility.yul\":1373:1385   */\n      revert\n        /* \"#utility.yul\":1397:1499   */\n    tag_32:\n        /* \"#utility.yul\":1438:1444   */\n      0x00\n        /* \"#utility.yul\":1489:1491   */\n      0x1f\n        /* \"#utility.yul\":1485:1492   */\n      not\n        /* \"#utility.yul\":1480:1482   */\n      0x1f\n        /* \"#utility.yul\":1473:1478   */\n      dup4\n        /* \"#utility.yul\":1469:1483   */\n      add\n        /* \"#utility.yul\":1465:1493   */\n      and\n        /* \"#utility.yul\":1455:1493   */\n      swap1\n      pop\n        /* \"#utility.yul\":1397:1499   */\n      swap2\n      swap1\n      pop\n      jump\t// out\n        /* \"#utility.yul\":1505:1685   */\n    tag_33:\n        /* \"#utility.yul\":1553:1630   */\n      0x4e487b7100000000000000000000000000000000000000000000000000000000\n        /* \"#utility.yul\":1550:1551   */\n      0x00\n        /* \"#utility.yul\":1543:1631   */\n      mstore\n        /* \"#utility.yul\":1650:1654   */\n      0x41\n        /* \"#utility.yul\":1647:1648   */\n      0x04\n        /* \"#utility.yul\":1640:1655   */\n      mstore\n        /* \"#utility.yul\":1674:1678   */\n      0x24\n        /* \"#utility.yul\":1671:1672   */\n      0x00\n        /* \"#utility.yul\":1664:1679   */\n      revert\n        /* \"#utility.yul\":1691:1972   */\n    tag_34:\n        /* \"#utility.yul\":1774:1801   */\n      tag_87\n        /* \"#utility.yul\":1796:1800   */\n      dup3\n        /* \"#utility.yul\":1774:1801   */\n      tag_32\n      jump\t// in\n    tag_87:\n        /* \"#utility.yul\":1766:1772   */\n      dup2\n        /* \"#utility.yul\":1762:1802   */\n      add\n        /* \"#utility.yul\":1904:1910   */\n      dup2\n        /* \"#utility.yul\":1892:1902   */\n      dup2\n        /* \"#utility.yul\":1889:1911   */\n      lt\n        /* \"#utility.yul\":1868:1886   */\n      0xffffffffffffffff\n        /* \"#utility.yul\":1856:1866   */\n      dup3\n        /* \"#utility.yul\":1853:1887   */\n      gt\n        /* \"#utility.yul\":1850:1912   */\n      or\n        /* \"#utility.yul\":1847:1935   */\n      iszero\n      tag_88\n      jumpi\n        /* \"#utility.yul\":1915:1933   */\n      tag_89\n      tag_33\n      jump\t// in\n    tag_89:\n        /* \"#utility.yul\":1847:1935   */\n    tag_88:\n        /* \"#utility.yul\":1955:1965   */\n      dup1\n        /* \"#utility.yul\":1951:1953   */\n      0x40\n        /* \"#utility.yul\":1944:1966   */\n      mstore\n        /* \"#utility.yul\":1734:1972   */\n      pop\n        /* \"#utility.yul\":1691:1972   */\n      pop\n      pop\n      jump\t// out\n        /* \"#utility.yul\":1978:2107   */\n    tag_35:\n        /* \"#utility.yul\":2012:2018   */\n      0x00\n        /* \"#utility.yul\":2039:2059   */\n      tag_91\n      tag_24\n      jump\t// in\n    tag_91:\n        /* \"#utility.yul\":2029:2059   */\n      swap1\n      pop\n        /* \"#utility.yul\":2068:2101   */\n      tag_92\n        /* \"#utility.yul\":2096:2100   */\n      dup3\n        /* \"#utility.yul\":2088:2094   */\n      dup3\n        /* \"#utility.yul\":2068:2101   */\n      tag_34\n      jump\t// in\n    tag_92:\n        /* \"#utility.yul\":1978:2107   */\n      swap2\n      swap1\n      pop\n      jump\t// out\n        /* \"#utility.yul\":2113:2420   */\n    tag_36:\n        /* \"#utility.yul\":2174:2178   */\n      0x00\n        /* \"#utility.yul\":2264:2282   */\n      0xffffffffffffffff\n        /* \"#utility.yul\":2256:2262   */\n      dup3\n        /* \"#utility.yul\":2253:2283   */\n      gt\n        /* \"#utility.yul\":2250:2306   */\n      iszero\n      tag_94\n      jumpi\n        /* \"#utility.yul\":2286:2304   */\n      tag_95\n      tag_33\n      jump\t// in\n    tag_95:\n        /* \"#utility.yul\":2250:2306   */\n    tag_94:\n        /* \"#utility.yul\":2324:2353   */\n      tag_96\n        /* \"#utility.yul\":2346:2352   */\n      dup3\n        /* \"#utility.yul\":2324:2353   */\n      tag_32\n      jump\t// in\n    tag_96:\n        /* \"#utility.yul\":2316:2353   */\n      swap1\n      pop\n        /* \"#utility.yul\":2408:2412   */\n      0x20\n        /* \"#utility.yul\":2402:2406   */\n      dup2\n        /* \"#utility.yul\":2398:2413   */\n      add\n        /* \"#utility.yul\":2390:2413   */\n      swap1\n      pop\n        /* \"#utility.yul\":2113:2420   */\n      swap2\n      swap1\n      pop\n      jump\t// out\n        /* \"#utility.yul\":2426:2574   */\n    tag_37:\n        /* \"#utility.yul\":2524:2530   */\n      dup3\n        /* \"#utility.yul\":2519:2522   */\n      dup2\n        /* \"#utility.yul\":2514:2517   */\n      dup4\n        /* \"#utility.yul\":2501:2531   */\n      calldatacopy\n        /* \"#utility.yul\":2565:2566   */\n      0x00\n        /* \"#utility.yul\":2556:2562   */\n      dup4\n        /* \"#utility.yul\":2551:2554   */\n      dup4\n        /* \"#utility.yul\":2547:2563   */\n      add\n        /* \"#utility.yul\":2540:2567   */\n      mstore\n        /* \"#utility.yul\":2426:2574   */\n      pop\n      pop\n      pop\n      jump\t// out\n        /* \"#utility.yul\":2580:3003   */\n    tag_38:\n        /* \"#utility.yul\":2657:2662   */\n      0x00\n        /* \"#utility.yul\":2682:2747   */\n      tag_99\n        /* \"#utility.yul\":2698:2746   */\n      tag_100\n        /* \"#utility.yul\":2739:2745   */\n      dup5\n        /* \"#utility.yul\":2698:2746   */\n      tag_36\n      jump\t// in\n    tag_100:\n        /* \"#utility.yul\":2682:2747   */\n      tag_35\n      jump\t// in\n    tag_99:\n        /* \"#utility.yul\":2673:2747   */\n      swap1\n      pop\n        /* \"#utility.yul\":2770:2776   */\n      dup3\n        /* \"#utility.yul\":2763:2768   */\n      dup2\n        /* \"#utility.yul\":2756:2777   */\n      mstore\n        /* \"#utility.yul\":2808:2812   */\n      0x20\n        /* \"#utility.yul\":2801:2806   */\n      dup2\n        /* \"#utility.yul\":2797:2813   */\n      add\n        /* \"#utility.yul\":2846:2849   */\n      dup5\n        /* \"#utility.yul\":2837:2843   */\n      dup5\n        /* \"#utility.yul\":2832:2835   */\n      dup5\n        /* \"#utility.yul\":2828:2844   */\n      add\n        /* \"#utility.yul\":2825:2850   */\n      gt\n        /* \"#utility.yul\":2822:2934   */\n      iszero\n      tag_101\n      jumpi\n        /* \"#utility.yul\":2853:2932   */\n      tag_102\n      tag_31\n      jump\t// in\n    tag_102:\n        /* \"#utility.yul\":2822:2934   */\n    tag_101:\n        /* \"#utility.yul\":2943:2997   */\n      tag_103\n        /* \"#utility.yul\":2990:2996   */\n      dup5\n        /* \"#utility.yul\":2985:2988   */\n      dup3\n        /* \"#utility.yul\":2980:2983   */\n      dup6\n        /* \"#utility.yul\":2943:2997   */\n      tag_37\n      jump\t// in\n    tag_103:\n        /* \"#utility.yul\":2663:3003   */\n      pop\n        /* \"#utility.yul\":2580:3003   */\n      swap4\n      swap3\n      pop\n      pop\n      pop\n      jump\t// out\n        /* \"#utility.yul\":3022:3360   */\n    tag_39:\n        /* \"#utility.yul\":3077:3082   */\n      0x00\n        /* \"#utility.yul\":3126:3129   */\n      dup3\n        /* \"#utility.yul\":3119:3123   */\n      0x1f\n        /* \"#utility.yul\":3111:3117   */\n      dup4\n        /* \"#utility.yul\":3107:3124   */\n      add\n        /* \"#utility.yul\":3103:3130   */\n      slt\n        /* \"#utility.yul\":3093:3215   */\n      tag_105\n      jumpi\n        /* \"#utility.yul\":3134:3213   */\n      tag_106\n      tag_27\n      jump\t// in\n    tag_106:\n        /* \"#utility.yul\":3093:3215   */\n    tag_105:\n        /* \"#utility.yul\":3251:3257   */\n      dup2\n        /* \"#utility.yul\":3238:3258   */\n      calldataload\n        /* \"#utility.yul\":3276:3354   */\n      tag_107\n        /* \"#utility.yul\":3350:3353   */\n      dup5\n        /* \"#utility.yul\":3342:3348   */\n      dup3\n        /* \"#utility.yul\":3335:3339   */\n      0x20\n        /* \"#utility.yul\":3327:3333   */\n      dup7\n        /* \"#utility.yul\":3323:3340   */\n      add\n        /* \"#utility.yul\":3276:3354   */\n      tag_38\n      jump\t// in\n    tag_107:\n        /* \"#utility.yul\":3267:3354   */\n      swap2\n      pop\n        /* \"#utility.yul\":3083:3360   */\n      pop\n        /* \"#utility.yul\":3022:3360   */\n      swap3\n      swap2\n      pop\n      pop\n      jump\t// out\n        /* \"#utility.yul\":3366:4216   */\n    tag_6:\n        /* \"#utility.yul\":3454:3460   */\n      0x00\n        /* \"#utility.yul\":3462:3468   */\n      dup1\n        /* \"#utility.yul\":3470:3476   */\n      0x00\n        /* \"#utility.yul\":3519:3521   */\n      0x40\n        /* \"#utility.yul\":3507:3516   */\n      dup5\n        /* \"#utility.yul\":3498:3505   */\n      dup7\n        /* \"#utility.yul\":3494:3517   */\n      sub\n        /* \"#utility.yul\":3490:3522   */\n      slt\n        /* \"#utility.yul\":3487:3606   */\n      iszero\n      tag_109\n      jumpi\n        /* \"#utility.yul\":3525:3604   */\n      tag_110\n      tag_25\n      jump\t// in\n    tag_110:\n        /* \"#utility.yul\":3487:3606   */\n    tag_109:\n        /* \"#utility.yul\":3673:3674   */\n      0x00\n        /* \"#utility.yul\":3662:3671   */\n      dup5\n        /* \"#utility.yul\":3658:3675   */\n      add\n        /* \"#utility.yul\":3645:3676   */\n      calldataload\n        /* \"#utility.yul\":3703:3721   */\n      0xffffffffffffffff\n        /* \"#utility.yul\":3695:3701   */\n      dup2\n        /* \"#utility.yul\":3692:3722   */\n      gt\n        /* \"#utility.yul\":3689:3806   */\n      iszero\n      tag_111\n      jumpi\n        /* \"#utility.yul\":3725:3804   */\n      tag_112\n      tag_26\n      jump\t// in\n    tag_112:\n        /* \"#utility.yul\":3689:3806   */\n    tag_111:\n        /* \"#utility.yul\":3838:3902   */\n      tag_113\n        /* \"#utility.yul\":3894:3901   */\n      dup7\n        /* \"#utility.yul\":3885:3891   */\n      dup3\n        /* \"#utility.yul\":3874:3883   */\n      dup8\n        /* \"#utility.yul\":3870:3892   */\n      add\n        /* \"#utility.yul\":3838:3902   */\n      tag_30\n      jump\t// in\n    tag_113:\n        /* \"#utility.yul\":3820:3902   */\n      swap4\n      pop\n      swap4\n      pop\n        /* \"#utility.yul\":3616:3912   */\n      pop\n        /* \"#utility.yul\":3979:3981   */\n      0x20\n        /* \"#utility.yul\":3968:3977   */\n      dup5\n        /* \"#utility.yul\":3964:3982   */\n      add\n        /* \"#utility.yul\":3951:3983   */\n      calldataload\n        /* \"#utility.yul\":4010:4028   */\n      0xffffffffffffffff\n        /* \"#utility.yul\":4002:4008   */\n      dup2\n        /* \"#utility.yul\":3999:4029   */\n      gt\n        /* \"#utility.yul\":3996:4113   */\n      iszero\n      tag_114\n      jumpi\n        /* \"#utility.yul\":4032:4111   */\n      tag_115\n      tag_26\n      jump\t// in\n    tag_115:\n        /* \"#utility.yul\":3996:4113   */\n    tag_114:\n        /* \"#utility.yul\":4137:4199   */\n      tag_116\n        /* \"#utility.yul\":4191:4198   */\n      dup7\n        /* \"#utility.yul\":4182:4188   */\n      dup3\n        /* \"#utility.yul\":4171:4180   */\n      dup8\n        /* \"#utility.yul\":4167:4189   */\n      add\n        /* \"#utility.yul\":4137:4199   */\n      tag_39\n      jump\t// in\n    tag_116:\n        /* \"#utility.yul\":4127:4199   */\n      swap2\n      pop\n        /* \"#utility.yul\":3922:4209   */\n      pop\n        /* \"#utility.yul\":3366:4216   */\n      swap3\n      pop\n      swap3\n      pop\n      swap3\n      jump\t// out\n        /* \"#utility.yul\":4222:4372   */\n    tag_40:\n        /* \"#utility.yul\":4259:4266   */\n      0x00\n        /* \"#utility.yul\":4299:4365   */\n      0xffffffffffffffffffffffffffffffff00000000000000000000000000000000\n        /* \"#utility.yul\":4292:4297   */\n      dup3\n        /* \"#utility.yul\":4288:4366   */\n      and\n        /* \"#utility.yul\":4277:4366   */\n      swap1\n      pop\n        /* \"#utility.yul\":4222:4372   */\n      swap2\n      swap1\n      pop\n      jump\t// out\n        /* \"#utility.yul\":4378:4496   */\n    tag_41:\n        /* \"#utility.yul\":4465:4489   */\n      tag_119\n        /* \"#utility.yul\":4483:4488   */\n      dup2\n        /* \"#utility.yul\":4465:4489   */\n      tag_40\n      jump\t// in\n    tag_119:\n        /* \"#utility.yul\":4460:4463   */\n      dup3\n        /* \"#utility.yul\":4453:4490   */\n      mstore\n        /* \"#utility.yul\":4378:4496   */\n      pop\n      pop\n      jump\t// out\n        /* \"#utility.yul\":4502:4651   */\n    tag_42:\n        /* \"#utility.yul\":4538:4545   */\n      0x00\n        /* \"#utility.yul\":4578:4644   */\n      0xffffff0000000000000000000000000000000000000000000000000000000000\n        /* \"#utility.yul\":4571:4576   */\n      dup3\n        /* \"#utility.yul\":4567:4645   */\n      and\n        /* \"#utility.yul\":4556:4645   */\n      swap1\n      pop\n        /* \"#utility.yul\":4502:4651   */\n      swap2\n      swap1\n      pop\n      jump\t// out\n        /* \"#utility.yul\":4657:4772   */\n    tag_43:\n        /* \"#utility.yul\":4742:4765   */\n      tag_122\n        /* \"#utility.yul\":4759:4764   */\n      dup2\n        /* \"#utility.yul\":4742:4765   */\n      tag_42\n      jump\t// in\n    tag_122:\n        /* \"#utility.yul\":4737:4740   */\n      dup3\n        /* \"#utility.yul\":4730:4766   */\n      mstore\n        /* \"#utility.yul\":4657:4772   */\n      pop\n      pop\n      jump\t// out\n        /* \"#utility.yul\":4778:5106   */\n    tag_9:\n        /* \"#utility.yul\":4897:4901   */\n      0x00\n        /* \"#utility.yul\":4935:4937   */\n      0x40\n        /* \"#utility.yul\":4924:4933   */\n      dup3\n        /* \"#utility.yul\":4920:4938   */\n      add\n        /* \"#utility.yul\":4912:4938   */\n      swap1\n      pop\n        /* \"#utility.yul\":4948:5019   */\n      tag_124\n        /* \"#utility.yul\":5016:5017   */\n      0x00\n        /* \"#utility.yul\":5005:5014   */\n      dup4\n        /* \"#utility.yul\":5001:5018   */\n      add\n        /* \"#utility.yul\":4992:4998   */\n      dup6\n        /* \"#utility.yul\":4948:5019   */\n      tag_41\n      jump\t// in\n    tag_124:\n        /* \"#utility.yul\":5029:5099   */\n      tag_125\n        /* \"#utility.yul\":5095:5097   */\n      0x20\n        /* \"#utility.yul\":5084:5093   */\n      dup4\n        /* \"#utility.yul\":5080:5098   */\n      add\n        /* \"#utility.yul\":5071:5077   */\n      dup5\n        /* \"#utility.yul\":5029:5099   */\n      tag_43\n      jump\t// in\n    tag_125:\n        /* \"#utility.yul\":4778:5106   */\n      swap4\n      swap3\n      pop\n      pop\n      pop\n      jump\t// out\n        /* \"#utility.yul\":5112:5281   */\n    tag_44:\n        /* \"#utility.yul\":5196:5207   */\n      0x00\n        /* \"#utility.yul\":5230:5236   */\n      dup3\n        /* \"#utility.yul\":5225:5228   */\n      dup3\n        /* \"#utility.yul\":5218:5237   */\n      mstore\n        /* \"#utility.yul\":5270:5274   */\n      0x20\n        /* \"#utility.yul\":5265:5268   */\n      dup3\n        /* \"#utility.yul\":5261:5275   */\n      add\n        /* \"#utility.yul\":5246:5275   */\n      swap1\n      pop\n        /* \"#utility.yul\":5112:5281   */\n      swap3\n      swap2\n      pop\n      pop\n      jump\t// out\n        /* \"#utility.yul\":5287:5401   */\n    tag_45:\n      pop\n      jump\t// out\n        /* \"#utility.yul\":5407:5771   */\n    tag_46:\n        /* \"#utility.yul\":5549:5552   */\n      0x00\n        /* \"#utility.yul\":5570:5636   */\n      tag_129\n        /* \"#utility.yul\":5634:5635   */\n      0x00\n        /* \"#utility.yul\":5629:5632   */\n      dup4\n        /* \"#utility.yul\":5570:5636   */\n      tag_44\n      jump\t// in\n    tag_129:\n        /* \"#utility.yul\":5563:5636   */\n      swap2\n      pop\n        /* \"#utility.yul\":5645:5738   */\n      tag_130\n        /* \"#utility.yul\":5734:5737   */\n      dup3\n        /* \"#utility.yul\":5645:5738   */\n      tag_45\n      jump\t// in\n    tag_130:\n        /* \"#utility.yul\":5763:5764   */\n      0x00\n        /* \"#utility.yul\":5758:5761   */\n      dup3\n        /* \"#utility.yul\":5754:5765   */\n      add\n        /* \"#utility.yul\":5747:5765   */\n      swap1\n      pop\n        /* \"#utility.yul\":5407:5771   */\n      swap2\n      swap1\n      pop\n      jump\t// out\n        /* \"#utility.yul\":5777:6196   */\n    tag_13:\n        /* \"#utility.yul\":5943:5947   */\n      0x00\n        /* \"#utility.yul\":5981:5983   */\n      0x20\n        /* \"#utility.yul\":5970:5979   */\n      dup3\n        /* \"#utility.yul\":5966:5984   */\n      add\n        /* \"#utility.yul\":5958:5984   */\n      swap1\n      pop\n        /* \"#utility.yul\":6030:6039   */\n      dup2\n        /* \"#utility.yul\":6024:6028   */\n      dup2\n        /* \"#utility.yul\":6020:6040   */\n      sub\n        /* \"#utility.yul\":6016:6017   */\n      0x00\n        /* \"#utility.yul\":6005:6014   */\n      dup4\n        /* \"#utility.yul\":6001:6018   */\n      add\n        /* \"#utility.yul\":5994:6041   */\n      mstore\n        /* \"#utility.yul\":6058:6189   */\n      tag_132\n        /* \"#utility.yul\":6184:6188   */\n      dup2\n        /* \"#utility.yul\":6058:6189   */\n      tag_46\n      jump\t// in\n    tag_132:\n        /* \"#utility.yul\":6050:6189   */\n      swap1\n      pop\n        /* \"#utility.yul\":5777:6196   */\n      swap2\n      swap1\n      pop\n      jump\t// out\n        /* \"#utility.yul\":6202:6300   */\n    tag_47:\n        /* \"#utility.yul\":6253:6259   */\n      0x00\n        /* \"#utility.yul\":6287:6292   */\n      dup2\n        /* \"#utility.yul\":6281:6293   */\n      mload\n        /* \"#utility.yul\":6271:6293   */\n      swap1\n      pop\n        /* \"#utility.yul\":6202:6300   */\n      swap2\n      swap1\n      pop\n      jump\t// out\n        /* \"#utility.yul\":6306:6422   */\n    tag_48:\n        /* \"#utility.yul\":6357:6361   */\n      0x00\n        /* \"#utility.yul\":6380:6383   */\n      dup2\n        /* \"#utility.yul\":6372:6383   */\n      swap1\n      pop\n        /* \"#utility.yul\":6410:6414   */\n      0x20\n        /* \"#utility.yul\":6405:6408   */\n      dup3\n        /* \"#utility.yul\":6401:6415   */\n      add\n        /* \"#utility.yul\":6393:6415   */\n      swap1\n      pop\n        /* \"#utility.yul\":6306:6422   */\n      swap2\n      swap1\n      pop\n      jump\t// out\n        /* \"#utility.yul\":6428:6582   */\n    tag_49:\n        /* \"#utility.yul\":6471:6482   */\n      0x00\n        /* \"#utility.yul\":6507:6536   */\n      tag_136\n        /* \"#utility.yul\":6531:6534   */\n      dup3\n        /* \"#utility.yul\":6525:6535   */\n      mload\n        /* \"#utility.yul\":6507:6536   */\n      tag_40\n      jump\t// in\n    tag_136:\n        /* \"#utility.yul\":6570:6575   */\n      dup1\n        /* \"#utility.yul\":6546:6575   */\n      swap2\n      pop\n        /* \"#utility.yul\":6483:6582   */\n      pop\n        /* \"#utility.yul\":6428:6582   */\n      swap2\n      swap1\n      pop\n      jump\t// out\n        /* \"#utility.yul\":6588:6695   */\n    tag_50:\n        /* \"#utility.yul\":6632:6640   */\n      0x00\n        /* \"#utility.yul\":6682:6687   */\n      dup3\n        /* \"#utility.yul\":6676:6680   */\n      dup3\n        /* \"#utility.yul\":6672:6688   */\n      shl\n        /* \"#utility.yul\":6651:6688   */\n      swap1\n      pop\n        /* \"#utility.yul\":6588:6695   */\n      swap3\n      swap2\n      pop\n      pop\n      jump\t// out\n        /* \"#utility.yul\":6701:7295   */\n    tag_15:\n        /* \"#utility.yul\":6785:6790   */\n      0x00\n        /* \"#utility.yul\":6816:6854   */\n      tag_139\n        /* \"#utility.yul\":6848:6853   */\n      dup3\n        /* \"#utility.yul\":6816:6854   */\n      tag_47\n      jump\t// in\n    tag_139:\n        /* \"#utility.yul\":6879:6884   */\n      dup3\n        /* \"#utility.yul\":6906:6946   */\n      tag_140\n        /* \"#utility.yul\":6940:6945   */\n      dup5\n        /* \"#utility.yul\":6906:6946   */\n      tag_48\n      jump\t// in\n    tag_140:\n        /* \"#utility.yul\":6894:6946   */\n      swap1\n      pop\n        /* \"#utility.yul\":6965:7000   */\n      tag_141\n        /* \"#utility.yul\":6991:6999   */\n      dup2\n        /* \"#utility.yul\":6965:7000   */\n      tag_49\n      jump\t// in\n    tag_141:\n        /* \"#utility.yul\":6956:7000   */\n      swap3\n      pop\n        /* \"#utility.yul\":7024:7026   */\n      0x10\n        /* \"#utility.yul\":7016:7022   */\n      dup3\n        /* \"#utility.yul\":7013:7027   */\n      lt\n        /* \"#utility.yul\":7010:7288   */\n      iszero\n      tag_142\n      jumpi\n        /* \"#utility.yul\":7095:7264   */\n      tag_143\n        /* \"#utility.yul\":7180:7246   */\n      0xffffffffffffffffffffffffffffffff00000000000000000000000000000000\n        /* \"#utility.yul\":7150:7156   */\n      dup4\n        /* \"#utility.yul\":7146:7148   */\n      0x10\n        /* \"#utility.yul\":7142:7157   */\n      sub\n        /* \"#utility.yul\":7139:7140   */\n      0x08\n        /* \"#utility.yul\":7135:7158   */\n      mul\n        /* \"#utility.yul\":7095:7264   */\n      tag_50\n      jump\t// in\n    tag_143:\n        /* \"#utility.yul\":7072:7077   */\n      dup4\n        /* \"#utility.yul\":7051:7278   */\n      and\n        /* \"#utility.yul\":7042:7278   */\n      swap3\n      pop\n        /* \"#utility.yul\":7010:7288   */\n    tag_142:\n        /* \"#utility.yul\":6791:7295   */\n      pop\n      pop\n        /* \"#utility.yul\":6701:7295   */\n      swap2\n      swap1\n      pop\n      jump\t// out\n        /* \"#utility.yul\":7301:7481   */\n    tag_51:\n        /* \"#utility.yul\":7349:7426   */\n      0x4e487b7100000000000000000000000000000000000000000000000000000000\n        /* \"#utility.yul\":7346:7347   */\n      0x00\n        /* \"#utility.yul\":7339:7427   */\n      mstore\n        /* \"#utility.yul\":7446:7450   */\n      0x22\n        /* \"#utility.yul\":7443:7444   */\n      0x04\n        /* \"#utility.yul\":7436:7451   */\n      mstore\n        /* \"#utility.yul\":7470:7474   */\n      0x24\n        /* \"#utility.yul\":7467:7468   */\n      0x00\n        /* \"#utility.yul\":7460:7475   */\n      revert\n        /* \"#utility.yul\":7487:7807   */\n    tag_52:\n        /* \"#utility.yul\":7531:7537   */\n      0x00\n        /* \"#utility.yul\":7568:7569   */\n      0x02\n        /* \"#utility.yul\":7562:7566   */\n      dup3\n        /* \"#utility.yul\":7558:7570   */\n      div\n        /* \"#utility.yul\":7548:7570   */\n      swap1\n      pop\n        /* \"#utility.yul\":7615:7616   */\n      0x01\n        /* \"#utility.yul\":7609:7613   */\n      dup3\n        /* \"#utility.yul\":7605:7617   */\n      and\n        /* \"#utility.yul\":7636:7654   */\n      dup1\n        /* \"#utility.yul\":7626:7707   */\n      tag_146\n      jumpi\n        /* \"#utility.yul\":7692:7696   */\n      0x7f\n        /* \"#utility.yul\":7684:7690   */\n      dup3\n        /* \"#utility.yul\":7680:7697   */\n      and\n        /* \"#utility.yul\":7670:7697   */\n      swap2\n      pop\n        /* \"#utility.yul\":7626:7707   */\n    tag_146:\n        /* \"#utility.yul\":7754:7756   */\n      0x20\n        /* \"#utility.yul\":7746:7752   */\n      dup3\n        /* \"#utility.yul\":7743:7757   */\n      lt\n        /* \"#utility.yul\":7723:7741   */\n      dup2\n        /* \"#utility.yul\":7720:7758   */\n      sub\n        /* \"#utility.yul\":7717:7801   */\n      tag_147\n      jumpi\n        /* \"#utility.yul\":7773:7791   */\n      tag_148\n      tag_51\n      jump\t// in\n    tag_148:\n        /* \"#utility.yul\":7717:7801   */\n    tag_147:\n        /* \"#utility.yul\":7538:7807   */\n      pop\n        /* \"#utility.yul\":7487:7807   */\n      swap2\n      swap1\n      pop\n      jump\t// out\n        /* \"#utility.yul\":7813:7961   */\n    tag_53:\n        /* \"#utility.yul\":7861:7867   */\n      0x00\n        /* \"#utility.yul\":7895:7900   */\n      dup2\n        /* \"#utility.yul\":7889:7901   */\n      sload\n        /* \"#utility.yul\":7879:7901   */\n      swap1\n      pop\n        /* \"#utility.yul\":7921:7954   */\n      tag_150\n        /* \"#utility.yul\":7947:7953   */\n      dup2\n        /* \"#utility.yul\":7921:7954   */\n      tag_52\n      jump\t// in\n    tag_150:\n        /* \"#utility.yul\":7911:7954   */\n      swap1\n      pop\n        /* \"#utility.yul\":7813:7961   */\n      swap2\n      swap1\n      pop\n      jump\t// out\n        /* \"#utility.yul\":7967:8107   */\n    tag_54:\n        /* \"#utility.yul\":8015:8019   */\n      0x00\n        /* \"#utility.yul\":8038:8041   */\n      dup2\n        /* \"#utility.yul\":8030:8041   */\n      swap1\n      pop\n        /* \"#utility.yul\":8061:8064   */\n      dup2\n        /* \"#utility.yul\":8058:8059   */\n      0x00\n        /* \"#utility.yul\":8051:8065   */\n      mstore\n        /* \"#utility.yul\":8095:8099   */\n      0x20\n        /* \"#utility.yul\":8092:8093   */\n      0x00\n        /* \"#utility.yul\":8082:8100   */\n      keccak256\n        /* \"#utility.yul\":8074:8100   */\n      swap1\n      pop\n        /* \"#utility.yul\":7967:8107   */\n      swap2\n      swap1\n      pop\n      jump\t// out\n        /* \"#utility.yul\":8113:8219   */\n    tag_55:\n        /* \"#utility.yul\":8157:8165   */\n      0x00\n        /* \"#utility.yul\":8206:8211   */\n      dup2\n        /* \"#utility.yul\":8201:8204   */\n      0x80\n        /* \"#utility.yul\":8197:8212   */\n      shr\n        /* \"#utility.yul\":8176:8212   */\n      swap1\n      pop\n        /* \"#utility.yul\":8113:8219   */\n      swap2\n      swap1\n      pop\n      jump\t// out\n        /* \"#utility.yul\":8225:8321   */\n    tag_56:\n        /* \"#utility.yul\":8259:8267   */\n      0x00\n        /* \"#utility.yul\":8308:8313   */\n      dup2\n        /* \"#utility.yul\":8303:8306   */\n      0x80\n        /* \"#utility.yul\":8299:8314   */\n      shl\n        /* \"#utility.yul\":8278:8314   */\n      swap1\n      pop\n        /* \"#utility.yul\":8225:8321   */\n      swap2\n      swap1\n      pop\n      jump\t// out\n        /* \"#utility.yul\":8327:8433   */\n    tag_57:\n        /* \"#utility.yul\":8377:8384   */\n      0x00\n        /* \"#utility.yul\":8406:8427   */\n      tag_155\n        /* \"#utility.yul\":8421:8426   */\n      dup3\n        /* \"#utility.yul\":8406:8427   */\n      tag_56\n      jump\t// in\n    tag_155:\n        /* \"#utility.yul\":8395:8427   */\n      swap1\n      pop\n        /* \"#utility.yul\":8327:8433   */\n      swap2\n      swap1\n      pop\n      jump\t// out\n        /* \"#utility.yul\":8439:8608   */\n    tag_58:\n        /* \"#utility.yul\":8509:8514   */\n      0x00\n        /* \"#utility.yul\":8534:8602   */\n      tag_157\n        /* \"#utility.yul\":8565:8601   */\n      tag_158\n        /* \"#utility.yul\":8590:8600   */\n      dup4\n        /* \"#utility.yul\":8565:8601   */\n      tag_55\n      jump\t// in\n    tag_158:\n        /* \"#utility.yul\":8534:8602   */\n      tag_57\n      jump\t// in\n    tag_157:\n        /* \"#utility.yul\":8525:8602   */\n      swap1\n      pop\n        /* \"#utility.yul\":8439:8608   */\n      swap2\n      swap1\n      pop\n      jump\t// out\n        /* \"#utility.yul\":8614:8760   */\n    tag_59:\n        /* \"#utility.yul\":8670:8675   */\n      0x00\n        /* \"#utility.yul\":8695:8753   */\n      tag_160\n        /* \"#utility.yul\":8747:8751   */\n      dup3\n        /* \"#utility.yul\":8741:8752   */\n      sload\n        /* \"#utility.yul\":8695:8753   */\n      tag_58\n      jump\t// in\n    tag_160:\n        /* \"#utility.yul\":8686:8753   */\n      swap1\n      pop\n        /* \"#utility.yul\":8614:8760   */\n      swap2\n      swap1\n      pop\n      jump\t// out\n        /* \"#utility.yul\":8766:9385   */\n    tag_17:\n        /* \"#utility.yul\":8847:8852   */\n      0x00\n        /* \"#utility.yul\":8878:8913   */\n      tag_162\n        /* \"#utility.yul\":8907:8912   */\n      dup3\n        /* \"#utility.yul\":8878:8913   */\n      tag_53\n      jump\t// in\n    tag_162:\n        /* \"#utility.yul\":8938:8943   */\n      dup3\n        /* \"#utility.yul\":8967:8969   */\n      0x1f\n        /* \"#utility.yul\":8959:8965   */\n      dup3\n        /* \"#utility.yul\":8956:8970   */\n      gt\n        /* \"#utility.yul\":8953:9024   */\n      iszero\n      tag_163\n      jumpi\n        /* \"#utility.yul\":8985:9022   */\n      tag_164\n        /* \"#utility.yul\":9016:9021   */\n      dup5\n        /* \"#utility.yul\":8985:9022   */\n      tag_54\n      jump\t// in\n    tag_164:\n        /* \"#utility.yul\":8973:9022   */\n      swap1\n      pop\n        /* \"#utility.yul\":8953:9024   */\n    tag_163:\n        /* \"#utility.yul\":9043:9090   */\n      tag_165\n        /* \"#utility.yul\":9081:9089   */\n      dup2\n        /* \"#utility.yul\":9043:9090   */\n      tag_59\n      jump\t// in\n    tag_165:\n        /* \"#utility.yul\":9034:9090   */\n      swap3\n      pop\n        /* \"#utility.yul\":9114:9116   */\n      0x10\n        /* \"#utility.yul\":9106:9112   */\n      dup3\n        /* \"#utility.yul\":9103:9117   */\n      lt\n        /* \"#utility.yul\":9100:9378   */\n      iszero\n      tag_166\n      jumpi\n        /* \"#utility.yul\":9185:9354   */\n      tag_167\n        /* \"#utility.yul\":9270:9336   */\n      0xffffffffffffffffffffffffffffffff00000000000000000000000000000000\n        /* \"#utility.yul\":9240:9246   */\n      dup4\n        /* \"#utility.yul\":9236:9238   */\n      0x10\n        /* \"#utility.yul\":9232:9247   */\n      sub\n        /* \"#utility.yul\":9229:9230   */\n      0x08\n        /* \"#utility.yul\":9225:9248   */\n      mul\n        /* \"#utility.yul\":9185:9354   */\n      tag_50\n      jump\t// in\n    tag_167:\n        /* \"#utility.yul\":9162:9167   */\n      dup4\n        /* \"#utility.yul\":9141:9368   */\n      and\n        /* \"#utility.yul\":9132:9368   */\n      swap3\n      pop\n        /* \"#utility.yul\":9100:9378   */\n    tag_166:\n        /* \"#utility.yul\":8853:9385   */\n      pop\n      pop\n        /* \"#utility.yul\":8766:9385   */\n      swap2\n      swap1\n      pop\n      jump\t// out\n        /* \"#utility.yul\":9391:9497   */\n    tag_60:\n        /* \"#utility.yul\":9435:9443   */\n      0x00\n        /* \"#utility.yul\":9484:9489   */\n      dup2\n        /* \"#utility.yul\":9479:9482   */\n      0xe8\n        /* \"#utility.yul\":9475:9490   */\n      shr\n        /* \"#utility.yul\":9454:9490   */\n      swap1\n      pop\n        /* \"#utility.yul\":9391:9497   */\n      swap2\n      swap1\n      pop\n      jump\t// out\n        /* \"#utility.yul\":9503:9599   */\n    tag_61:\n        /* \"#utility.yul\":9537:9545   */\n      0x00\n        /* \"#utility.yul\":9586:9591   */\n      dup2\n        /* \"#utility.yul\":9581:9584   */\n      0xe8\n        /* \"#utility.yul\":9577:9592   */\n      shl\n        /* \"#utility.yul\":9556:9592   */\n      swap1\n      pop\n        /* \"#utility.yul\":9503:9599   */\n      swap2\n      swap1\n      pop\n      jump\t// out\n        /* \"#utility.yul\":9605:9710   */\n    tag_62:\n        /* \"#utility.yul\":9654:9661   */\n      0x00\n        /* \"#utility.yul\":9683:9704   */\n      tag_171\n        /* \"#utility.yul\":9698:9703   */\n      dup3\n        /* \"#utility.yul\":9683:9704   */\n      tag_61\n      jump\t// in\n    tag_171:\n        /* \"#utility.yul\":9672:9704   */\n      swap1\n      pop\n        /* \"#utility.yul\":9605:9710   */\n      swap2\n      swap1\n      pop\n      jump\t// out\n        /* \"#utility.yul\":9716:9883   */\n    tag_63:\n        /* \"#utility.yul\":9785:9790   */\n      0x00\n        /* \"#utility.yul\":9810:9877   */\n      tag_173\n        /* \"#utility.yul\":9840:9876   */\n      tag_174\n        /* \"#utility.yul\":9865:9875   */\n      dup4\n        /* \"#utility.yul\":9840:9876   */\n      tag_60\n      jump\t// in\n    tag_174:\n        /* \"#utility.yul\":9810:9877   */\n      tag_62\n      jump\t// in\n    tag_173:\n        /* \"#utility.yul\":9801:9877   */\n      swap1\n      pop\n        /* \"#utility.yul\":9716:9883   */\n      swap2\n      swap1\n      pop\n      jump\t// out\n        /* \"#utility.yul\":9889:10033   */\n    tag_64:\n        /* \"#utility.yul\":9944:9949   */\n      0x00\n        /* \"#utility.yul\":9969:10026   */\n      tag_176\n        /* \"#utility.yul\":10020:10024   */\n      dup3\n        /* \"#utility.yul\":10014:10025   */\n      sload\n        /* \"#utility.yul\":9969:10026   */\n      tag_63\n      jump\t// in\n    tag_176:\n        /* \"#utility.yul\":9960:10026   */\n      swap1\n      pop\n        /* \"#utility.yul\":9889:10033   */\n      swap2\n      swap1\n      pop\n      jump\t// out\n        /* \"#utility.yul\":10039:10654   */\n    tag_19:\n        /* \"#utility.yul\":10119:10124   */\n      0x00\n        /* \"#utility.yul\":10150:10185   */\n      tag_178\n        /* \"#utility.yul\":10179:10184   */\n      dup3\n        /* \"#utility.yul\":10150:10185   */\n      tag_53\n      jump\t// in\n    tag_178:\n        /* \"#utility.yul\":10210:10215   */\n      dup3\n        /* \"#utility.yul\":10239:10241   */\n      0x1f\n        /* \"#utility.yul\":10231:10237   */\n      dup3\n        /* \"#utility.yul\":10228:10242   */\n      gt\n        /* \"#utility.yul\":10225:10296   */\n      iszero\n      tag_179\n      jumpi\n        /* \"#utility.yul\":10257:10294   */\n      tag_180\n        /* \"#utility.yul\":10288:10293   */\n      dup5\n        /* \"#utility.yul\":10257:10294   */\n      tag_54\n      jump\t// in\n    tag_180:\n        /* \"#utility.yul\":10245:10294   */\n      swap1\n      pop\n        /* \"#utility.yul\":10225:10296   */\n    tag_179:\n        /* \"#utility.yul\":10315:10361   */\n      tag_181\n        /* \"#utility.yul\":10352:10360   */\n      dup2\n        /* \"#utility.yul\":10315:10361   */\n      tag_64\n      jump\t// in\n    tag_181:\n        /* \"#utility.yul\":10306:10361   */\n      swap3\n      pop\n        /* \"#utility.yul\":10385:10386   */\n      0x03\n        /* \"#utility.yul\":10377:10383   */\n      dup3\n        /* \"#utility.yul\":10374:10387   */\n      lt\n        /* \"#utility.yul\":10371:10647   */\n      iszero\n      tag_182\n      jumpi\n        /* \"#utility.yul\":10455:10623   */\n      tag_183\n        /* \"#utility.yul\":10539:10605   */\n      0xffffff0000000000000000000000000000000000000000000000000000000000\n        /* \"#utility.yul\":10509:10515   */\n      dup4\n        /* \"#utility.yul\":10506:10507   */\n      0x03\n        /* \"#utility.yul\":10502:10516   */\n      sub\n        /* \"#utility.yul\":10499:10500   */\n      0x08\n        /* \"#utility.yul\":10495:10517   */\n      mul\n        /* \"#utility.yul\":10455:10623   */\n      tag_50\n      jump\t// in\n    tag_183:\n        /* \"#utility.yul\":10432:10437   */\n      dup4\n        /* \"#utility.yul\":10411:10637   */\n      and\n        /* \"#utility.yul\":10402:10637   */\n      swap3\n      pop\n        /* \"#utility.yul\":10371:10647   */\n    tag_182:\n        /* \"#utility.yul\":10125:10654   */\n      pop\n      pop\n        /* \"#utility.yul\":10039:10654   */\n      swap2\n      swap1\n      pop\n      jump\t// out\n        /* \"#utility.yul\":10660:10777   */\n    tag_65:\n        /* \"#utility.yul\":10769:10770   */\n      0x00\n        /* \"#utility.yul\":10766:10767   */\n      dup1\n        /* \"#utility.yul\":10759:10771   */\n      revert\n        /* \"#utility.yul\":10783:10900   */\n    tag_66:\n        /* \"#utility.yul\":10892:10893   */\n      0x00\n        /* \"#utility.yul\":10889:10890   */\n      dup1\n        /* \"#utility.yul\":10882:10894   */\n      revert\n        /* \"#utility.yul\":10906:11375   */\n    tag_21:\n        /* \"#utility.yul\":11011:11020   */\n      0x00\n        /* \"#utility.yul\":11022:11031   */\n      dup1\n        /* \"#utility.yul\":11060:11068   */\n      dup6\n        /* \"#utility.yul\":11048:11058   */\n      dup6\n        /* \"#utility.yul\":11045:11069   */\n      gt\n        /* \"#utility.yul\":11042:11153   */\n      iszero\n      tag_187\n      jumpi\n        /* \"#utility.yul\":11072:11151   */\n      tag_188\n      tag_65\n      jump\t// in\n    tag_188:\n        /* \"#utility.yul\":11042:11153   */\n    tag_187:\n        /* \"#utility.yul\":11178:11184   */\n      dup4\n        /* \"#utility.yul\":11168:11176   */\n      dup7\n        /* \"#utility.yul\":11165:11185   */\n      gt\n        /* \"#utility.yul\":11162:11269   */\n      iszero\n      tag_189\n      jumpi\n        /* \"#utility.yul\":11188:11267   */\n      tag_190\n      tag_66\n      jump\t// in\n    tag_190:\n        /* \"#utility.yul\":11162:11269   */\n    tag_189:\n        /* \"#utility.yul\":11319:11320   */\n      0x01\n        /* \"#utility.yul\":11307:11317   */\n      dup6\n        /* \"#utility.yul\":11303:11321   */\n      mul\n        /* \"#utility.yul\":11295:11301   */\n      dup4\n        /* \"#utility.yul\":11291:11322   */\n      add\n        /* \"#utility.yul\":11278:11322   */\n      swap2\n      pop\n        /* \"#utility.yul\":11358:11368   */\n      dup5\n        /* \"#utility.yul\":11348:11356   */\n      dup7\n        /* \"#utility.yul\":11344:11369   */\n      sub\n        /* \"#utility.yul\":11331:11369   */\n      swap1\n      pop\n        /* \"#utility.yul\":10906:11375   */\n      swap5\n      pop\n      swap5\n      swap3\n      pop\n      pop\n      pop\n      jump\t// out\n        /* \"#utility.yul\":11381:11477   */\n    tag_67:\n        /* \"#utility.yul\":11439:11445   */\n      0x00\n        /* \"#utility.yul\":11467:11470   */\n      dup3\n        /* \"#utility.yul\":11457:11470   */\n      swap1\n      pop\n        /* \"#utility.yul\":11381:11477   */\n      swap3\n      swap2\n      pop\n      pop\n      jump\t// out\n        /* \"#utility.yul\":11575:12127   */\n    tag_23:\n        /* \"#utility.yul\":11666:11671   */\n      0x00\n        /* \"#utility.yul\":11697:11742   */\n      tag_194\n        /* \"#utility.yul\":11738:11741   */\n      dup4\n        /* \"#utility.yul\":11731:11736   */\n      dup4\n        /* \"#utility.yul\":11697:11742   */\n      tag_67\n      jump\t// in\n    tag_194:\n        /* \"#utility.yul\":11767:11772   */\n      dup3\n        /* \"#utility.yul\":11791:11832   */\n      tag_195\n        /* \"#utility.yul\":11822:11830   */\n      dup2\n        /* \"#utility.yul\":11809:11831   */\n      calldataload\n        /* \"#utility.yul\":11791:11832   */\n      tag_40\n      jump\t// in\n    tag_195:\n        /* \"#utility.yul\":11782:11832   */\n      swap3\n      pop\n        /* \"#utility.yul\":11856:11858   */\n      0x10\n        /* \"#utility.yul\":11848:11854   */\n      dup3\n        /* \"#utility.yul\":11845:11859   */\n      lt\n        /* \"#utility.yul\":11842:12120   */\n      iszero\n      tag_196\n      jumpi\n        /* \"#utility.yul\":11927:12096   */\n      tag_197\n        /* \"#utility.yul\":12012:12078   */\n      0xffffffffffffffffffffffffffffffff00000000000000000000000000000000\n        /* \"#utility.yul\":11982:11988   */\n      dup4\n        /* \"#utility.yul\":11978:11980   */\n      0x10\n        /* \"#utility.yul\":11974:11989   */\n      sub\n        /* \"#utility.yul\":11971:11972   */\n      0x08\n        /* \"#utility.yul\":11967:11990   */\n      mul\n        /* \"#utility.yul\":11927:12096   */\n      tag_50\n      jump\t// in\n    tag_197:\n        /* \"#utility.yul\":11904:11909   */\n      dup4\n        /* \"#utility.yul\":11883:12110   */\n      and\n        /* \"#utility.yul\":11874:12110   */\n      swap3\n      pop\n        /* \"#utility.yul\":11842:12120   */\n    tag_196:\n        /* \"#utility.yul\":11672:12127   */\n      pop\n      pop\n        /* \"#utility.yul\":11575:12127   */\n      swap3\n      swap2\n      pop\n      pop\n      jump\t// out\n\n    auxdata: 0xa26469706673582212206a0fddef0c8442c07c9ce988cc73ad2ad886d9522a4453dd33642b0980b0a4eb64736f6c634300081a0033\n}\n",
				"bytecode": {
					"linkReferences": {},
					"object": "60806040526040518060400160405280600881526020017f61626364656667680000000000000000000000000000000000000000000000008152505f90816100479190610293565b50348015610053575f80fd5b50610362565b5f81519050919050565b7f4e487b71000000000000000000000000000000000000000000000000000000005f52604160045260245ffd5b7f4e487b71000000000000000000000000000000000000000000000000000000005f52602260045260245ffd5b5f60028204905060018216806100d457607f821691505b6020821081036100e7576100e6610090565b5b50919050565b5f819050815f5260205f209050919050565b5f6020601f8301049050919050565b5f82821b905092915050565b5f600883026101497fffffffffffffffffffffffffffffffffffffffffffffffffffffffffffffffff8261010e565b610153868361010e565b95508019841693508086168417925050509392505050565b5f819050919050565b5f819050919050565b5f61019761019261018d8461016b565b610174565b61016b565b9050919050565b5f819050919050565b6101b08361017d565b6101c46101bc8261019e565b84845461011a565b825550505050565b5f90565b6101d86101cc565b6101e38184846101a7565b505050565b5b81811015610206576101fb5f826101d0565b6001810190506101e9565b5050565b601f82111561024b5761021c816100ed565b610225846100ff565b81016020851015610234578190505b610248610240856100ff565b8301826101e8565b50505b505050565b5f82821c905092915050565b5f61026b5f1984600802610250565b1980831691505092915050565b5f610283838361025c565b9150826002028217905092915050565b61029c82610059565b67ffffffffffffffff8111156102b5576102b4610063565b5b6102bf82546100bd565b6102ca82828561020a565b5f60209050601f8311600181146102fb575f84156102e9578287015190505b6102f38582610278565b86555061035a565b601f198416610309866100ed565b5f5b828110156103305784890151825560018201915060208501945060208101905061030b565b8683101561034d5784890151610349601f89168261025c565b8355505b6001600288020188555050505b505050505050565b6107968061036f5f395ff3fe608060405234801561000f575f80fd5b5060043610610029575f3560e01c8063fa0a346f1461002d575b5f80fd5b610047600480360381019061004291906102a6565b61005e565b604051610055929190610393565b60405180910390f35b5f80601085859050146100a6576040517f08c379a000000000000000000000000000000000000000000000000000000000815260040161009d906103ed565b60405180910390fd5b5f836100b190610444565b90505f6100bd90610582565b90505f806100ca90610646565b905086865f906008926100df939291906106be565b906100ea9190610702565b91508181935093505050935093915050565b5f604051905090565b5f80fd5b5f80fd5b5f80fd5b5f80fd5b5f80fd5b5f8083601f84011261012e5761012d61010d565b5b8235905067ffffffffffffffff81111561014b5761014a610111565b5b60208301915083600182028301111561016757610166610115565b5b9250929050565b5f80fd5b5f601f19601f8301169050919050565b7f4e487b71000000000000000000000000000000000000000000000000000000005f52604160045260245ffd5b6101b882610172565b810181811067ffffffffffffffff821117156101d7576101d6610182565b5b80604052505050565b5f6101e96100fc565b90506101f582826101af565b919050565b5f67ffffffffffffffff82111561021457610213610182565b5b61021d82610172565b9050602081019050919050565b828183375f83830152505050565b5f61024a610245846101fa565b6101e0565b9050828152602081018484840111156102665761026561016e565b5b61027184828561022a565b509392505050565b5f82601f83011261028d5761028c61010d565b5b813561029d848260208601610238565b91505092915050565b5f805f604084860312156102bd576102bc610105565b5b5f84013567ffffffffffffffff8111156102da576102d9610109565b5b6102e686828701610119565b9350935050602084013567ffffffffffffffff81111561030957610308610109565b5b61031586828701610279565b9150509250925092565b5f7fffffffffffffffffffffffffffffffff0000000000000000000000000000000082169050919050565b6103538161031f565b82525050565b5f7fffffff000000000000000000000000000000000000000000000000000000000082169050919050565b61038d81610359565b82525050565b5f6040820190506103a65f83018561034a565b6103b36020830184610384565b9392505050565b5f82825260208201905092915050565b50565b5f6103d85f836103ba565b91506103e3826103ca565b5f82019050919050565b5f6020820190508181035f830152610404816103cd565b9050919050565b5f81519050919050565b5f819050602082019050919050565b5f61042f825161031f565b80915050919050565b5f82821b905092915050565b5f61044e8261040b565b8261045884610415565b905061046381610424565b925060108210156104a35761049e7fffffffffffffffffffffffffffffffff0000000000000000000000000000000083601003600802610438565b831692505b5050919050565b7f4e487b71000000000000000000000000000000000000000000000000000000005f52602260045260245ffd5b5f60028204905060018216806104ee57607f821691505b602082108103610501576105006104aa565b5b50919050565b5f81549050610515816104d7565b9050919050565b5f819050815f5260205f209050919050565b5f8160801c9050919050565b5f8160801b9050919050565b5f6105508261053a565b9050919050565b5f6105696105648361052e565b610546565b9050919050565b5f61057b8254610557565b9050919050565b5f61058c82610507565b82601f8211156105a25761059f8461051c565b90505b6105ab81610570565b925060108210156105eb576105e67fffffffffffffffffffffffffffffffff0000000000000000000000000000000083601003600802610438565b831692505b5050919050565b5f8160e81c9050919050565b5f8160e81b9050919050565b5f610614826105fe565b9050919050565b5f61062d610628836105f2565b61060a565b9050919050565b5f61063f825461061b565b9050919050565b5f61065082610507565b82601f821115610666576106638461051c565b90505b61066f81610634565b925060038210156106af576106aa7fffffff000000000000000000000000000000000000000000000000000000000083600303600802610438565b831692505b5050919050565b5f80fd5b5f80fd5b5f80858511156106d1576106d06106b6565b5b838611156106e2576106e16106ba565b5b6001850283019150848603905094509492505050565b5f82905092915050565b5f61070d83836106f8565b82610718813561031f565b92506010821015610758576107537fffffffffffffffffffffffffffffffff0000000000000000000000000000000083601003600802610438565b831692505b50509291505056fea26469706673582212206a0fddef0c8442c07c9ce988cc73ad2ad886d9522a4453dd33642b0980b0a4eb64736f6c634300081a0033",
					"opcodes": "PUSH1 0x80 PUSH1 0x40 MSTORE PUSH1 0x40 MLOAD DUP1 PUSH1 0x40 ADD PUSH1 0x40 MSTORE DUP1 PUSH1 0x8 DUP2 MSTORE PUSH1 0x20 ADD PUSH32 0x6162636465666768000000000000000000000000000000000000000000000000 DUP2 MSTORE POP PUSH0 SWAP1 DUP2 PUSH2 0x47 SWAP2 SWAP1 PUSH2 0x293 JUMP JUMPDEST POP CALLVALUE DUP1 ISZERO PUSH2 0x53 JUMPI PUSH0 DUP1 REVERT JUMPDEST POP PUSH2 0x362 JUMP JUMPDEST PUSH0 DUP2 MLOAD SWAP1 POP SWAP2 SWAP1 POP JUMP JUMPDEST PUSH32 0x4E487B7100000000000000000000000000000000000000000000000000000000 PUSH0 MSTORE PUSH1 0x41 PUSH1 0x4 MSTORE PUSH1 0x24 PUSH0 REVERT JUMPDEST PUSH32 0x4E487B7100000000000000000000000000000000000000000000000000000000 PUSH0 MSTORE PUSH1 0x22 PUSH1 0x4 MSTORE PUSH1 0x24 PUSH0 REVERT JUMPDEST PUSH0 PUSH1 0x2 DUP3 DIV SWAP1 POP PUSH1 0x1 DUP3 AND DUP1 PUSH2 0xD4 JUMPI PUSH1 0x7F DUP3 AND SWAP2 POP JUMPDEST PUSH1 0x20 DUP3 LT DUP2 SUB PUSH2 0xE7 JUMPI PUSH2 0xE6 PUSH2 0x90 JUMP JUMPDEST JUMPDEST POP SWAP2 SWAP1 POP JUMP JUMPDEST PUSH0 DUP2 SWAP1 POP DUP2 PUSH0 MSTORE PUSH1 0x20 PUSH0 KECCAK256 SWAP1 POP SWAP2 SWAP1 POP JUMP JUMPDEST PUSH0 PUSH1 0x20 PUSH1 0x1F DUP4 ADD DIV SWAP1 POP SWAP2 SWAP1 POP JUMP JUMPDEST PUSH0 DUP3 DUP3 SHL SWAP1 POP SWAP3 SWAP2 POP POP JUMP JUMPDEST PUSH0 PUSH1 0x8 DUP4 MUL PUSH2 0x149 PUSH32 0xFFFFFFFFFFFFFFFFFFFFFFFFFFFFFFFFFFFFFFFFFFFFFFFFFFFFFFFFFFFFFFFF DUP3 PUSH2 0x10E JUMP JUMPDEST PUSH2 0x153 DUP7 DUP4 PUSH2 0x10E JUMP JUMPDEST SWAP6 POP DUP1 NOT DUP5 AND SWAP4 POP DUP1 DUP7 AND DUP5 OR SWAP3 POP POP POP SWAP4 SWAP3 POP POP POP JUMP JUMPDEST PUSH0 DUP2 SWAP1 POP SWAP2 SWAP1 POP JUMP JUMPDEST PUSH0 DUP2 SWAP1 POP SWAP2 SWAP1 POP JUMP JUMPDEST PUSH0 PUSH2 0x197 PUSH2 0x192 PUSH2 0x18D DUP5 PUSH2 0x16B JUMP JUMPDEST PUSH2 0x174 JUMP JUMPDEST PUSH2 0x16B JUMP JUMPDEST SWAP1 POP SWAP2 SWAP1 POP JUMP JUMPDEST PUSH0 DUP2 SWAP1 POP SWAP2 SWAP1 POP JUMP JUMPDEST PUSH2 0x1B0 DUP4 PUSH2 0x17D JUMP JUMPDEST PUSH2 0x1C4 PUSH2 0x1BC DUP3 PUSH2 0x19E JUMP JUMPDEST DUP5 DUP5 SLOAD PUSH2 0x11A JUMP JUMPDEST DUP3 SSTORE POP POP POP POP JUMP JUMPDEST PUSH0 SWAP1 JUMP JUMPDEST PUSH2 0x1D8 PUSH2 0x1CC JUMP JUMPDEST PUSH2 0x1E3 DUP2 DUP5 DUP5 PUSH2 0x1A7 JUMP JUMPDEST POP POP POP JUMP JUMPDEST JUMPDEST DUP2 DUP2 LT ISZERO PUSH2 0x206 JUMPI PUSH2 0x1FB PUSH0 DUP3 PUSH2 0x1D0 JUMP JUMPDEST PUSH1 0x1 DUP2 ADD SWAP1 POP PUSH2 0x1E9 JUMP JUMPDEST POP POP JUMP JUMPDEST PUSH1 0x1F DUP3 GT ISZERO PUSH2 0x24B JUMPI PUSH2 0x21C DUP2 PUSH2 0xED JUMP JUMPDEST PUSH2 0x225 DUP5 PUSH2 0xFF JUMP JUMPDEST DUP2 ADD PUSH1 0x20 DUP6 LT ISZERO PUSH2 0x234 JUMPI DUP2 SWAP1 POP JUMPDEST PUSH2 0x248 PUSH2 0x240 DUP6 PUSH2 0xFF JUMP JUMPDEST DUP4 ADD DUP3 PUSH2 0x1E8 JUMP JUMPDEST POP POP JUMPDEST POP POP POP JUMP JUMPDEST PUSH0 DUP3 DUP3 SHR SWAP1 POP SWAP3 SWAP2 POP POP JUMP JUMPDEST PUSH0 PUSH2 0x26B PUSH0 NOT DUP5 PUSH1 0x8 MUL PUSH2 0x250 JUMP JUMPDEST NOT DUP1 DUP4 AND SWAP2 POP POP SWAP3 SWAP2 POP POP JUMP JUMPDEST PUSH0 PUSH2 0x283 DUP4 DUP4 PUSH2 0x25C JUMP JUMPDEST SWAP2 POP DUP3 PUSH1 0x2 MUL DUP3 OR SWAP1 POP SWAP3 SWAP2 POP POP JUMP JUMPDEST PUSH2 0x29C DUP3 PUSH2 0x59 JUMP JUMPDEST PUSH8 0xFFFFFFFFFFFFFFFF DUP2 GT ISZERO PUSH2 0x2B5 JUMPI PUSH2 0x2B4 PUSH2 0x63 JUMP JUMPDEST JUMPDEST PUSH2 0x2BF DUP3 SLOAD PUSH2 0xBD JUMP JUMPDEST PUSH2 0x2CA DUP3 DUP3 DUP6 PUSH2 0x20A JUMP JUMPDEST PUSH0 PUSH1 0x20 SWAP1 POP PUSH1 0x1F DUP4 GT PUSH1 0x1 DUP2 EQ PUSH2 0x2FB JUMPI PUSH0 DUP5 ISZERO PUSH2 0x2E9 JUMPI DUP3 DUP8 ADD MLOAD SWAP1 POP JUMPDEST PUSH2 0x2F3 DUP6 DUP3 PUSH2 0x278 JUMP JUMPDEST DUP7 SSTORE POP PUSH2 0x35A JUMP JUMPDEST PUSH1 0x1F NOT DUP5 AND PUSH2 0x309 DUP7 PUSH2 0xED JUMP JUMPDEST PUSH0 JUMPDEST DUP3 DUP2 LT ISZERO PUSH2 0x330 JUMPI DUP5 DUP10 ADD MLOAD DUP3 SSTORE PUSH1 0x1 DUP3 ADD SWAP2 POP PUSH1 0x20 DUP6 ADD SWAP5 POP PUSH1 0x20 DUP2 ADD SWAP1 POP PUSH2 0x30B JUMP JUMPDEST DUP7 DUP4 LT ISZERO PUSH2 0x34D JUMPI DUP5 DUP10 ADD MLOAD PUSH2 0x349 PUSH1 0x1F DUP10 AND DUP3 PUSH2 0x25C JUMP JUMPDEST DUP4 SSTORE POP JUMPDEST PUSH1 0x1 PUSH1 0x2 DUP9 MUL ADD DUP9 SSTORE POP POP POP JUMPDEST POP POP POP POP POP POP JUMP JUMPDEST PUSH2 0x796 DUP1 PUSH2 0x36F PUSH0 CODECOPY PUSH0 RETURN INVALID PUSH1 0x80 PUSH1 0x40 MSTORE CALLVALUE DUP1 ISZERO PUSH2 0xF JUMPI PUSH0 DUP1 REVERT JUMPDEST POP PUSH1 0x4 CALLDATASIZE LT PUSH2 0x29 JUMPI PUSH0 CALLDATALOAD PUSH1 0xE0 SHR DUP1 PUSH4 0xFA0A346F EQ PUSH2 0x2D JUMPI JUMPDEST PUSH0 DUP1 REVERT JUMPDEST PUSH2 0x47 PUSH1 0x4 DUP1 CALLDATASIZE SUB DUP2 ADD SWAP1 PUSH2 0x42 SWAP2 SWAP1 PUSH2 0x2A6 JUMP JUMPDEST PUSH2 0x5E JUMP JUMPDEST PUSH1 0x40 MLOAD PUSH2 0x55 SWAP3 SWAP2 SWAP1 PUSH2 0x393 JUMP JUMPDEST PUSH1 0x40 MLOAD DUP1 SWAP2 SUB SWAP1 RETURN JUMPDEST PUSH0 DUP1 PUSH1 0x10 DUP6 DUP6 SWAP1 POP EQ PUSH2 0xA6 JUMPI PUSH1 0x40 MLOAD PUSH32 0x8C379A000000000000000000000000000000000000000000000000000000000 DUP2 MSTORE PUSH1 0x4 ADD PUSH2 0x9D SWAP1 PUSH2 0x3ED JUMP JUMPDEST PUSH1 0x40 MLOAD DUP1 SWAP2 SUB SWAP1 REVERT JUMPDEST PUSH0 DUP4 PUSH2 0xB1 SWAP1 PUSH2 0x444 JUMP JUMPDEST SWAP1 POP PUSH0 PUSH2 0xBD SWAP1 PUSH2 0x582 JUMP JUMPDEST SWAP1 POP PUSH0 DUP1 PUSH2 0xCA SWAP1 PUSH2 0x646 JUMP JUMPDEST SWAP1 POP DUP7 DUP7 PUSH0 SWAP1 PUSH1 0x8 SWAP3 PUSH2 0xDF SWAP4 SWAP3 SWAP2 SWAP1 PUSH2 0x6BE JUMP JUMPDEST SWAP1 PUSH2 0xEA SWAP2 SWAP1 PUSH2 0x702 JUMP JUMPDEST SWAP2 POP DUP2 DUP2 SWAP4 POP SWAP4 POP POP POP SWAP4 POP SWAP4 SWAP2 POP POP JUMP JUMPDEST PUSH0 PUSH1 0x40 MLOAD SWAP1 POP SWAP1 JUMP JUMPDEST PUSH0 DUP1 REVERT JUMPDEST PUSH0 DUP1 REVERT JUMPDEST PUSH0 DUP1 REVERT JUMPDEST PUSH0 DUP1 REVERT JUMPDEST PUSH0 DUP1 REVERT JUMPDEST PUSH0 DUP1 DUP4 PUSH1 0x1F DUP5 ADD SLT PUSH2 0x12E JUMPI PUSH2 0x12D PUSH2 0x10D JUMP JUMPDEST JUMPDEST DUP3 CALLDATALOAD SWAP1 POP PUSH8 0xFFFFFFFFFFFFFFFF DUP2 GT ISZERO PUSH2 0x14B JUMPI PUSH2 0x14A PUSH2 0x111 JUMP JUMPDEST JUMPDEST PUSH1 0x20 DUP4 ADD SWAP2 POP DUP4 PUSH1 0x1 DUP3 MUL DUP4 ADD GT ISZERO PUSH2 0x167 JUMPI PUSH2 0x166 PUSH2 0x115 JUMP JUMPDEST JUMPDEST SWAP3 POP SWAP3 SWAP1 POP JUMP JUMPDEST PUSH0 DUP1 REVERT JUMPDEST PUSH0 PUSH1 0x1F NOT PUSH1 0x1F DUP4 ADD AND SWAP1 POP SWAP2 SWAP1 POP JUMP JUMPDEST PUSH32 0x4E487B7100000000000000000000000000000000000000000000000000000000 PUSH0 MSTORE PUSH1 0x41 PUSH1 0x4 MSTORE PUSH1 0x24 PUSH0 REVERT JUMPDEST PUSH2 0x1B8 DUP3 PUSH2 0x172 JUMP JUMPDEST DUP2 ADD DUP2 DUP2 LT PUSH8 0xFFFFFFFFFFFFFFFF DUP3 GT OR ISZERO PUSH2 0x1D7 JUMPI PUSH2 0x1D6 PUSH2 0x182 JUMP JUMPDEST JUMPDEST DUP1 PUSH1 0x40 MSTORE POP POP POP JUMP JUMPDEST PUSH0 PUSH2 0x1E9 PUSH2 0xFC JUMP JUMPDEST SWAP1 POP PUSH2 0x1F5 DUP3 DUP3 PUSH2 0x1AF JUMP JUMPDEST SWAP2 SWAP1 POP JUMP JUMPDEST PUSH0 PUSH8 0xFFFFFFFFFFFFFFFF DUP3 GT ISZERO PUSH2 0x214 JUMPI PUSH2 0x213 PUSH2 0x182 JUMP JUMPDEST JUMPDEST PUSH2 0x21D DUP3 PUSH2 0x172 JUMP JUMPDEST SWAP1 POP PUSH1 0x20 DUP2 ADD SWAP1 POP SWAP2 SWAP1 POP JUMP JUMPDEST DUP3 DUP2 DUP4 CALLDATACOPY PUSH0 DUP4 DUP4 ADD MSTORE POP POP POP JUMP JUMPDEST PUSH0 PUSH2 0x24A PUSH2 0x245 DUP5 PUSH2 0x1FA JUMP JUMPDEST PUSH2 0x1E0 JUMP JUMPDEST SWAP1 POP DUP3 DUP2 MSTORE PUSH1 0x20 DUP2 ADD DUP5 DUP5 DUP5 ADD GT ISZERO PUSH2 0x266 JUMPI PUSH2 0x265 PUSH2 0x16E JUMP JUMPDEST JUMPDEST PUSH2 0x271 DUP5 DUP3 DUP6 PUSH2 0x22A JUMP JUMPDEST POP SWAP4 SWAP3 POP POP POP JUMP JUMPDEST PUSH0 DUP3 PUSH1 0x1F DUP4 ADD SLT PUSH2 0x28D JUMPI PUSH2 0x28C PUSH2 0x10D JUMP JUMPDEST JUMPDEST DUP2 CALLDATALOAD PUSH2 0x29D DUP5 DUP3 PUSH1 0x20 DUP7 ADD PUSH2 0x238 JUMP JUMPDEST SWAP2 POP POP SWAP3 SWAP2 POP POP JUMP JUMPDEST PUSH0 DUP1 PUSH0 PUSH1 0x40 DUP5 DUP7 SUB SLT ISZERO PUSH2 0x2BD JUMPI PUSH2 0x2BC PUSH2 0x105 JUMP JUMPDEST JUMPDEST PUSH0 DUP5 ADD CALLDATALOAD PUSH8 0xFFFFFFFFFFFFFFFF DUP2 GT ISZERO PUSH2 0x2DA JUMPI PUSH2 0x2D9 PUSH2 0x109 JUMP JUMPDEST JUMPDEST PUSH2 0x2E6 DUP7 DUP3 DUP8 ADD PUSH2 0x119 JUMP JUMPDEST SWAP4 POP SWAP4 POP POP PUSH1 0x20 DUP5 ADD CALLDATALOAD PUSH8 0xFFFFFFFFFFFFFFFF DUP2 GT ISZERO PUSH2 0x309 JUMPI PUSH2 0x308 PUSH2 0x109 JUMP JUMPDEST JUMPDEST PUSH2 0x315 DUP7 DUP3 DUP8 ADD PUSH2 0x279 JUMP JUMPDEST SWAP2 POP POP SWAP3 POP SWAP3 POP SWAP3 JUMP JUMPDEST PUSH0 PUSH32 0xFFFFFFFFFFFFFFFFFFFFFFFFFFFFFFFF00000000000000000000000000000000 DUP3 AND SWAP1 POP SWAP2 SWAP1 POP JUMP JUMPDEST PUSH2 0x353 DUP2 PUSH2 0x31F JUMP JUMPDEST DUP3 MSTORE POP POP JUMP JUMPDEST PUSH0 PUSH32 0xFFFFFF0000000000000000000000000000000000000000000000000000000000 DUP3 AND SWAP1 POP SWAP2 SWAP1 POP JUMP JUMPDEST PUSH2 0x38D DUP2 PUSH2 0x359 JUMP JUMPDEST DUP3 MSTORE POP POP JUMP JUMPDEST PUSH0 PUSH1 0x40 DUP3 ADD SWAP1 POP PUSH2 0x3A6 PUSH0 DUP4 ADD DUP6 PUSH2 0x34A JUMP JUMPDEST PUSH2 0x3B3 PUSH1 0x20 DUP4 ADD DUP5 PUSH2 0x384 JUMP JUMPDEST SWAP4 SWAP3 POP POP POP JUMP JUMPDEST PUSH0 DUP3 DUP3 MSTORE PUSH1 0x20 DUP3 ADD SWAP1 POP SWAP3 SWAP2 POP POP JUMP JUMPDEST POP JUMP JUMPDEST PUSH0 PUSH2 0x3D8 PUSH0 DUP4 PUSH2 0x3BA JUMP JUMPDEST SWAP2 POP PUSH2 0x3E3 DUP3 PUSH2 0x3CA JUMP JUMPDEST PUSH0 DUP3 ADD SWAP1 POP SWAP2 SWAP1 POP JUMP JUMPDEST PUSH0 PUSH1 0x20 DUP3 ADD SWAP1 POP DUP2 DUP2 SUB PUSH0 DUP4 ADD MSTORE PUSH2 0x404 DUP2 PUSH2 0x3CD JUMP JUMPDEST SWAP1 POP SWAP2 SWAP1 POP JUMP JUMPDEST PUSH0 DUP2 MLOAD SWAP1 POP SWAP2 SWAP1 POP JUMP JUMPDEST PUSH0 DUP2 SWAP1 POP PUSH1 0x20 DUP3 ADD SWAP1 POP SWAP2 SWAP1 POP JUMP JUMPDEST PUSH0 PUSH2 0x42F DUP3 MLOAD PUSH2 0x31F JUMP JUMPDEST DUP1 SWAP2 POP POP SWAP2 SWAP1 POP JUMP JUMPDEST PUSH0 DUP3 DUP3 SHL SWAP1 POP SWAP3 SWAP2 POP POP JUMP JUMPDEST PUSH0 PUSH2 0x44E DUP3 PUSH2 0x40B JUMP JUMPDEST DUP3 PUSH2 0x458 DUP5 PUSH2 0x415 JUMP JUMPDEST SWAP1 POP PUSH2 0x463 DUP2 PUSH2 0x424 JUMP JUMPDEST SWAP3 POP PUSH1 0x10 DUP3 LT ISZERO PUSH2 0x4A3 JUMPI PUSH2 0x49E PUSH32 0xFFFFFFFFFFFFFFFFFFFFFFFFFFFFFFFF00000000000000000000000000000000 DUP4 PUSH1 0x10 SUB PUSH1 0x8 MUL PUSH2 0x438 JUMP JUMPDEST DUP4 AND SWAP3 POP JUMPDEST POP POP SWAP2 SWAP1 POP JUMP JUMPDEST PUSH32 0x4E487B7100000000000000000000000000000000000000000000000000000000 PUSH0 MSTORE PUSH1 0x22 PUSH1 0x4 MSTORE PUSH1 0x24 PUSH0 REVERT JUMPDEST PUSH0 PUSH1 0x2 DUP3 DIV SWAP1 POP PUSH1 0x1 DUP3 AND DUP1 PUSH2 0x4EE JUMPI PUSH1 0x7F DUP3 AND SWAP2 POP JUMPDEST PUSH1 0x20 DUP3 LT DUP2 SUB PUSH2 0x501 JUMPI PUSH2 0x500 PUSH2 0x4AA JUMP JUMPDEST JUMPDEST POP SWAP2 SWAP1 POP JUMP JUMPDEST PUSH0 DUP2 SLOAD SWAP1 POP PUSH2 0x515 DUP2 PUSH2 0x4D7 JUMP JUMPDEST SWAP1 POP SWAP2 SWAP1 POP JUMP JUMPDEST PUSH0 DUP2 SWAP1 POP DUP2 PUSH0 MSTORE PUSH1 0x20 PUSH0 KECCAK256 SWAP1 POP SWAP2 SWAP1 POP JUMP JUMPDEST PUSH0 DUP2 PUSH1 0x80 SHR SWAP1 POP SWAP2 SWAP1 POP JUMP JUMPDEST PUSH0 DUP2 PUSH1 0x80 SHL SWAP1 POP SWAP2 SWAP1 POP JUMP JUMPDEST PUSH0 PUSH2 0x550 DUP3 PUSH2 0x53A JUMP JUMPDEST SWAP1 POP SWAP2 SWAP1 POP JUMP JUMPDEST PUSH0 PUSH2 0x569 PUSH2 0x564 DUP4 PUSH2 0x52E JUMP JUMPDEST PUSH2 0x546 JUMP JUMPDEST SWAP1 POP SWAP2 SWAP1 POP JUMP JUMPDEST PUSH0 PUSH2 0x57B DUP3 SLOAD PUSH2 0x557 JUMP JUMPDEST SWAP1 POP SWAP2 SWAP1 POP JUMP JUMPDEST PUSH0 PUSH2 0x58C DUP3 PUSH2 0x507 JUMP JUMPDEST DUP3 PUSH1 0x1F DUP3 GT ISZERO PUSH2 0x5A2 JUMPI PUSH2 0x59F DUP5 PUSH2 0x51C JUMP JUMPDEST SWAP1 POP JUMPDEST PUSH2 0x5AB DUP2 PUSH2 0x570 JUMP JUMPDEST SWAP3 POP PUSH1 0x10 DUP3 LT ISZERO PUSH2 0x5EB JUMPI PUSH2 0x5E6 PUSH32 0xFFFFFFFFFFFFFFFFFFFFFFFFFFFFFFFF00000000000000000000000000000000 DUP4 PUSH1 0x10 SUB PUSH1 0x8 MUL PUSH2 0x438 JUMP JUMPDEST DUP4 AND SWAP3 POP JUMPDEST POP POP SWAP2 SWAP1 POP JUMP JUMPDEST PUSH0 DUP2 PUSH1 0xE8 SHR SWAP1 POP SWAP2 SWAP1 POP JUMP JUMPDEST PUSH0 DUP2 PUSH1 0xE8 SHL SWAP1 POP SWAP2 SWAP1 POP JUMP JUMPDEST PUSH0 PUSH2 0x614 DUP3 PUSH2 0x5FE JUMP JUMPDEST SWAP1 POP SWAP2 SWAP1 POP JUMP JUMPDEST PUSH0 PUSH2 0x62D PUSH2 0x628 DUP4 PUSH2 0x5F2 JUMP JUMPDEST PUSH2 0x60A JUMP JUMPDEST SWAP1 POP SWAP2 SWAP1 POP JUMP JUMPDEST PUSH0 PUSH2 0x63F DUP3 SLOAD PUSH2 0x61B JUMP JUMPDEST SWAP1 POP SWAP2 SWAP1 POP JUMP JUMPDEST PUSH0 PUSH2 0x650 DUP3 PUSH2 0x507 JUMP JUMPDEST DUP3 PUSH1 0x1F DUP3 GT ISZERO PUSH2 0x666 JUMPI PUSH2 0x663 DUP5 PUSH2 0x51C JUMP JUMPDEST SWAP1 POP JUMPDEST PUSH2 0x66F DUP2 PUSH2 0x634 JUMP JUMPDEST SWAP3 POP PUSH1 0x3 DUP3 LT ISZERO PUSH2 0x6AF JUMPI PUSH2 0x6AA PUSH32 0xFFFFFF0000000000000000000000000000000000000000000000000000000000 DUP4 PUSH1 0x3 SUB PUSH1 0x8 MUL PUSH2 0x438 JUMP JUMPDEST DUP4 AND SWAP3 POP JUMPDEST POP POP SWAP2 SWAP1 POP JUMP JUMPDEST PUSH0 DUP1 REVERT JUMPDEST PUSH0 DUP1 REVERT JUMPDEST PUSH0 DUP1 DUP6 DUP6 GT ISZERO PUSH2 0x6D1 JUMPI PUSH2 0x6D0 PUSH2 0x6B6 JUMP JUMPDEST JUMPDEST DUP4 DUP7 GT ISZERO PUSH2 0x6E2 JUMPI PUSH2 0x6E1 PUSH2 0x6BA JUMP JUMPDEST JUMPDEST PUSH1 0x1 DUP6 MUL DUP4 ADD SWAP2 POP DUP5 DUP7 SUB SWAP1 POP SWAP5 POP SWAP5 SWAP3 POP POP POP JUMP JUMPDEST PUSH0 DUP3 SWAP1 POP SWAP3 SWAP2 POP POP JUMP JUMPDEST PUSH0 PUSH2 0x70D DUP4 DUP4 PUSH2 0x6F8 JUMP JUMPDEST DUP3 PUSH2 0x718 DUP2 CALLDATALOAD PUSH2 0x31F JUMP JUMPDEST SWAP3 POP PUSH1 0x10 DUP3 LT ISZERO PUSH2 0x758 JUMPI PUSH2 0x753 PUSH32 0xFFFFFFFFFFFFFFFFFFFFFFFFFFFFFFFF00000000000000000000000000000000 DUP4 PUSH1 0x10 SUB PUSH1 0x8 MUL PUSH2 0x438 JUMP JUMPDEST DUP4 AND SWAP3 POP JUMPDEST POP POP SWAP3 SWAP2 POP POP JUMP INVALID LOG2 PUSH5 0x6970667358 0x22 SLT KECCAK256 PUSH11 0xFDDEF0C8442C07C9CE988 0xCC PUSH20 0xAD2AD886D9522A4453DD33642B0980B0A4EB6473 PUSH16 0x6C634300081A00330000000000000000 "
				},
				"gasEstimates": {
					"creation": {
						"codeDepositCost": "388400",
						"executionCost": "infinite",
						"totalCost": "infinite"
					},
					"external": {
						"f(bytes,bytes)": "infinite"
					}
				},
				"methodIdentifiers": {
					"f(bytes,bytes)": "fa0a346f"
				}
			},
			"storageLayout": {
				"storage": [
					{
						"astId": 243,
						"contract": "contracts/19_MappingExample.sol:C",
						"label": "s",
						"offset": 0,
						"slot": "0",
						"type": "t_bytes_storage"
					}
				],
				"types": {
					"t_bytes_storage": {
						"encoding": "bytes",
						"label": "bytes",
						"numberOfBytes": "32"
					}
				}
			},
			"userdoc": {
				"kind": "user",
				"methods": {},
				"version": 1
			}
		}
	}
}