{
	"data": {
		"bytecode": {
			"linkReferences": {},
			"object": "610cd261004d600b8282823980515f1a6073146041577f4e487b71000000000000000000000000000000000000000000000000000000005f525f60045260245ffd5b305f52607381538281f3fe730000000000000000000000000000000000000000301460806040526004361061006b575f3560e01c806326121ff01461006f578063289311e51461007957806357f9200b14610097578063d14d385d146100c7578063e71360d7146100f7578063fbe73ab314610115575b5f80fd5b610077610145565b005b61008161016e565b60405161008e9190610736565b60405180910390f35b6100b160048036038101906100ac9190610790565b610230565b6040516100be919061082b565b60405180910390f35b6100e160048036038101906100dc9190610979565b610286565b6040516100ee91906109b3565b60405180910390f35b6100ff6102c9565b60405161010c9190610b18565b60405180910390f35b61012f600480360381019061012a9190610790565b61054c565b60405161013c9190610bef565b60405180910390f35b61016b604051806060016040528060018152602001600281526020016003815250610286565b50565b61017661059e565b5f60405180608001604052806040518060400160405280600162ffffff1662ffffff168152602001600162ffffff168152508152602001604051806040016040528062ffffff80168152602001600262ffffff168152508152602001604051806040016040528060ff62ffffff1662ffffff168152602001600362ffffff168152508152602001604051806040016040528061ffff62ffffff1662ffffff168152602001600462ffffff1681525081525090508091505090565b60608167ffffffffffffffff81111561024c5761024b61084f565b5b6040519080825280601f01601f19166020018201604052801561027e5781602001600182028036833780820191505090505b509050919050565b5f815f6003811061029a57610299610c0f565b5b6020020151826001600381106102b3576102b2610c0f565b5b60200201516102c29190610c69565b9050919050565b60605f60405180608001604052806040518060400160405280610fff62ffffff1662ffffff168152602001600262ffffff1681525081526020016040518060400160405280610fff62ffffff1662ffffff168152602001600462ffffff1681525081526020016040518060400160405280610fff62ffffff1662ffffff168152602001600362ffffff1681525081526020016040518060400160405280610fff62ffffff1662ffffff168152602001600562ffffff1681525081525090505f600467ffffffffffffffff8111156103a3576103a261084f565b5b6040519080825280602002602001820160405280156103d657816020015b60608152602001906001900390816103c15790505b5090505f5b600481101561054357600267ffffffffffffffff8111156103ff576103fe61084f565b5b60405190808252806020026020018201604052801561042d5781602001602082028036833780820191505090505b5082828151811061044157610440610c0f565b5b602002602001018190525082816004811061045f5761045e610c0f565b5b60200201515f6002811061047657610475610c0f565b5b602002015182828151811061048e5761048d610c0f565b5b60200260200101515f815181106104a8576104a7610c0f565b5b602002602001019062ffffff16908162ffffff16815250508281600481106104d3576104d2610c0f565b5b60200201516001600281106104eb576104ea610c0f565b5b602002015182828151811061050357610502610c0f565b5b602002602001015160018151811061051e5761051d610c0f565b5b602002602001019062ffffff16908162ffffff168152505080806001019150506103db565b50809250505090565b60608167ffffffffffffffff8111156105685761056761084f565b5b6040519080825280602002602001820160405280156105965781602001602082028036833780820191505090505b509050919050565b60405180608001604052806004905b6105b56105cb565b8152602001906001900390816105ad5790505090565b6040518060400160405280600290602082028036833780820191505090505090565b5f60049050919050565b5f81905092915050565b5f819050919050565b5f60029050919050565b5f81905092915050565b5f819050919050565b5f62ffffff82169050919050565b61063e81610627565b82525050565b5f61064f8383610635565b60208301905092915050565b5f602082019050919050565b6106708161060a565b61067a8184610614565b92506106858261061e565b805f5b838110156106b557815161069c8782610644565b96506106a78361065b565b925050600181019050610688565b505050505050565b5f6106c88383610667565b60408301905092915050565b5f602082019050919050565b6106e9816105ed565b6106f381846105f7565b92506106fe82610601565b805f5b8381101561072e57815161071587826106bd565b9650610720836106d4565b925050600181019050610701565b505050505050565b5f6101008201905061074a5f8301846106e0565b92915050565b5f604051905090565b5f80fd5b5f819050919050565b61076f8161075d565b8114610779575f80fd5b50565b5f8135905061078a81610766565b92915050565b5f602082840312156107a5576107a4610759565b5b5f6107b28482850161077c565b91505092915050565b5f81519050919050565b5f82825260208201905092915050565b8281835e5f83830152505050565b5f601f19601f8301169050919050565b5f6107fd826107bb565b61080781856107c5565b93506108178185602086016107d5565b610820816107e3565b840191505092915050565b5f6020820190508181035f83015261084381846107f3565b905092915050565b5f80fd5b7f4e487b71000000000000000000000000000000000000000000000000000000005f52604160045260245ffd5b610885826107e3565b810181811067ffffffffffffffff821117156108a4576108a361084f565b5b80604052505050565b5f6108b6610750565b90506108c2828261087c565b919050565b5f67ffffffffffffffff8211156108e1576108e061084f565b5b602082029050919050565b5f80fd5b5f6109026108fd846108c7565b6108ad565b9050806020840283018581111561091c5761091b6108ec565b5b835b818110156109455780610931888261077c565b84526020840193505060208101905061091e565b5050509392505050565b5f82601f8301126109635761096261084b565b5b60036109708482856108f0565b91505092915050565b5f6060828403121561098e5761098d610759565b5b5f61099b8482850161094f565b91505092915050565b6109ad8161075d565b82525050565b5f6020820190506109c65f8301846109a4565b92915050565b5f81519050919050565b5f82825260208201905092915050565b5f819050602082019050919050565b5f81519050919050565b5f82825260208201905092915050565b5f819050602082019050919050565b5f602082019050919050565b5f610a34826109f5565b610a3e81856109ff565b9350610a4983610a0f565b805f5b83811015610a79578151610a608882610644565b9750610a6b83610a1e565b925050600181019050610a4c565b5085935050505092915050565b5f610a918383610a2a565b905092915050565b5f602082019050919050565b5f610aaf826109cc565b610ab981856109d6565b935083602082028501610acb856109e6565b805f5b85811015610b065784840389528151610ae78582610a86565b9450610af283610a99565b925060208a01995050600181019050610ace565b50829750879550505050505092915050565b5f6020820190508181035f830152610b308184610aa5565b905092915050565b5f81519050919050565b5f82825260208201905092915050565b5f819050602082019050919050565b610b6a8161075d565b82525050565b5f610b7b8383610b61565b60208301905092915050565b5f602082019050919050565b5f610b9d82610b38565b610ba78185610b42565b9350610bb283610b52565b805f5b83811015610be2578151610bc98882610b70565b9750610bd483610b87565b925050600181019050610bb5565b5085935050505092915050565b5f6020820190508181035f830152610c078184610b93565b905092915050565b7f4e487b71000000000000000000000000000000000000000000000000000000005f52603260045260245ffd5b7f4e487b71000000000000000000000000000000000000000000000000000000005f52601160045260245ffd5b5f610c738261075d565b9150610c7e8361075d565b9250828201905080821115610c9657610c95610c3c565b5b9291505056fea2646970667358221220bec9943e7b4f10652300346d124fc917d3237b440c9124dd3f90e90f40ce9f2f64736f6c634300081a0033",
			"opcodes": "PUSH2 0xCD2 PUSH2 0x4D PUSH1 0xB DUP3 DUP3 DUP3 CODECOPY DUP1 MLOAD PUSH0 BYTE PUSH1 0x73 EQ PUSH1 0x41 JUMPI PUSH32 0x4E487B7100000000000000000000000000000000000000000000000000000000 PUSH0 MSTORE PUSH0 PUSH1 0x4 MSTORE PUSH1 0x24 PUSH0 REVERT JUMPDEST ADDRESS PUSH0 MSTORE PUSH1 0x73 DUP2 MSTORE8 DUP3 DUP2 RETURN INVALID PUSH20 0x0 ADDRESS EQ PUSH1 0x80 PUSH1 0x40 MSTORE PUSH1 0x4 CALLDATASIZE LT PUSH2 0x6B JUMPI PUSH0 CALLDATALOAD PUSH1 0xE0 SHR DUP1 PUSH4 0x26121FF0 EQ PUSH2 0x6F JUMPI DUP1 PUSH4 0x289311E5 EQ PUSH2 0x79 JUMPI DUP1 PUSH4 0x57F9200B EQ PUSH2 0x97 JUMPI DUP1 PUSH4 0xD14D385D EQ PUSH2 0xC7 JUMPI DUP1 PUSH4 0xE71360D7 EQ PUSH2 0xF7 JUMPI DUP1 PUSH4 0xFBE73AB3 EQ PUSH2 0x115 JUMPI JUMPDEST PUSH0 DUP1 REVERT JUMPDEST PUSH2 0x77 PUSH2 0x145 JUMP JUMPDEST STOP JUMPDEST PUSH2 0x81 PUSH2 0x16E JUMP JUMPDEST PUSH1 0x40 MLOAD PUSH2 0x8E SWAP2 SWAP1 PUSH2 0x736 JUMP JUMPDEST PUSH1 0x40 MLOAD DUP1 SWAP2 SUB SWAP1 RETURN JUMPDEST PUSH2 0xB1 PUSH1 0x4 DUP1 CALLDATASIZE SUB DUP2 ADD SWAP1 PUSH2 0xAC SWAP2 SWAP1 PUSH2 0x790 JUMP JUMPDEST PUSH2 0x230 JUMP JUMPDEST PUSH1 0x40 MLOAD PUSH2 0xBE SWAP2 SWAP1 PUSH2 0x82B JUMP JUMPDEST PUSH1 0x40 MLOAD DUP1 SWAP2 SUB SWAP1 RETURN JUMPDEST PUSH2 0xE1 PUSH1 0x4 DUP1 CALLDATASIZE SUB DUP2 ADD SWAP1 PUSH2 0xDC SWAP2 SWAP1 PUSH2 0x979 JUMP JUMPDEST PUSH2 0x286 JUMP JUMPDEST PUSH1 0x40 MLOAD PUSH2 0xEE SWAP2 SWAP1 PUSH2 0x9B3 JUMP JUMPDEST PUSH1 0x40 MLOAD DUP1 SWAP2 SUB SWAP1 RETURN JUMPDEST PUSH2 0xFF PUSH2 0x2C9 JUMP JUMPDEST PUSH1 0x40 MLOAD PUSH2 0x10C SWAP2 SWAP1 PUSH2 0xB18 JUMP JUMPDEST PUSH1 0x40 MLOAD DUP1 SWAP2 SUB SWAP1 RETURN JUMPDEST PUSH2 0x12F PUSH1 0x4 DUP1 CALLDATASIZE SUB DUP2 ADD SWAP1 PUSH2 0x12A SWAP2 SWAP1 PUSH2 0x790 JUMP JUMPDEST PUSH2 0x54C JUMP JUMPDEST PUSH1 0x40 MLOAD PUSH2 0x13C SWAP2 SWAP1 PUSH2 0xBEF JUMP JUMPDEST PUSH1 0x40 MLOAD DUP1 SWAP2 SUB SWAP1 RETURN JUMPDEST PUSH2 0x16B PUSH1 0x40 MLOAD DUP1 PUSH1 0x60 ADD PUSH1 0x40 MSTORE DUP1 PUSH1 0x1 DUP2 MSTORE PUSH1 0x20 ADD PUSH1 0x2 DUP2 MSTORE PUSH1 0x20 ADD PUSH1 0x3 DUP2 MSTORE POP PUSH2 0x286 JUMP JUMPDEST POP JUMP JUMPDEST PUSH2 0x176 PUSH2 0x59E JUMP JUMPDEST PUSH0 PUSH1 0x40 MLOAD DUP1 PUSH1 0x80 ADD PUSH1 0x40 MSTORE DUP1 PUSH1 0x40 MLOAD DUP1 PUSH1 0x40 ADD PUSH1 0x40 MSTORE DUP1 PUSH1 0x1 PUSH3 0xFFFFFF AND PUSH3 0xFFFFFF AND DUP2 MSTORE PUSH1 0x20 ADD PUSH1 0x1 PUSH3 0xFFFFFF AND DUP2 MSTORE POP DUP2 MSTORE PUSH1 0x20 ADD PUSH1 0x40 MLOAD DUP1 PUSH1 0x40 ADD PUSH1 0x40 MSTORE DUP1 PUSH3 0xFFFFFF DUP1 AND DUP2 MSTORE PUSH1 0x20 ADD PUSH1 0x2 PUSH3 0xFFFFFF AND DUP2 MSTORE POP DUP2 MSTORE PUSH1 0x20 ADD PUSH1 0x40 MLOAD DUP1 PUSH1 0x40 ADD PUSH1 0x40 MSTORE DUP1 PUSH1 0xFF PUSH3 0xFFFFFF AND PUSH3 0xFFFFFF AND DUP2 MSTORE PUSH1 0x20 ADD PUSH1 0x3 PUSH3 0xFFFFFF AND DUP2 MSTORE POP DUP2 MSTORE PUSH1 0x20 ADD PUSH1 0x40 MLOAD DUP1 PUSH1 0x40 ADD PUSH1 0x40 MSTORE DUP1 PUSH2 0xFFFF PUSH3 0xFFFFFF AND PUSH3 0xFFFFFF AND DUP2 MSTORE PUSH1 0x20 ADD PUSH1 0x4 PUSH3 0xFFFFFF AND DUP2 MSTORE POP DUP2 MSTORE POP SWAP1 POP DUP1 SWAP2 POP POP SWAP1 JUMP JUMPDEST PUSH1 0x60 DUP2 PUSH8 0xFFFFFFFFFFFFFFFF DUP2 GT ISZERO PUSH2 0x24C JUMPI PUSH2 0x24B PUSH2 0x84F JUMP JUMPDEST JUMPDEST PUSH1 0x40 MLOAD SWAP1 DUP1 DUP3 MSTORE DUP1 PUSH1 0x1F ADD PUSH1 0x1F NOT AND PUSH1 0x20 ADD DUP3 ADD PUSH1 0x40 MSTORE DUP1 ISZERO PUSH2 0x27E JUMPI DUP2 PUSH1 0x20 ADD PUSH1 0x1 DUP3 MUL DUP1 CALLDATASIZE DUP4 CALLDATACOPY DUP1 DUP3 ADD SWAP2 POP POP SWAP1 POP JUMPDEST POP SWAP1 POP SWAP2 SWAP1 POP JUMP JUMPDEST PUSH0 DUP2 PUSH0 PUSH1 0x3 DUP2 LT PUSH2 0x29A JUMPI PUSH2 0x299 PUSH2 0xC0F JUMP JUMPDEST JUMPDEST PUSH1 0x20 MUL ADD MLOAD DUP3 PUSH1 0x1 PUSH1 0x3 DUP2 LT PUSH2 0x2B3 JUMPI PUSH2 0x2B2 PUSH2 0xC0F JUMP JUMPDEST JUMPDEST PUSH1 0x20 MUL ADD MLOAD PUSH2 0x2C2 SWAP2 SWAP1 PUSH2 0xC69 JUMP JUMPDEST SWAP1 POP SWAP2 SWAP1 POP JUMP JUMPDEST PUSH1 0x60 PUSH0 PUSH1 0x40 MLOAD DUP1 PUSH1 0x80 ADD PUSH1 0x40 MSTORE DUP1 PUSH1 0x40 MLOAD DUP1 PUSH1 0x40 ADD PUSH1 0x40 MSTORE DUP1 PUSH2 0xFFF PUSH3 0xFFFFFF AND PUSH3 0xFFFFFF AND DUP2 MSTORE PUSH1 0x20 ADD PUSH1 0x2 PUSH3 0xFFFFFF AND DUP2 MSTORE POP DUP2 MSTORE PUSH1 0x20 ADD PUSH1 0x40 MLOAD DUP1 PUSH1 0x40 ADD PUSH1 0x40 MSTORE DUP1 PUSH2 0xFFF PUSH3 0xFFFFFF AND PUSH3 0xFFFFFF AND DUP2 MSTORE PUSH1 0x20 ADD PUSH1 0x4 PUSH3 0xFFFFFF AND DUP2 MSTORE POP DUP2 MSTORE PUSH1 0x20 ADD PUSH1 0x40 MLOAD DUP1 PUSH1 0x40 ADD PUSH1 0x40 MSTORE DUP1 PUSH2 0xFFF PUSH3 0xFFFFFF AND PUSH3 0xFFFFFF AND DUP2 MSTORE PUSH1 0x20 ADD PUSH1 0x3 PUSH3 0xFFFFFF AND DUP2 MSTORE POP DUP2 MSTORE PUSH1 0x20 ADD PUSH1 0x40 MLOAD DUP1 PUSH1 0x40 ADD PUSH1 0x40 MSTORE DUP1 PUSH2 0xFFF PUSH3 0xFFFFFF AND PUSH3 0xFFFFFF AND DUP2 MSTORE PUSH1 0x20 ADD PUSH1 0x5 PUSH3 0xFFFFFF AND DUP2 MSTORE POP DUP2 MSTORE POP SWAP1 POP PUSH0 PUSH1 0x4 PUSH8 0xFFFFFFFFFFFFFFFF DUP2 GT ISZERO PUSH2 0x3A3 JUMPI PUSH2 0x3A2 PUSH2 0x84F JUMP JUMPDEST JUMPDEST PUSH1 0x40 MLOAD SWAP1 DUP1 DUP3 MSTORE DUP1 PUSH1 0x20 MUL PUSH1 0x20 ADD DUP3 ADD PUSH1 0x40 MSTORE DUP1 ISZERO PUSH2 0x3D6 JUMPI DUP2 PUSH1 0x20 ADD JUMPDEST PUSH1 0x60 DUP2 MSTORE PUSH1 0x20 ADD SWAP1 PUSH1 0x1 SWAP1 SUB SWAP1 DUP2 PUSH2 0x3C1 JUMPI SWAP1 POP JUMPDEST POP SWAP1 POP PUSH0 JUMPDEST PUSH1 0x4 DUP2 LT ISZERO PUSH2 0x543 JUMPI PUSH1 0x2 PUSH8 0xFFFFFFFFFFFFFFFF DUP2 GT ISZERO PUSH2 0x3FF JUMPI PUSH2 0x3FE PUSH2 0x84F JUMP JUMPDEST JUMPDEST PUSH1 0x40 MLOAD SWAP1 DUP1 DUP3 MSTORE DUP1 PUSH1 0x20 MUL PUSH1 0x20 ADD DUP3 ADD PUSH1 0x40 MSTORE DUP1 ISZERO PUSH2 0x42D JUMPI DUP2 PUSH1 0x20 ADD PUSH1 0x20 DUP3 MUL DUP1 CALLDATASIZE DUP4 CALLDATACOPY DUP1 DUP3 ADD SWAP2 POP POP SWAP1 POP JUMPDEST POP DUP3 DUP3 DUP2 MLOAD DUP2 LT PUSH2 0x441 JUMPI PUSH2 0x440 PUSH2 0xC0F JUMP JUMPDEST JUMPDEST PUSH1 0x20 MUL PUSH1 0x20 ADD ADD DUP2 SWAP1 MSTORE POP DUP3 DUP2 PUSH1 0x4 DUP2 LT PUSH2 0x45F JUMPI PUSH2 0x45E PUSH2 0xC0F JUMP JUMPDEST JUMPDEST PUSH1 0x20 MUL ADD MLOAD PUSH0 PUSH1 0x2 DUP2 LT PUSH2 0x476 JUMPI PUSH2 0x475 PUSH2 0xC0F JUMP JUMPDEST JUMPDEST PUSH1 0x20 MUL ADD MLOAD DUP3 DUP3 DUP2 MLOAD DUP2 LT PUSH2 0x48E JUMPI PUSH2 0x48D PUSH2 0xC0F JUMP JUMPDEST JUMPDEST PUSH1 0x20 MUL PUSH1 0x20 ADD ADD MLOAD PUSH0 DUP2 MLOAD DUP2 LT PUSH2 0x4A8 JUMPI PUSH2 0x4A7 PUSH2 0xC0F JUMP JUMPDEST JUMPDEST PUSH1 0x20 MUL PUSH1 0x20 ADD ADD SWAP1 PUSH3 0xFFFFFF AND SWAP1 DUP2 PUSH3 0xFFFFFF AND DUP2 MSTORE POP POP DUP3 DUP2 PUSH1 0x4 DUP2 LT PUSH2 0x4D3 JUMPI PUSH2 0x4D2 PUSH2 0xC0F JUMP JUMPDEST JUMPDEST PUSH1 0x20 MUL ADD MLOAD PUSH1 0x1 PUSH1 0x2 DUP2 LT PUSH2 0x4EB JUMPI PUSH2 0x4EA PUSH2 0xC0F JUMP JUMPDEST JUMPDEST PUSH1 0x20 MUL ADD MLOAD DUP3 DUP3 DUP2 MLOAD DUP2 LT PUSH2 0x503 JUMPI PUSH2 0x502 PUSH2 0xC0F JUMP JUMPDEST JUMPDEST PUSH1 0x20 MUL PUSH1 0x20 ADD ADD MLOAD PUSH1 0x1 DUP2 MLOAD DUP2 LT PUSH2 0x51E JUMPI PUSH2 0x51D PUSH2 0xC0F JUMP JUMPDEST JUMPDEST PUSH1 0x20 MUL PUSH1 0x20 ADD ADD SWAP1 PUSH3 0xFFFFFF AND SWAP1 DUP2 PUSH3 0xFFFFFF AND DUP2 MSTORE POP POP DUP1 DUP1 PUSH1 0x1 ADD SWAP2 POP POP PUSH2 0x3DB JUMP JUMPDEST POP DUP1 SWAP3 POP POP POP SWAP1 JUMP JUMPDEST PUSH1 0x60 DUP2 PUSH8 0xFFFFFFFFFFFFFFFF DUP2 GT ISZERO PUSH2 0x568 JUMPI PUSH2 0x567 PUSH2 0x84F JUMP JUMPDEST JUMPDEST PUSH1 0x40 MLOAD SWAP1 DUP1 DUP3 MSTORE DUP1 PUSH1 0x20 MUL PUSH1 0x20 ADD DUP3 ADD PUSH1 0x40 MSTORE DUP1 ISZERO PUSH2 0x596 JUMPI DUP2 PUSH1 0x20 ADD PUSH1 0x20 DUP3 MUL DUP1 CALLDATASIZE DUP4 CALLDATACOPY DUP1 DUP3 ADD SWAP2 POP POP SWAP1 POP JUMPDEST POP SWAP1 POP SWAP2 SWAP1 POP JUMP JUMPDEST PUSH1 0x40 MLOAD DUP1 PUSH1 0x80 ADD PUSH1 0x40 MSTORE DUP1 PUSH1 0x4 SWAP1 JUMPDEST PUSH2 0x5B5 PUSH2 0x5CB JUMP JUMPDEST DUP2 MSTORE PUSH1 0x20 ADD SWAP1 PUSH1 0x1 SWAP1 SUB SWAP1 DUP2 PUSH2 0x5AD JUMPI SWAP1 POP POP SWAP1 JUMP JUMPDEST PUSH1 0x40 MLOAD DUP1 PUSH1 0x40 ADD PUSH1 0x40 MSTORE DUP1 PUSH1 0x2 SWAP1 PUSH1 0x20 DUP3 MUL DUP1 CALLDATASIZE DUP4 CALLDATACOPY DUP1 DUP3 ADD SWAP2 POP POP SWAP1 POP POP SWAP1 JUMP JUMPDEST PUSH0 PUSH1 0x4 SWAP1 POP SWAP2 SWAP1 POP JUMP JUMPDEST PUSH0 DUP2 SWAP1 POP SWAP3 SWAP2 POP POP JUMP JUMPDEST PUSH0 DUP2 SWAP1 POP SWAP2 SWAP1 POP JUMP JUMPDEST PUSH0 PUSH1 0x2 SWAP1 POP SWAP2 SWAP1 POP JUMP JUMPDEST PUSH0 DUP2 SWAP1 POP SWAP3 SWAP2 POP POP JUMP JUMPDEST PUSH0 DUP2 SWAP1 POP SWAP2 SWAP1 POP JUMP JUMPDEST PUSH0 PUSH3 0xFFFFFF DUP3 AND SWAP1 POP SWAP2 SWAP1 POP JUMP JUMPDEST PUSH2 0x63E DUP2 PUSH2 0x627 JUMP JUMPDEST DUP3 MSTORE POP POP JUMP JUMPDEST PUSH0 PUSH2 0x64F DUP4 DUP4 PUSH2 0x635 JUMP JUMPDEST PUSH1 0x20 DUP4 ADD SWAP1 POP SWAP3 SWAP2 POP POP JUMP JUMPDEST PUSH0 PUSH1 0x20 DUP3 ADD SWAP1 POP SWAP2 SWAP1 POP JUMP JUMPDEST PUSH2 0x670 DUP2 PUSH2 0x60A JUMP JUMPDEST PUSH2 0x67A DUP2 DUP5 PUSH2 0x614 JUMP JUMPDEST SWAP3 POP PUSH2 0x685 DUP3 PUSH2 0x61E JUMP JUMPDEST DUP1 PUSH0 JUMPDEST DUP4 DUP2 LT ISZERO PUSH2 0x6B5 JUMPI DUP2 MLOAD PUSH2 0x69C DUP8 DUP3 PUSH2 0x644 JUMP JUMPDEST SWAP7 POP PUSH2 0x6A7 DUP4 PUSH2 0x65B JUMP JUMPDEST SWAP3 POP POP PUSH1 0x1 DUP2 ADD SWAP1 POP PUSH2 0x688 JUMP JUMPDEST POP POP POP POP POP POP JUMP JUMPDEST PUSH0 PUSH2 0x6C8 DUP4 DUP4 PUSH2 0x667 JUMP JUMPDEST PUSH1 0x40 DUP4 ADD SWAP1 POP SWAP3 SWAP2 POP POP JUMP JUMPDEST PUSH0 PUSH1 0x20 DUP3 ADD SWAP1 POP SWAP2 SWAP1 POP JUMP JUMPDEST PUSH2 0x6E9 DUP2 PUSH2 0x5ED JUMP JUMPDEST PUSH2 0x6F3 DUP2 DUP5 PUSH2 0x5F7 JUMP JUMPDEST SWAP3 POP PUSH2 0x6FE DUP3 PUSH2 0x601 JUMP JUMPDEST DUP1 PUSH0 JUMPDEST DUP4 DUP2 LT ISZERO PUSH2 0x72E JUMPI DUP2 MLOAD PUSH2 0x715 DUP8 DUP3 PUSH2 0x6BD JUMP JUMPDEST SWAP7 POP PUSH2 0x720 DUP4 PUSH2 0x6D4 JUMP JUMPDEST SWAP3 POP POP PUSH1 0x1 DUP2 ADD SWAP1 POP PUSH2 0x701 JUMP JUMPDEST POP POP POP POP POP POP JUMP JUMPDEST PUSH0 PUSH2 0x100 DUP3 ADD SWAP1 POP PUSH2 0x74A PUSH0 DUP4 ADD DUP5 PUSH2 0x6E0 JUMP JUMPDEST SWAP3 SWAP2 POP POP JUMP JUMPDEST PUSH0 PUSH1 0x40 MLOAD SWAP1 POP SWAP1 JUMP JUMPDEST PUSH0 DUP1 REVERT JUMPDEST PUSH0 DUP2 SWAP1 POP SWAP2 SWAP1 POP JUMP JUMPDEST PUSH2 0x76F DUP2 PUSH2 0x75D JUMP JUMPDEST DUP2 EQ PUSH2 0x779 JUMPI PUSH0 DUP1 REVERT JUMPDEST POP JUMP JUMPDEST PUSH0 DUP2 CALLDATALOAD SWAP1 POP PUSH2 0x78A DUP2 PUSH2 0x766 JUMP JUMPDEST SWAP3 SWAP2 POP POP JUMP JUMPDEST PUSH0 PUSH1 0x20 DUP3 DUP5 SUB SLT ISZERO PUSH2 0x7A5 JUMPI PUSH2 0x7A4 PUSH2 0x759 JUMP JUMPDEST JUMPDEST PUSH0 PUSH2 0x7B2 DUP5 DUP3 DUP6 ADD PUSH2 0x77C JUMP JUMPDEST SWAP2 POP POP SWAP3 SWAP2 POP POP JUMP JUMPDEST PUSH0 DUP2 MLOAD SWAP1 POP SWAP2 SWAP1 POP JUMP JUMPDEST PUSH0 DUP3 DUP3 MSTORE PUSH1 0x20 DUP3 ADD SWAP1 POP SWAP3 SWAP2 POP POP JUMP JUMPDEST DUP3 DUP2 DUP4 MCOPY PUSH0 DUP4 DUP4 ADD MSTORE POP POP POP JUMP JUMPDEST PUSH0 PUSH1 0x1F NOT PUSH1 0x1F DUP4 ADD AND SWAP1 POP SWAP2 SWAP1 POP JUMP JUMPDEST PUSH0 PUSH2 0x7FD DUP3 PUSH2 0x7BB JUMP JUMPDEST PUSH2 0x807 DUP2 DUP6 PUSH2 0x7C5 JUMP JUMPDEST SWAP4 POP PUSH2 0x817 DUP2 DUP6 PUSH1 0x20 DUP7 ADD PUSH2 0x7D5 JUMP JUMPDEST PUSH2 0x820 DUP2 PUSH2 0x7E3 JUMP JUMPDEST DUP5 ADD SWAP2 POP POP SWAP3 SWAP2 POP POP JUMP JUMPDEST PUSH0 PUSH1 0x20 DUP3 ADD SWAP1 POP DUP2 DUP2 SUB PUSH0 DUP4 ADD MSTORE PUSH2 0x843 DUP2 DUP5 PUSH2 0x7F3 JUMP JUMPDEST SWAP1 POP SWAP3 SWAP2 POP POP JUMP JUMPDEST PUSH0 DUP1 REVERT JUMPDEST PUSH32 0x4E487B7100000000000000000000000000000000000000000000000000000000 PUSH0 MSTORE PUSH1 0x41 PUSH1 0x4 MSTORE PUSH1 0x24 PUSH0 REVERT JUMPDEST PUSH2 0x885 DUP3 PUSH2 0x7E3 JUMP JUMPDEST DUP2 ADD DUP2 DUP2 LT PUSH8 0xFFFFFFFFFFFFFFFF DUP3 GT OR ISZERO PUSH2 0x8A4 JUMPI PUSH2 0x8A3 PUSH2 0x84F JUMP JUMPDEST JUMPDEST DUP1 PUSH1 0x40 MSTORE POP POP POP JUMP JUMPDEST PUSH0 PUSH2 0x8B6 PUSH2 0x750 JUMP JUMPDEST SWAP1 POP PUSH2 0x8C2 DUP3 DUP3 PUSH2 0x87C JUMP JUMPDEST SWAP2 SWAP1 POP JUMP JUMPDEST PUSH0 PUSH8 0xFFFFFFFFFFFFFFFF DUP3 GT ISZERO PUSH2 0x8E1 JUMPI PUSH2 0x8E0 PUSH2 0x84F JUMP JUMPDEST JUMPDEST PUSH1 0x20 DUP3 MUL SWAP1 POP SWAP2 SWAP1 POP JUMP JUMPDEST PUSH0 DUP1 REVERT JUMPDEST PUSH0 PUSH2 0x902 PUSH2 0x8FD DUP5 PUSH2 0x8C7 JUMP JUMPDEST PUSH2 0x8AD JUMP JUMPDEST SWAP1 POP DUP1 PUSH1 0x20 DUP5 MUL DUP4 ADD DUP6 DUP2 GT ISZERO PUSH2 0x91C JUMPI PUSH2 0x91B PUSH2 0x8EC JUMP JUMPDEST JUMPDEST DUP4 JUMPDEST DUP2 DUP2 LT ISZERO PUSH2 0x945 JUMPI DUP1 PUSH2 0x931 DUP9 DUP3 PUSH2 0x77C JUMP JUMPDEST DUP5 MSTORE PUSH1 0x20 DUP5 ADD SWAP4 POP POP PUSH1 0x20 DUP2 ADD SWAP1 POP PUSH2 0x91E JUMP JUMPDEST POP POP POP SWAP4 SWAP3 POP POP POP JUMP JUMPDEST PUSH0 DUP3 PUSH1 0x1F DUP4 ADD SLT PUSH2 0x963 JUMPI PUSH2 0x962 PUSH2 0x84B JUMP JUMPDEST JUMPDEST PUSH1 0x3 PUSH2 0x970 DUP5 DUP3 DUP6 PUSH2 0x8F0 JUMP JUMPDEST SWAP2 POP POP SWAP3 SWAP2 POP POP JUMP JUMPDEST PUSH0 PUSH1 0x60 DUP3 DUP5 SUB SLT ISZERO PUSH2 0x98E JUMPI PUSH2 0x98D PUSH2 0x759 JUMP JUMPDEST JUMPDEST PUSH0 PUSH2 0x99B DUP5 DUP3 DUP6 ADD PUSH2 0x94F JUMP JUMPDEST SWAP2 POP POP SWAP3 SWAP2 POP POP JUMP JUMPDEST PUSH2 0x9AD DUP2 PUSH2 0x75D JUMP JUMPDEST DUP3 MSTORE POP POP JUMP JUMPDEST PUSH0 PUSH1 0x20 DUP3 ADD SWAP1 POP PUSH2 0x9C6 PUSH0 DUP4 ADD DUP5 PUSH2 0x9A4 JUMP JUMPDEST SWAP3 SWAP2 POP POP JUMP JUMPDEST PUSH0 DUP2 MLOAD SWAP1 POP SWAP2 SWAP1 POP JUMP JUMPDEST PUSH0 DUP3 DUP3 MSTORE PUSH1 0x20 DUP3 ADD SWAP1 POP SWAP3 SWAP2 POP POP JUMP JUMPDEST PUSH0 DUP2 SWAP1 POP PUSH1 0x20 DUP3 ADD SWAP1 POP SWAP2 SWAP1 POP JUMP JUMPDEST PUSH0 DUP2 MLOAD SWAP1 POP SWAP2 SWAP1 POP JUMP JUMPDEST PUSH0 DUP3 DUP3 MSTORE PUSH1 0x20 DUP3 ADD SWAP1 POP SWAP3 SWAP2 POP POP JUMP JUMPDEST PUSH0 DUP2 SWAP1 POP PUSH1 0x20 DUP3 ADD SWAP1 POP SWAP2 SWAP1 POP JUMP JUMPDEST PUSH0 PUSH1 0x20 DUP3 ADD SWAP1 POP SWAP2 SWAP1 POP JUMP JUMPDEST PUSH0 PUSH2 0xA34 DUP3 PUSH2 0x9F5 JUMP JUMPDEST PUSH2 0xA3E DUP2 DUP6 PUSH2 0x9FF JUMP JUMPDEST SWAP4 POP PUSH2 0xA49 DUP4 PUSH2 0xA0F JUMP JUMPDEST DUP1 PUSH0 JUMPDEST DUP4 DUP2 LT ISZERO PUSH2 0xA79 JUMPI DUP2 MLOAD PUSH2 0xA60 DUP9 DUP3 PUSH2 0x644 JUMP JUMPDEST SWAP8 POP PUSH2 0xA6B DUP4 PUSH2 0xA1E JUMP JUMPDEST SWAP3 POP POP PUSH1 0x1 DUP2 ADD SWAP1 POP PUSH2 0xA4C JUMP JUMPDEST POP DUP6 SWAP4 POP POP POP POP SWAP3 SWAP2 POP POP JUMP JUMPDEST PUSH0 PUSH2 0xA91 DUP4 DUP4 PUSH2 0xA2A JUMP JUMPDEST SWAP1 POP SWAP3 SWAP2 POP POP JUMP JUMPDEST PUSH0 PUSH1 0x20 DUP3 ADD SWAP1 POP SWAP2 SWAP1 POP JUMP JUMPDEST PUSH0 PUSH2 0xAAF DUP3 PUSH2 0x9CC JUMP JUMPDEST PUSH2 0xAB9 DUP2 DUP6 PUSH2 0x9D6 JUMP JUMPDEST SWAP4 POP DUP4 PUSH1 0x20 DUP3 MUL DUP6 ADD PUSH2 0xACB DUP6 PUSH2 0x9E6 JUMP JUMPDEST DUP1 PUSH0 JUMPDEST DUP6 DUP2 LT ISZERO PUSH2 0xB06 JUMPI DUP5 DUP5 SUB DUP10 MSTORE DUP2 MLOAD PUSH2 0xAE7 DUP6 DUP3 PUSH2 0xA86 JUMP JUMPDEST SWAP5 POP PUSH2 0xAF2 DUP4 PUSH2 0xA99 JUMP JUMPDEST SWAP3 POP PUSH1 0x20 DUP11 ADD SWAP10 POP POP PUSH1 0x1 DUP2 ADD SWAP1 POP PUSH2 0xACE JUMP JUMPDEST POP DUP3 SWAP8 POP DUP8 SWAP6 POP POP POP POP POP POP SWAP3 SWAP2 POP POP JUMP JUMPDEST PUSH0 PUSH1 0x20 DUP3 ADD SWAP1 POP DUP2 DUP2 SUB PUSH0 DUP4 ADD MSTORE PUSH2 0xB30 DUP2 DUP5 PUSH2 0xAA5 JUMP JUMPDEST SWAP1 POP SWAP3 SWAP2 POP POP JUMP JUMPDEST PUSH0 DUP2 MLOAD SWAP1 POP SWAP2 SWAP1 POP JUMP JUMPDEST PUSH0 DUP3 DUP3 MSTORE PUSH1 0x20 DUP3 ADD SWAP1 POP SWAP3 SWAP2 POP POP JUMP JUMPDEST PUSH0 DUP2 SWAP1 POP PUSH1 0x20 DUP3 ADD SWAP1 POP SWAP2 SWAP1 POP JUMP JUMPDEST PUSH2 0xB6A DUP2 PUSH2 0x75D JUMP JUMPDEST DUP3 MSTORE POP POP JUMP JUMPDEST PUSH0 PUSH2 0xB7B DUP4 DUP4 PUSH2 0xB61 JUMP JUMPDEST PUSH1 0x20 DUP4 ADD SWAP1 POP SWAP3 SWAP2 POP POP JUMP JUMPDEST PUSH0 PUSH1 0x20 DUP3 ADD SWAP1 POP SWAP2 SWAP1 POP JUMP JUMPDEST PUSH0 PUSH2 0xB9D DUP3 PUSH2 0xB38 JUMP JUMPDEST PUSH2 0xBA7 DUP2 DUP6 PUSH2 0xB42 JUMP JUMPDEST SWAP4 POP PUSH2 0xBB2 DUP4 PUSH2 0xB52 JUMP JUMPDEST DUP1 PUSH0 JUMPDEST DUP4 DUP2 LT ISZERO PUSH2 0xBE2 JUMPI DUP2 MLOAD PUSH2 0xBC9 DUP9 DUP3 PUSH2 0xB70 JUMP JUMPDEST SWAP8 POP PUSH2 0xBD4 DUP4 PUSH2 0xB87 JUMP JUMPDEST SWAP3 POP POP PUSH1 0x1 DUP2 ADD SWAP1 POP PUSH2 0xBB5 JUMP JUMPDEST POP DUP6 SWAP4 POP POP POP POP SWAP3 SWAP2 POP POP JUMP JUMPDEST PUSH0 PUSH1 0x20 DUP3 ADD SWAP1 POP DUP2 DUP2 SUB PUSH0 DUP4 ADD MSTORE PUSH2 0xC07 DUP2 DUP5 PUSH2 0xB93 JUMP JUMPDEST SWAP1 POP SWAP3 SWAP2 POP POP JUMP JUMPDEST PUSH32 0x4E487B7100000000000000000000000000000000000000000000000000000000 PUSH0 MSTORE PUSH1 0x32 PUSH1 0x4 MSTORE PUSH1 0x24 PUSH0 REVERT JUMPDEST PUSH32 0x4E487B7100000000000000000000000000000000000000000000000000000000 PUSH0 MSTORE PUSH1 0x11 PUSH1 0x4 MSTORE PUSH1 0x24 PUSH0 REVERT JUMPDEST PUSH0 PUSH2 0xC73 DUP3 PUSH2 0x75D JUMP JUMPDEST SWAP2 POP PUSH2 0xC7E DUP4 PUSH2 0x75D JUMP JUMPDEST SWAP3 POP DUP3 DUP3 ADD SWAP1 POP DUP1 DUP3 GT ISZERO PUSH2 0xC96 JUMPI PUSH2 0xC95 PUSH2 0xC3C JUMP JUMPDEST JUMPDEST SWAP3 SWAP2 POP POP JUMP INVALID LOG2 PUSH5 0x6970667358 0x22 SLT KECCAK256 0xBE 0xC9 SWAP5 RETURNDATACOPY PUSH28 0x4F10652300346D124FC917D3237B440C9124DD3F90E90F40CE9F2F64 PUSH20 0x6F6C634300081A00330000000000000000000000 "
		},
		"gasEstimates": {
			"creation": {
				"codeDepositCost": "656400",
				"executionCost": "712",
				"totalCost": "657112"
			},
			"external": {
				"createArray(uint256)": "infinite",
				"createBytes(uint256)": "infinite",
				"createDynamicArray()": "infinite",
				"createMulitArray()": "infinite",
				"f()": "infinite",
				"g(uint256[3])": "infinite"
			},
			"internal": {
				"map(uint256[] memory,function (uint256) pure returns (uint256))": "infinite",
				"range(uint256)": "infinite",
				"reduce(uint256[] memory,function (uint256,uint256) pure returns (uint256))": "infinite"
			}
		},
		"methodIdentifiers": {
			"createArray(uint256)": "fbe73ab3",
			"createBytes(uint256)": "57f9200b",
			"createDynamicArray()": "e71360d7",
			"createMulitArray()": "289311e5",
			"f()": "26121ff0",
			"g(uint256[3])": "d14d385d"
		}
	},
	"abi": [
		{
			"inputs": [
				{
					"internalType": "uint256",
					"name": "len",
					"type": "uint256"
				}
			],
			"name": "createArray",
			"outputs": [
				{
					"internalType": "uint256[]",
					"name": "",
					"type": "uint256[]"
				}
			],
			"stateMutability": "pure",
			"type": "function"
		},
		{
			"inputs": [
				{
					"internalType": "uint256",
					"name": "len",
					"type": "uint256"
				}
			],
			"name": "createBytes",
			"outputs": [
				{
					"internalType": "bytes",
					"name": "",
					"type": "bytes"
				}
			],
			"stateMutability": "pure",
			"type": "function"
		},
		{
			"inputs": [],
			"name": "createDynamicArray",
			"outputs": [
				{
					"internalType": "uint24[][]",
					"name": "",
					"type": "uint24[][]"
				}
			],
			"stateMutability": "pure",
			"type": "function"
		},
		{
			"inputs": [],
			"name": "createMulitArray",
			"outputs": [
				{
					"internalType": "uint24[2][4]",
					"name": "",
					"type": "uint24[2][4]"
				}
			],
			"stateMutability": "pure",
			"type": "function"
		},
		{
			"inputs": [],
			"name": "f",
			"outputs": [],
			"stateMutability": "pure",
			"type": "function"
		},
		{
			"inputs": [
				{
					"internalType": "uint256[3]",
					"name": "a",
					"type": "uint256[3]"
				}
			],
			"name": "g",
			"outputs": [
				{
					"internalType": "uint256",
					"name": "",
					"type": "uint256"
				}
			],
			"stateMutability": "pure",
			"type": "function"
		}
	]
}